:020000040800F2
:10000000000003205D060008492500084B25000874
:100010004D2500084F25000851250008000000006C
:1000200000000000000000000000000091800008B7
:100030005325000800000000218100089B7900087A
:10004000AD060008AD060008AD060008AD060008C4
:10005000AD060008AD060008AD060008AD060008B4
:10006000AD060008AD060008AD060008AD060008A4
:10007000AD060008AD060008AD060008AD06000894
:10008000AD060008AD060008AD060008AD06000884
:10009000AD060008AD060008AD060008AD06000874
:1000A000AD060008AD060008AD060008AD06000864
:1000B000AD060008AD060008AD060008AD06000854
:1000C000AD060008AD060008AD060008AD06000844
:1000D000AD060008AD060008AD060008AD06000834
:1000E000AD060008AD060008AD060008AD06000824
:1000F000AD060008AD060008AD060008AD06000814
:10010000AD060008AD060008AD060008AD06000803
:10011000AD060008AD06000855250008AD0600082C
:10012000AD060008AD060008AD060008AD060008E3
:10013000AD060008AD060008AD060008AD060008D3
:10014000AD060008AD060008AD060008AD060008C3
:10015000AD060008AD060008AD060008AD060008B3
:10016000AD060008AD060008AD060008AD060008A3
:10017000AD060008AD060008AD060008000000004E
:10018000AD060008AD060008AD060008AD06000883
:10019000AD060008AD060008AD060008AD06000873
:0C01A00061250008AD0600086D25000870
:1001B00010B5054C237833B9044B13B10448AFF3A1
:1001C00000800123237010BD800300200000000088
:1001D0001058020808B5034B1BB103490348AFF39D
:1001E000008008BD000000008403002010580208B1
:1001F00001F0FF01102A2BDB10F0070F08D010F8D8
:10020000013B013A8B422DD010F0070F42B3F6D1DB
:10021000F0B441EA012141EA014122F007047FF0F4
:1002200000070023F0E80256083C85EA010586EA4B
:10023000010685FA47F5A3FA87F586FA47F6A5FA87
:1002400087F68EB9EED1F0BC01F0FF0102F0070293
:1002500032B110F8013B013A83EA010313B1F8D13E
:100260000020704701387047002D06BF354603381F
:10027000073815F0010F07D1013015F4807F02BF58
:10028000013015F4C03F0130F0BC0138704700BFA9
:100290007BB972B90029BEBF00204FF0004106E0D3
:1002A00008BF00281CBF6FF000414FF0FF3000F086
:1002B000D3B9ADF1080C6DE904CE002909DB002BA0
:1002C0001ADB00F04DF8DDF804E0DDE9022304B0AC
:1002D0007047404261EB4101002B1BDB00F040F80E
:1002E000DDF804E0DDE9022304B0404261EB4101A6
:1002F000524263EB43037047524263EB430300F007
:100300002FF8DDF804E0DDE9022304B0404261EBA0
:1003100041017047524263EB430300F021F8DDF8DE
:1003200004E0DDE9022304B0524263EB430370476B
:1003300053B94AB9002908BF00281CBF4FF0FF314C
:100340004FF0FF3000F088B9ADF1080C6DE904CE34
:1003500000F006F8DDF804E0DDE9022304B07047A0
:100360002DE9F047089D8E4604468846002B4AD169
:100370008A42174662D9B2FA82F64EB1C6F120031C
:1003800001FA06F820FA03F3B74043EA0808B4403C
:100390004FEA174E1FFA87FCB8FBFEF1230C0EFB49
:1003A000118843EA084301FB0CF29A4209D9FB1871
:1003B00001F1FF3080F0EA809A4240F2E780023992
:1003C0003B449A1AA3B2B2FBFEF00EFB102243EAA2
:1003D000024300FB0CFC9C4509D9FB1800F1FF32DD
:1003E00080F0D6809C4540F2D3803B44023840EAFE
:1003F0000140A3EB0C0300211DB1F3400022C5E92D
:100400000032BDE8F0878B4205D90DB1C5E9000186
:1004100000210846F5E7B3FA83F1002946D1734578
:1004200002D3824200F20581841A6EEB030201209E
:100430009046002DE5D0C5E90048E2E7002A00F02B
:100440009080B2FA82F6002E40F0A4808A1A030C43
:100450004FEA174E80B2BCB20121B2FBFEFC0EFB8C
:100460001C2243EA024304FB0CF29A4207D9FB1810
:100470000CF1FF3802D29A4200F2E080C4469B1A87
:10048000B3FBFEF20EFB123340EA034302FB04F41B
:100490009C4207D9FB1802F1FF3002D29C4200F2C5
:1004A000CA8002461B1B42EA0C40A5E7C1F12006A8
:1004B0008B4022FA06F71F430EFA01F420FA06F3E6
:1004C0002EFA06FE4FEA1749234300FA01F81FFAF5
:1004D00087FCBEFBF9F01C0C09FB10EE44EA0E444D
:1004E00000FB0CFEA64502FA01F209D93C1900F105
:1004F000FF3A80F09C80A64540F2998002383C4447
:10050000A4EB0E041FFA83FEB4FBF9F309FB1344BA
:100510004EEA044403FB0CFCA44508D93C1903F142
:10052000FF3E80F08280A4457FD9023B3C4443EAF1
:100530000040A4EB0C04A0FB02EC64457346E146CA
:1005400062D35FD05DB1B8EB030264EB090404FA37
:1005500006F622FA01F31E43CC40C5E900640021EF
:100560004FE7B1FBF2FC010C41EA0E4180B240EAD8
:1005700001423B4638463C46B846BE462026B1FBC3
:10058000F7F1A2EB080241EA0C4166E7014618E7E1
:1005900010462CE7C6F120022EFA02F3B740B14014
:1005A00020FA02F24FEA174E0A43B3FBFEF8BCB240
:1005B0000EFB1833110C41EA034108FB04F9B0406B
:1005C00089454FEA104380B23ED9791808F1FF3CC3
:1005D00001D289451FD8A1EB0901B1FBFEF909FB46
:1005E00004F80EFB191192B242EA0142424529D2A7
:1005F000BA1809F1FF31C4D24245C2D2A9F10201B1
:100600003A44BEE7F0459DD2BEEB02036CEB070C0B
:100610000138E14696E7A7EB09094944A8F1020C25
:10062000B1FBFEF909FB04F8DBE773467FE75046B0
:1006300066E70846FDE63B44023A33E7ACF1020CBC
:100640003B441CE749469CE7A1EB0901C446B1FBCA
:10065000FEF909FB04F8C4E7704700BFDFF834D0A7
:10066000002103E00C4B5B58435004310B480C4B0A
:1006700042189A42F6D30B4A02E0002342F8043BA8
:10068000094B9A42F9D304F073FD24F053FB01F0B7
:1006900043F970470000032090580D080000002027
:1006A000640100208003002010530120FEE7704702
:1006B00008B500F0BDFDBDE8084000F03FBD00F00A
:1006C000B9BD704710B50421044623F0A7F82046B1
:1006D00010BD000038B50C4B0C4C18800C4B822020
:1006E00019806368984740F6110398420AD1094D72
:1006F00023682C60822098472B688220DB6898470B
:10070000002038BD0120FCE7A60300204C0000209B
:10071000A4030020A80300204FF4A071F020FFF7ED
:10072000D9BF0000F7B5394D2B6804461B698220FC
:100730009847208000284ED02B680DF106025B6997
:1007400001A982209847324B1B78002B4BD0BDF873
:10075000062040F674639A423FD9ADF80630BDF8E2
:1007600006209B1A9BB20A2B42D90B22B3FBF2F351
:10077000284A1288934201D9013A93B2BDF8042065
:10078000254840F6B8318A4234D8C2F571620E323B
:10079000016892B20F25B2FBF5F2204D2D88AA42D6
:1007A00084BF05F1FF35AAB28A4215468EB22AD916
:1007B000921B91B21A4E3768BB42BAB28CBF9A1ADA
:1007C000D21A92B211440529C4BF05603360036890
:1007D00063803368A38003B0F0BDB32A9CBFB4220A
:1007E000ADF80620BBE7BDF80630A3F5B473B9E752
:1007F0000023C3E7C2F56D62083292B20E2A016887
:10080000C8D800252A46891A89B2D3E7A803002050
:1008100068340020A4030020A0030020A6030020C9
:100820009C03002037B568460D461446FFF77AFF53
:10083000BDF8000030B1BDF802302B60BDF80430C7
:100840002360012003B030BD032821D8DFE800F089
:10085000020B12190F4B1A68B2FA82F252090421E4
:100860000D4804F019BF0B4B5A68B2FA82F25209D4
:100870000821F5E7074B9A68B2FA82F25209102173
:10088000EEE7044BDA68B2FA82F252092021E7E778
:10089000704700BFAC03002000100240032821D89D
:1008A000DFE800F0020B12190F4B1A68003A18BF6C
:1008B000012204210D4804F0EFBE0B4B5A68003AA8
:1008C00018BF01220821F5E7074B9A68003A18BFC4
:1008D00001221021EEE7044BDA68003A18BF01222A
:1008E0002021E7E7704700BFAC0300200010024062
:1008F00003280DD8DFE800F00206080A04210548A5
:1009000004F0CFBE0821FAE71021F8E72021F6E72E
:10091000704700BF0010024008B5032811D8DFE877
:1009200000F0020A0C0E0421074804F0AFFE431E3B
:100930005842584108BD0821F6E71021F4E720216C
:10094000F2E70020F3E700BF0010024070B5084D49
:1009500000240126E0B2FFF7DFFF18B12B68012B5E
:1009600018BF2E600134052C05F10405F2D170BDCD
:10097000AC030020012380F8781080F879307047AC
:100980007047002070470000034B4164003918BFD6
:1009900001211970704700BFCF450120704700202A
:1009A0007047836B0BB10846184770474FF6FF70CE
:1009B0007047406803689B691847704770477047E5
:1009C0007047704710B5044600F04AFD236803499C
:1009D000D3F890302046BDE810401847000000D002
:1009E00008B503680446D3F8843098472368204646
:1009F000DB6F984700F0ECF8236820465B6F984760
:100A0000292001F073FA00F0E3F8236820465B6FB9
:100A10009847F8E710B504460AF074F923682046B1
:100A2000D3F8BC30BDE81040184700F0FDBC00F022
:100A300001BD00F033BD00F0D3BC00F043BD00F0B9
:100A40004BBD00F0D7BC09F08BBB10B58421044628
:100A500022F0E4FE204610BD10B590F8341090F856
:100A600078400C4B8C421A7809D03AB90A4A0B49A3
:100A70001488088810800C8001221A7010BD002A8A
:100A8000FCD0054A05491488088810800C80002293
:100A9000F3E700BFC8450120C4450120C645012039
:100AA00070B50D46194635B9094B0A4A0A4840F255
:100AB000FF2123F031FEC0E90F52084B003A18BF66
:100AC00001221A700368BDE87040D3F890301847CF
:100AD00068590208A0590208EE590208CE450120C3
:100AE00008B5094B1B888B4203D8084B1B889342DF
:100AF00005D9074B074A0848A32123F00DFE074BF1
:100B00001980074B1A8008BDC4450120C645012045
:100B1000335A0208965A0208EE590208CA450120C3
:100B2000CC450120034690F87A0018B15868036854
:100B30001B68184770470000012108B500220846CD
:100B400006F0B4FF0A4B186028B90A4B0A4A28215C
:100B50000A4823F0E1FD00220421012007F04EF8AD
:100B6000074B186018B9074B034A2C21F0E708BD62
:100B7000C0030020D95A0208225B0208515B020818
:100B8000BC030020A15B0208024B4FF0FF31186844
:100B900006F0D6BFC0030020014B186806F0FCBF6A
:100BA000C0030020024B0021186806F0C9BF00BF37
:100BB000C0030020FFF7F0BF03480449006800238A
:100BC0001A4607F056B800BFBC03002004000020FE
:100BD00013B5084C00231A4601A9206807F07AF8DB
:100BE00020684FF0FF33002201A907F073F802B02C
:100BF00010BD00BFBC03002003685B6C18470120D8
:100C0000704703689B6A1847FEE740F2EF30704771
:100C1000054B0360054B4FF08062C3F88820BFF39B
:100C20004F8FBFF36F8F70476069020800E100E0EB
:100C300010B504464FF45A61FFF7EAFF204622F050
:100C4000EDFD204610BD000082B0002301930E4B45
:100C50001A6B42F400021A631A6B02F4000201924A
:100C6000019A1A6942F400021A611A6922F4000218
:100C70001A61064B064A1A61064A5A61064B4FF042
:100C800080629A6002B070470038024058360020F7
:100C9000E90E0008090C000800E100E008B50A2888
:100CA00009D8DFE800F006100E0808080810101038
:100CB0001000022008BD054B054A0648902123F08C
:100CC0002BFD0020F6E70120F4E700BFE35B0208FC
:100CD000FE5B0208495C020838B50C46887FFFF7C6
:100CE000DDFFA58AE28A164B2169586342EA054274
:100CF0005A64628BD963521B1A642568082D0ED181
:100D00009A611A615862207F0E4A42EA0062DA61F3
:100D1000E2681A620C4A5961D9601A6038BD002233
:100D2000D8611A61E1680A0A480902F4784200F4BD
:100D3000FC600243C1F3C4010A439A63034AECE72F
:100D400000B002400900010001230200012303005A
:100D500008B50B280BD8DFE800F00612100A0A0AC3
:100D60000A0808080808022008BD0520FCE7054B12
:100D7000054A06486F2123F0CFFC0020F4E701204C
:100D8000F2E700BFE35B0208975C0208495C0208D7
:100D90002DE9F04191F81D800C464046FFF7D8FF41
:100DA000A77F05463846FFF7D3FF06463846FFF7CC
:100DB00075FFA18A628B444B521A1A649A61228B86
:100DC000521A1A61E28A586342EA01425A6421695E
:100DD0006268D963DA602068802828D0227F0FD823
:100DE000202867D0402865D004281AD0364B45EA21
:100DF000026545F40035B845DD6161D0334A44E011
:100E0000B0F5807F04D0B0F5007FEFD1304800E02E
:100E1000304840EA0262DA61E2681A625E62596151
:100E200032E045EA026242F40032DA61F6E7A06895
:100E3000021DDA62227F45EA026545F40035DD6174
:100E40005E625961017841B1012921D0224B234AC8
:100E500023484FF48D7123F05FFCDA69418822F456
:100E60007F42013922F0100242EA0122DA610121B7
:100E7000154BDA6942F02002DA61DA699206FCD495
:100E800010229A600029B9D0164A1A60BDE8F08194
:100E9000B2F1FF01DA69408822F47F4200F1FF30AD
:100EA00022F0100242EA002242F0100218BF012193
:100EB000DA61DDE745EA0262034B42F40032B4E74F
:100EC00042F20132E1E700BF00B00240012301001D
:100ED000090002000A000200E15C0208FB5C020853
:100EE000495C020801230200024B1B685868036832
:100EF0005B691847D045012070B5044625460A4B6A
:100F00000C30002660602672667245F8203B602235
:100F100029460AF04DF804F55A63EE6024359D42E7
:100F2000FBD1204670BD00BF60690208034B1A6800
:100F3000D207FCD423229A60704700BF00B0024061
:100F40007047000030B50F4C2568ED07FCD4232511
:100F50000904A56041F001010225FF2B656361646E
:100F6000E0630AD00849656241EA0363E361074B25
:100F700022626061E060236030BDE561039BA36392
:100F8000034BF8E700B00240090001000100020035
:100F90000100030030B50E4C2568ED07FCD4232575
:100FA0001204A56042F001020225FF2B6563626412
:100FB000E063E16008D01B0643F00213E361054BD8
:100FC00065626061236030BD034BE3610123F9E793
:100FD00000B0024001000200020002FF30B50B4CDD
:100FE0002568ED07FCD4232512041B06A56043F4F5
:100FF0000033022542F0010265636264E063E16050
:10100000E361034B65626061236030BD00B0024064
:1010100001000200012070474020704700EB811062
:101020000830704700EB811008307047012070478E
:1010300041F61070704741F6107303FB0100083051
:10104000704741F6107303FB010008307047012020
:1010500070471020704700EB01100830704700EB1C
:10106000011008307047084601F0EEBC10B5034B84
:101070000360044608F0C9FD204610BD186A020846
:1010800010B50446FFF7F2FF2046482122F0C6FBC8
:10109000204610BD10B5034B0360044608F0B5FDB3
:1010A000204610BDE469020810B50446FFF7F2FFC0
:1010B000204641F6187122F0B1FB204610BD000019
:1010C00010B5034B0360044608F09FFD204610BD99
:1010D000B069020810B50446FFF7F2FF2046182158
:1010E00022F09CFB204610BD10B5094B036004465E
:1010F00000F5FA500430FFF7B9FF04F12C00FFF7B8
:10110000C9FF04F11400FFF7DBFF204610BD00BF4C
:101110004C6A020808B50248FFF7E6FF08BD00BFA9
:101120009C12002010B50446FFF7DEFF204642F275
:10113000F00122F073FB204610BD00002DE9F341C1
:1011400001F08EFA054601F08FFA0024014623468D
:1011500028462246009413F0AFFA274B274A1A601C
:10116000204602F045FD264D264B274A27489A6027
:1011700013F00AFA2B68BFF35B8FDB0736D42846DF
:1011800022F04EFB90B3224C224B234F236004F1FC
:10119000140000F5FC5604F12C086060C4F80880C7
:1011A000E760266108F032FD1C4B6361404608F0A1
:1011B0002DFD1B4BE362384608F028FD04F58053F3
:1011C00003F68C70174AC3F8442F03F02DFD224616
:1011D000A6F10801304602F089FD304601F034FCEA
:1011E000114823F0B7FA284622F026FB0F4802B038
:1011F000BDE8F041FFF7E6BB34460120480400207B
:1012000098120020680400204C04002008000020F0
:101210009C1200204C6A0208E0310020B0690208EC
:10122000E4690208186A020815110008C4030020C6
:10123000704700000148FFF7D3BB00BFC403002084
:1012400070B5264E264C274D274B23603046FFF7BE
:1012500053FE284618F036FB244810F065FD244B59
:101260002448DC6000224FF48071C3E91212224945
:101270001A86C3E91A12214983F85820C3E91E01CE
:101280001F49C3F880101F491F480B60F021C3E9B4
:101290000422C3E90622C3E90822C3E90A22C3E9FA
:1012A0000E22C3E91022C3E91422C3E917225A66A9
:1012B00083F870205A67C3E90165018013480180F3
:1012C00013484FF4A07101801248018012490A703E
:1012D000012283F83420114A1A6070BDF404002002
:1012E0009412002068040020585902084C04002081
:1012F000C4030020000001010100000100045000AF
:101300001A001400D0450120C4450120CA4501201F
:10131000C6450120CC450120C8450120746802085B
:101320000148FFF775BC00BFF4040020002070479F
:1013300081807047C180704701817047418170474B
:101340007047704770477047704710B4C48803688F
:10135000121B84885B6D091B12B25DF8044B09B245
:1013600018474FF6FF7383814FF0FF330362136812
:10137000C36110607047002070478B888380012014
:101380007047704780F82610704790F82600704725
:1013900010B50022B1F90840B1F90A10028042806C
:1013A0008480C18010BD0022028042808280C28081
:1013B00070470177704780ED080A704780F8241065
:1013C000704780F8251070470120704798307047AB
:1013D0008C3070478430704770477047704700000A
:1013E000034B902283F85A2383F85823704700BF99
:1013F00000E100E0094A0A49D3680A48C3F30A0336
:10140000013B9BB20B801169C1F30A0101390180D4
:101410001364536B43F0010353637047006801404A
:101420008E3300208C330020014BD3F8AC00704782
:1014300000680140024B0122C3F8AC105A627047A9
:101440000068014010B52C21044622F0E7F920463F
:1014500010BD10B5BC21044622F0E0F9204610BDB5
:1014600070B5044608F0D1FE23689D6E0FF0AAF90E
:1014700001462046A8472368054AD3F88C502046E9
:10148000AC460023BDE87040A2F51631604700BFAE
:1014900000B004D008F0A0BE08F0AABE08F066BEF6
:1014A00008F0D5BF90F8252012B103685B69184792
:1014B000704790F825201AB190F8242002B11860E6
:1014C00070470000034B4FF080629A604FF08072CB
:1014D0009A60704700E100E0084B4FF08062C3F86B
:1014E0008820BFF34F8FBFF36F8F4FF08072C3F828
:1014F0008820BFF34F8FBFF36F8F704700E100E08C
:1015000070B50023124E8380124B0360336893F84A
:10151000582005460AB1D86C00B998680368DB6AA0
:1015200098473368B0FA80F4D86C640930B1036826
:10153000DB6A9847002808BF44F001042CB9064B29
:10154000064A07482C2123F0E7F8284670BD00BF63
:10155000D0450120606A0208395D0208975D0208E3
:10156000D05D020870B5254E3568BFF35B8F15F06E
:10157000010540D1304622F053F900283BD0204CE1
:10158000204B256104F13400C4E90035C4E902555B
:10159000E584A562A58510F0ACFE04F158000BF0BF
:1015A000BBF9194BA3652046184B40F8843BFFF765
:1015B000A7FF174BC4F884302433C4F88C304FF4A1
:1015C000C803C4E928350023C4F8AC30C4F8B030EF
:1015D000C4F8B430C4F8B8300E480F4BC4F890507B
:1015E000C4F89C50C4F8A850C4F8983023F0B2F85E
:1015F000304622F021F9024870BD00BF9033002030
:1016000094330020E4730208806A0208F86A020832
:1016100098730208DD1300087873020838B5184C77
:1016200023685BB3174B184A1B6C11888B4216D189
:10163000164B198804F038FE236893F86A200025B9
:10164000013283F86A2083F87C50FFF7B5FA2068EE
:1016500009F058FB2846BDE83840FFF7F5B804F01C
:1016600023FE2468236820461B6A9847012384F8D8
:101670007C300020BDE83840FFF710B938BD00BF0E
:10168000D0450120006801408E3300208C330020BB
:1016900007B50D4D0D4C286800224FF0FF3301A90E
:1016A00006F018FB02460028F5D18021204603F001
:1016B000F3FFBDF8040003F095FD012280212046D0
:1016C00003F0EAFFE7E700BF5034002000000240CB
:1016D00000B500228BB00221082006F08FFA0B4BD8
:1016E00020221860002102A823F01DFA084B019364
:1016F0004FF400720823CDE90623002101AA054812
:1017000006F084F90BB05DF804FB00BF50340020F4
:10171000325E02089116000807B5ADF804000548CE
:1017200000231A4601A9006806F0A3FA03B05DF889
:1017300004FB00BF5034002007B5064BADF806008F
:101740001B68054801220DF1060105F0A9FB03B055
:101750005DF804FB0C000020F434002007B50D4DAB
:101760000D4C286800224FF0FF3301A906F0B2FAB1
:1017700002460028F5D18021204603F08DFFBDF8F8
:10178000040003F02FFD01228021204603F084FF96
:10179000E7E700BF583400200000024007B50D23E2
:1017A0008DF804008DF8053003220A2301A90448AE
:1017B0008DF8063006F00BF803B05DF804FB00BFAF
:1017C000AC3400202DE9F74F0127DFF8A8A0DFF89F
:1017D000A880B946BB461021504603F057FF202190
:1017E0000446504603F052FF04210546204803F00A
:1017F0004DFF06468CB9BBF1010F0ED14FF04C0BDB
:10180000D8F800008DF807B0234622460DF10701F5
:1018100006F02FFA5846FFF7C1FF8DB9B9F1010F55
:101820000ED14FF05209D8F800008DF807902B46E2
:101830002A460DF1070106F01CFA4846FFF7AEFFF5
:101840007EB9012F0DD14227D8F800008DF807701E
:10185000334632460DF1070106F00BFA3846FFF722
:101860009DFF1E2006F016F93746A946A346B2E7AB
:1018700000000240000802406034002030B595B0FE
:10188000102200210AA823F04EF91422002103A8F7
:1018900023F049F900241E4B01941A6C42F0805247
:1018A0001A641B6C03F080530193019B194B029443
:1018B0001A6842F440421A601B6803F440430293E2
:1018C0000122029B4FF48033CDE9082302254FF417
:1018D00080030421CDE90E53B423CDE9101308A8E9
:1018E00008231393129504F037FD04F0FBFC0F233B
:1018F000CDE903354FF4A0504FF48053CDE90603F2
:10190000052103A8059404F003FF15B030BD00BF06
:10191000003802400070004080B59AB003F036FCF9
:10192000FFF7D6FEFFF7AAFF142200210DA823F02F
:10193000FAF80024C74B00941A6BC748DFF85483A9
:10194000DFF8549342F010021A631A6B02F010028F
:101950000092009A01941A6B42F020021A631A6BEB
:1019600002F020020192019A02941A6B42F0800266
:101970001A631A6B02F080020292029A03941A6BA5
:1019800042F004021A631A6B02F004020392039AF3
:1019900004941A6B42F001021A631A6B02F00102FE
:1019A0000492049A05941A6B42F002021A631A6BAD
:1019B00002F002020592059A06941A6B42F0400268
:1019C0001A631A6B02F040020692069A07941A6B89
:1019D00042F008021A631B6B03F0080322460793C8
:1019E0003C21079B03F058FE9C480122022103F092
:1019F00053FE22469948042103F04EFE98480122E6
:101A0000802103F049FE224696484FF4405103F0EE
:101A100043FE01263C23CDE90D368F480F94032366
:101A20000DA90227109303F04DFD8C480DA9CDE9B7
:101A30000D760425CDE90F4403F044FD87480DA938
:101A4000CDE90D56CDE90F4703F03CFD2423844832
:101A50000F960DA9CDE90D3403F034FD80238048A5
:101A60000DA9CDE90D36CDE90F4403F02BFD302350
:101A70007A480F960DA9CDE90D3403F023FD4FF4FC
:101A8000405378480DA9CDE90D36CDE90F4703F055
:101A900019FD0DA974480F96CDE90D5403F012FD00
:101AA0007248734B734D036003F002FC724B2C625F
:101AB000C5E9008328464FF48043C5E90434C5E9ED
:101AC0000244C5E9064403F0F5FF1021284604F05E
:101AD00039FA21462846694D04F053FA4FF48273CF
:101AE000C5E900934FF4007A1823C5E906A32846F8
:101AF0000A23C5E90244C5E90444C5E90844AC62C7
:101B0000EB6205F071F98F232246394653488DF870
:101B100024308DF8344003F0BFFD32464FF47A7321
:101B200009A9284605F0BCF94FF47A7332460DA98D
:101B3000284605F061FB324639464848504D03F0CF
:101B4000ABFD9DF83430D32B04BF4E4B1E704E4B73
:101B50000126C5E90036102240230024C5E90423EC
:101B60004FF4C073C5E906344FF40063C5E9083487
:101B70004FF4005302274FF00409AB624FF0030A01
:101B800007230DA92846CDE90D73CDE90F934FF03A
:101B90000808C5E90249CDE911A7139705F008F82F
:101BA0004FF6FF7209A92846CDE90A8608940996DE
:101BB0000C9405F01DF8304603F014FB4FF6FF724D
:101BC00009A92846CDE90978CDE90B6405F010F89C
:101BD0004FF6FF7209A92846CDE909A8CDE90B9473
:101BE00005F006F84FF40C730893089B0C934FF61E
:101BF000FF7209A92846CDE909980B9604F0F8FF71
:101C000040F26A51284605F011F834220DEB02002B
:101C1000214622F088FF1D4D1D4B2C61C5E9003483
:101C20000923C5E905361D23C5E9073A40F20D1120
:101C300040F24313C5E9091340F2171040F247136D
:101C4000C5E90B032846C5E90244AC8685F8364051
:101C500024E000BF003802400010024000080240AB
:101C600000000240000C024000180240983600209C
:101C70000030024004360020A0860100F434002029
:101C80007834002068340020400100A05C3500203A
:101C900000680140005C00400050014004F00CFA74
:101CA000FF214FF4806CF022CDE912140521CDE91B
:101CB00014C14FF4A0730DA9CDE90E24CDE916424D
:101CC00028462246384D1893CDE910370D94ADF8CB
:101CD00064408DF8664004F0BAFA344B2B601B6800
:101CE00098472B68324DDB689847324B2846C5E948
:101CF0000034C5E90274C5E90A47C5E90C4403F09C
:101D0000E7FA3146284603F099FBDFF8ECE02A4871
:101D10004FF4E133C0E900E30C23C0E90534C0E926
:101D200002440461C46105F023FD2448244B036090
:101D300004F0F2FEFEF7BCFCFEF7B9FC05F03AFE3B
:101D400022463946304605F059FF1E4B22461860A0
:101D500031460A2005F052FF1B4B224618603146DF
:101D6000404605F04BFF194B224618603946404665
:101D700005F044FF164B174A18602146164805F037
:101D800045FE164B164A18602146164805F03EFEE1
:101D9000154B164A18602146154805F037FE154BBD
:101DA000186005F019FEFEE75434002014000020EE
:101DB0005836002000B00240AC3400204C350020E2
:101DC0000008065064340020603400205C34002099
:101DD00058340020846B0208C517000874340020B2
:101DE000606B0208BF060008703400203C6B0208DC
:101DF0005D1700086C3400200010014070477047E8
:101E00007FB5094B8DF817201B6802930DF117025F
:101E10000123009201930A460146044803F0F2FEB2
:101E200007B05DF804FB00BF10000020043600205E
:101E30007FB500238DF81730084B1B6802930A46C4
:101E400001230DF11701009101930146044803F0AD
:101E500069FF9DF8170007B05DF804FB1000002033
:101E6000043600201FB5084C24680092CDE90134E7
:101E70000A4601230146054803F054FF003818BF05
:101E8000012004B010BD00BF100000200436002067
:101E900003F0A8B910B5064C00222046042103F037
:101EA000FBFB20460122BDE81040042103F0F4BBF7
:101EB0000008024038B50B4D044601220A484FF491
:101EC000005103F0E9FB00220421284603F0E4FB63
:101ED0002046FFF731FC28460122BDE838400421A6
:101EE00003F0DABB00080240000C024038B50B4D8D
:101EF000044600220A484FF4005103F0CDFB0022B3
:101F00000421284603F0C8FB2046FFF715FC2846AD
:101F10000122BDE83840042103F0BEBB00080240A6
:101F2000000C0240F7B5144E144F05460C463046DF
:101F30000022042103F0B0FB00224FF40051384688
:101F400003F0AAFB2846FFF7F7FB0D4B0D481B6873
:101F5000224601A905F050F9384601224FF40051FC
:101F6000019C03F099FB30460122042103F094FB0D
:101F7000204603B0F0BD00BF00080240000C024044
:101F80000C000020F434002003F02CB90268034B4D
:101F90009A4201D103F014B9704700BF001000400D
:101FA0007047000082B00E4B00220092596C41F441
:101FB00080415964596C01F480410091009901926B
:101FC000196C41F0805119641B6C03F0805301932C
:101FD000019B0F216FF0010002B003F029B900BF8F
:101FE000003802400268094B9A4282B00BD10023AC
:101FF0000193074B1A6B42F480521A631B6B03F474
:1020000080530193019B02B0704700BF0030024033
:102010000038024007B50F4B02689A4216D10022E1
:10202000A3F5F0430192196B41F4000119631B6B96
:1020300003F40003019305215A20019B03F0F8F8F3
:102040005A2003B05DF804EB03F024B903B05DF847
:1020500004FB00BF00B002402DE9F043044689B004
:102060001422002103A822F05EFD2268244B9A422C
:1020700043D1244C244800250095236B43F00403EE
:102080002363236B03F004030093009B0195236BF0
:1020900043F001032363236B03F001030193019BCE
:1020A0004FF012094FF400734FF001080327042684
:1020B00003A9CDE90339CDE90587079603F002FAB4
:1020C0004FF480731148079603A9CDE90339CDE990
:1020D000058703F0F7F90295236C43F400032364AA
:1020E000236C03F400030293029B236A43F400036E
:1020F0002362236A23F40003236209B0BDE8F0835E
:10210000005C00400038024000080240000002402D
:10211000F0B599B004461422002107A822F003FD6F
:1021200030220DEB0200002122F0FDFC22685E4B04
:102130009A4240F0B78008230C9332231093042373
:1021400012930CA84FF40033159304F0B9FB08B1B7
:10215000FFF726FF554B5648002400945A6C42F076
:1021600080625A645A6C02F080620092009A019474
:102170001A6B42F020021A631A6B02F020020192DD
:10218000019A02941A6B42F001021A631A6B02F070
:1021900001020292029A03941A6B42F002021A633D
:1021A0001A6B02F002020392039A04941A6B42F033
:1021B00040021A631A6B02F040020492049A0594DA
:1021C0001A6B42F004021A631A6B02F004020592C1
:1021D000059A06941A6B42F008021A631B6B03F00F
:1021E0000803069302250E26069B0B964FF4806388
:1021F00007A9CDE90735CDE9094503F063F941F6B3
:1022000058032C480B9607A9CDE907350927CDE9D6
:10221000094503F057F9032327480B9707A9CDE990
:102220000735CDE9094503F04DF94FF470632248B5
:102230000B9607A9CDE90735CDE9094503F042F929
:102240004FF40C631D480B9607A9CDE90735CDE97E
:10225000094503F037F9C02319480B9607A9CDE9C2
:102260000735CDE9094503F02DF9082315480B96EC
:1022700007A9CDE90735CDE9094503F023F94FF466
:10228000A0530E480B9707A9CDE90735CDE90945BD
:1022900003F018F958202246052102F0C9FF582002
:1022A00002F0F8FF19B0F0BD0068014000380240AC
:1022B00000140240000002400004024000180240E6
:1022C00000080240000C02400268094B9A4282B0AA
:1022D0000BD100230193074B5A6B42F040025A6323
:1022E0005B6B03F040030193019B02B0704700BF9A
:1022F000000806500038024010B5044688B0142289
:10230000002103A822F00FFC2268144B9A4223D12B
:1023100003F56843002101915A6C114842F4801280
:102320005A645A6C02F480120192019A02911A6B5B
:1023300042F020021A631B6B03F020030293029BFE
:102340004FF4607202230321CDE903230523CDE975
:10235000061303A903F0B6F808B010BD0050014001
:102360000014024010B5044688B01422002103A8CE
:1023700022F0D9FB2268144B9A4223D103F59433FF
:10238000002101915A6C114842F010025A645A6CB3
:1023900002F010020192019A02911A6B42F00102BE
:1023A0001A631B6B03F001030293029B4FF4C0629C
:1023B00002230321CDE903230723CDE9061303A953
:1023C00003F080F808B010BD00100140000002408A
:1023D0002DE9F04186B0002303932B4B1C68002CA1
:1023E0004FD14FF00108C3F80080284B00949A6B3E
:1023F000274842EA08029A639B6B03EA08030093AA
:10240000022703260C25009B01A94FF63F03CDE9C7
:102410000137CDE9046503F055F81E48059501A97B
:10242000CDE90187CDE9034603F04CF848F23313B8
:102430001948059501A9CDE90137CDE9034603F017
:1024400041F84FF683731548059501A9CDE9013789
:10245000CDE9034603F036F84CF2037310480595B6
:1024600001A9CDE90137CDE9034603F02BF860233C
:102470000C48059501A9CDE90137CDE9034603F0E4
:1024800021F806B0BDE8F081A036002000380240F7
:1024900000140240000802400018024000100240F0
:1024A000000C02400004024070B588B00023029383
:1024B000204B1A6C42F010021A641B6C03F01003DC
:1024C0000293054601A903A8029B04F0DBF9069BD1
:1024D0004BBB04F0B7F9184E184B336040F2E733AA
:1024E000F360174BB0FBF3F3013B736030460023FE
:1024F0003361B360B36105F04FF8044680B93046EC
:1025000004F020FF044658B9362002F0C3FE0F2D18
:102510000DD822462946362002F08AFE094B1D605E
:10252000204608B070BD04F08DF94000D3E70124C7
:10253000F6E700BF00380240A4360020001000403B
:1025400040420F007C0000207047FEE7FEE7FEE7F8
:10255000FEE77047014804F033BF00BFA4360020F7
:10256000014803F017BE00BF5C350020014802F0AF
:10257000DBBE00BF583600200120704708B522F0AE
:10258000D3FB162303604FF0FF3008BD08B522F0DF
:10259000CBFB16230360FEE770B50D4614460E46CE
:1025A000731B9C4201DC204670BDAFF3008006F82F
:1025B000010BF5E770B50D4614460E46731B9C42A1
:1025C00001DC204670BD16F8010BAFF30080F5E783
:1025D0004FF0FF3070474FF400534B6000207047BE
:1025E00001207047002070470A4A116808B5034669
:1025F00009B9094911601068694603448B4206D93C
:1026000022F092FB0C2303604FF0FF3008BD1360F3
:10261000FCE700BFEC36002010530120704710B5D6
:102620000421044621F0FAF8204610BD08B503291C
:1026300013D8DFE801F002060A0E01F025FB00685E
:1026400008BD01F021FB4068FAE701F01DFB80683E
:10265000F6E701F019FBC068F2E70020F0E70000A0
:1026600000487047BC6B02081520704713B5002462
:1026700051B1036801948DF8034001AA9C680DF1E3
:102680000303A04702B010BD0846FBE7C0897047AE
:10269000008A7047C088704780887047807A00F051
:1026A0007F007047807AC0097047002070470000A3
:1026B0009FED010A704700BF00000000704710B591
:1026C0000821044621F0AAF8204610BD7047704743
:1026D00000F598730868496803C3704770477047EE
:1026E0004160704770477047064BC0F84C3100237B
:1026F000C0F8503100F5A273C0F84801C0F840316D
:10270000704700BF8128000801230372704770479B
:10271000704710B4C26841685410034601EB620070
:10272000D20748BF0A599B685DF8044B48BFD3588D
:1027300018470346406830B19A681AB9D86800F063
:10274000010070470120704710B50C21044621F0AC
:1027500065F8204610BD10B51021044621F05EF842
:10276000204610BD10B54FF4AE71044621F056F866
:10277000204610BD10B54021044621F04FF82046F8
:1027800010BD10B50EF01EF80368BDE81040DB6BFD
:1027900018470000054B1B7801462BB1406818B163
:1027A00003680C315B6E1847704700BFCF450120AE
:1027B000037A70B50546BBB940680368DB69984782
:1027C00004463CB96868036805F10C011B6EBDE85E
:1027D00070401847E1886B8FC91A236820465B6BED
:1027E00009B29847A469ECE770BD10B50446D0F86B
:1027F000400158B10368DB68984738B1D4F840010C
:1028000003689B6898470023C4F8403110BD70B539
:10281000044690F8390094F838300130C0B298423C
:1028200084F8390005D901232372002384F8393054
:1028300070BDB4F93A20002110F0E6F9C30706D5BF
:1028400000284FF6FF73C8BF0123184400B2638A03
:10285000C01AA08760680368DB69984705462DB9F0
:1028600060680368BDE870405B691847E988A38F1A
:1028700019442B6828465B6B09B29847AD69EEE7AF
:102880002DE9F14FD0E9556A0746B06803681B6A25
:102890009847DB2805D8444B444AA321444821F0FB
:1028A0003BFF706803681B6A98470F2803D8414BA9
:1028B0003E4AA421F2E7F06803681B6A98470B2898
:1028C00003D83D4B394AA521E8E70DF07BFFDFF83F
:1028D000F09004300DF0B4FFD9F8000010B1036897
:1028E000DB689847D9F8000010B103681B68984767
:1028F000DFF8D080D8F8000010B103685B69984712
:10290000D7F83C0110B103685B689847D8F800001D
:1029100010B103681B689847D7F83C0110B10368F1
:102920009B689847F068036800215B6A98474FF0FE
:10293000000B224BC0F804B0044680F808B00360D6
:10294000B068036859465B6A9847054602F060F92B
:102950007068036859465B6A98472946064602F044
:1029600037F9331DC7F83C61C9F80040C8F800507A
:10297000CAF800302B68C6F808A02846DB68EE636A
:102980009847336830461B6898472146284610F020
:1029900035F9236820461B69984723685B69204600
:1029A00001B0BDE8F04F18478D5E02081B5F0208BA
:1029B000F35F02083A600208DD600208E46D020875
:1029C0001846012014460120044B1B6893F8582038
:1029D0000AB1D86C00B99868704700BFD045012093
:1029E000F8B5174604460E460DF0F8FF124B1C6072
:1029F000124B2360124B0025C4E95135114BC4E939
:102A000053551868036801219B68C4E94F55C4E910
:102A100055769847284601F0EBF8FFF7D5FF18F0F8
:102A2000FAFDFFF7D1FF18F071FEFFF7CDFF18F0A8
:102A300079FE2046F8BD00BF24460120906D0208B3
:102A4000786D0208D0450120064BC0F84C310023B8
:102A5000C0F8503100F5A273C0F84801C0F8403109
:102A6000704700BF81280008064BC0F84C31002396
:102A7000C0F8503100F5A273C0F84801C0F84031E9
:102A8000704700BFB92D0008064BC0F84C31002339
:102A9000C0F8503100F5A273C0F84801C0F84031C9
:102AA000704700BF7D2C0008064BC0F84C31002356
:102AB000C0F8503100F5A273C0F84801C0F84031A9
:102AC000704700BF452B000803685B6A1847000089
:102AD0002DE9F04105460026164B4660067245F882
:102AE0000C3B044628460F460AF020FD124B84F8A2
:102AF00038701B7884F83960A68723B901232372C4
:102B00002046BDE8F0810D4AE3680D4FB2F9001090
:102B10009B6B26612846B7F900809847E3684146D9
:102B2000DB6B2846984728460AF07BFC3B88638786
:102B3000E6E700BF086E0208CF450120C44501202A
:102B4000C64501202DE9F047D0E9556A0746B0682F
:102B500003681B6A9847B0F5E67F05D2404B414AAF
:102B6000A321414821F0D8FD706803681B6A98478B
:102B70000F2803D83D4B3B4AA421F2E7F0680368D5
:102B80001B6A98473F2803D8394B364AA521E8E706
:102B90000DF018FEDFF8DC9004300DF051FED9F88E
:102BA000000010B10368DB689847D9F8000010B145
:102BB00003681B689847DFF8C080D8F8000010B1A0
:102BC00003685B699847D7F83C0110B103685B68FC
:102BD0009847D8F8000010B103681B689847D7F8E9
:102BE0003C0110B103689B689847F0680021FFF72B
:102BF0006BFF14210446FFF76BFFB06803680021E8
:102C00005B6A9847054601F0B1F8706803680021D7
:102C10005B6A98472946064601F086F8331DC7F8D7
:102C20003C61C9F80040C8F80050CAF800302B6871
:102C3000C6F808A02846DB68EE639847336830463C
:102C40001B689847214628460FF0D8FF2368204686
:102C50001B699847236820465B69BDE8F047184721
:102C60008D5E020880610208F35F02083A60020884
:102C7000DD60020818460120144601202DE9F047C6
:102C8000D0E9556A0746B06803681B6A984741F661
:102C90000F73984205D8414B414AA321414821F086
:102CA0003BFD706803681B6A98470F2803D83E4BAA
:102CB0003B4AA421F2E7F06803681B6A98473F2863
:102CC00003D83A4B364AA521E8E70DF07BFDDFF843
:102CD000E09004300DF0B4FDD9F8000010B10368A5
:102CE000DB689847D9F8000010B103681B68984763
:102CF000DFF8C080D8F8000010B103685B6998471E
:102D0000D7F83C0110B103685B689847D8F8000019
:102D100010B103681B689847D7F83C0110B10368ED
:102D20009B689847F0680021FFF7CEFE1421044607
:102D3000FFF7CEFEB068036800215B6A984705463E
:102D400001F0A0FD7068036800215B6A984729467E
:102D5000064601F03FF8331DC7F83C61C9F8004052
:102D6000C8F80050CAF800302B68C6F808A02846FA
:102D7000DB68EE639847336830461B689847214606
:102D800028460FF03BFF236820461B6998472368BD
:102D900020465B69BDE8F047184700BF8D5E02081A
:102DA00074620208F35F02083A600208DD600208FC
:102DB00018460120144601202DE9F047D0E9556A54
:102DC0000746B06803681B6A9847DB2805D8414B63
:102DD000414AA321414821F09FFC706803681B6AA7
:102DE00098470F2803D83E4B3B4AA421F2E7F068EE
:102DF00003681B6A98473F2803D83A4B364AA521F7
:102E0000E8E70DF0DFFCDFF8E09004300DF018FD8E
:102E1000D9F8000010B10368DB689847D9F80000C2
:102E200010B103681B689847DFF8C080D8F800002D
:102E300010B103685B699847D7F83C0110B103688B
:102E40005B689847D8F8000010B103681B68984782
:102E5000D7F83C0110B103689B689847F0680021DF
:102E6000FFF732FE14210446FFF732FEB068036814
:102E700000215B6A9847054601F0CAFE7068036846
:102E800000215B6A98472946064601F0A1FE331DE2
:102E9000C7F83C61C9F80040C8F80050CAF80030D3
:102EA0002B68C6F808A02846DB68EE6398473368AD
:102EB00030461B689847214628460FF09FFE23683E
:102EC00020461B699847236820465B69BDE8F047A8
:102ED000184700BF8D5E020868630208F35F0208AE
:102EE0003A600208DD6002081846012014460120FD
:102EF0007047704770477047704730B5036885B0BA
:102F00006D460181D3F8843001460446284698472F
:102F100095E807003C3484E8070005B030BD30B5C3
:102F2000036885B06D464181D3F88430014604467C
:102F30002846984795E807003C3484E8070005B028
:102F400030BD0022028042808280C280704780F8BB
:102F50003610704770B5036804461B6B15469847DA
:102F60002368294620465B6EBDE870401847002064
:102F70007047806C7047704770477047704730B437
:102F8000C26844685510034604EB6200D20748BF8C
:102F900062599B6830BC48BFD35818470346406805
:102FA00030B19A681AB9D86800F001007047012062
:102FB000704710B54C21044620F030FC204610BD6F
:102FC00010B51021044620F029FC204610BD10B594
:102FD0004FF4E671044620F021FC204610BD08B5F0
:102FE000FEF760FA08BD0000036870B55E6B124B17
:102FF0001B6804468DB22BB9104B114A6C21114845
:1030000021F08AFB1049828D0988914203D80F4B29
:103010000B4A6D21F3E713F812200D4B1B6853F890
:10302000220003681B6B9847291A3346204609B2D1
:10303000BDE87040184700BF2846012054640208CC
:1030400096640208D16402082C4601201865020823
:103050003046012038B500F1E003994204460D46A0
:1030600003D10DF0AFFBFFF70FFD04F58A74A54205
:1030700005D10DF0A7FBBDE83840FFF7F5BC38BD22
:1030800000224FF0FF31C0E900218260704770B527
:10309000036804461B6B154698472368294620465B
:1030A0005B6BBDE8704018470022C0E90122C0E90F
:1030B0000322C0E90522C0E907224FF4807282840E
:1030C000014A0260704700BF2C6E020810B526222C
:1030D0000446002121F027FD2046FFF7E5FF0A4BBB
:1030E00023600A4BA3624FF6FF73A3854FF47F0260
:1030F0000023C4E90C3223874FF0FF32C4E91023C8
:10310000E363204610BD00BF2C760208686D0208FC
:1031100010B526220446002121F005FD2046FFF7C8
:10312000C3FF0023A36284F82C30012384F82430E9
:10313000044B23604FF6FF7384F83230E385238617
:10314000204610BD247702082DE9F04F82468BB04F
:10315000554600240FF0A6FB7C4ACAF83C4045F8CF
:10316000402B262632462146284621F0DCFC284604
:10317000FFF79AFF764ACAF840200AF16C084FF030
:10318000FF374FF6FF7221468AF86670ADF82020AF
:10319000CAF868403246404621F0C5FC4046FFF779
:1031A00083FF6C4ACAF86C20BDF82020AAF8922050
:1031B00008A90AF198098AF8947040460AF0F5FEC9
:1031C0000AF1E00B4846FFF781FF5846FFF7A0FFE2
:1031D0000AF58A7318460AF5A4770193FFF798FF5A
:1031E0003846FFF773FF5C4ACAF848215B4ACAF8C1
:1031F0009041CAE96F2A5A4A2146CAE971242846F1
:103200002246FFF744FF2846F021FEF795F82846AE
:103210004FF4A071FEF792F80AF104064FF07F42D6
:10322000CAF868202946304606F004FD22462146A9
:103230004046FFF72CFF072208A94046ADF82020A2
:103240000AF0B3FE4146304606F0F4FC02ADDFF86A
:1032500018817F2248468921FFF719FF49462846F1
:10326000CAF8C880AAF8CC400AF060FA95E80700CE
:103270000AF1D40C8CE807003A4B089308A9484699
:10328000ADF824400AF0FAFC4946304606F0D2FC7C
:103290005846FF222821FFF7FAFE0D22ADF81C2028
:1032A0000E22ADF8202007A908AA58460AF5DE79B3
:1032B0000AF042FD59463046CAF8089106F0BAFCB9
:1032C0000198BE222821FFF7E2FE0822ADF81C205B
:1032D00009220198ADF8202007A908AA0AF02CFDC0
:1032E0000199CAF83C91304606F0A4FC38465D22AC
:1032F0008921FFF7CCFEDAF84821CAF878813946EF
:103300002846D2F88420AAF87C41904795E8070027
:103310000AF5C27C8CE807000AF5CA72CAF8902147
:103320003846AAF894410AF089FC0E4B0893012212
:1033300008A93846ADF824200AF0A0FC30463946EA
:1033400006F078FC50460BB0BDE8F08F3C6F0208E9
:10335000BC76020898770208946E0208246F02086F
:1033600055300008686D02080000FFFF7047704785
:10337000704730B4C26844685510034604EB6200DD
:10338000D20748BF62599B6830BC48BFD358184722
:103390000346406830B19A681AB9D86800F0010055
:1033A00070470120704710B51021044620F036FA0E
:1033B000204610BD10B54FF40671044620F02EFAD9
:1033C000204610BD38B500F1C403994204460D46AD
:1033D00003D10DF0F7F9FFF747FB04F59674A5420A
:1033E00005D10DF0EFF9BDE83840FFF75DBB38BD02
:1033F00038B5262204460D46002121F094FB2046D4
:10340000FFF752FE064B23602B88E384FF23204600
:1034100084F8283029460AF0C8FD204638BD00BF90
:10342000987702082DE9F04F04468DB026464FF0FC
:1034300000080FF037FA944AC4F83C8046F8402B55
:1034400041462622304621F06EFB3046FFF72CFE27
:103450008E49216404F16C0BFF2104F1980A4FF6A8
:10346000FF7584F86610C4F868800AA9584604F10C
:10347000C409ADF82850FFF7BBFF0AA95046ADF8C4
:103480002850FFF7B5FF4846FFF742FE04F1F80366
:1034900018460193FFF73CFE04F596731846029315
:1034A000FFF736FE04F5B07304F5CA7718460393A8
:1034B000FFF72EFE41462622384621F034FB3846DF
:1034C000FFF7F2FD4FF47F02C4F8C821704AC4F838
:1034D0009421704A704BC4F8BC31C4E982246F4A0D
:1034E000A4F8C0514FF0FF33C4E97538C4E984280B
:1034F000414642463046C4F8C481A4F8CC81C4F8A1
:10350000D081C4F8DC81FFF7C2FD3046F021FDF721
:1035100013FF30464FF4A071251DFDF70FFF4FF04C
:103520007F42A2663146284606F084FB4246414669
:103530005846FFF7ACFD4FF002020AA95846ADF815
:1035400028200AF032FD5946284606F073FB504603
:10355000D7221421FFF79BFD10220AA95046ADF88F
:1035600028200AF022FD5146284606F063FB424619
:103570004846C221FFF78BFD0A220AA904F502760C
:10358000ADF82420ADF8282048460A4609A90AF0DB
:10359000D3FBC4F8EC604946284606F04BFB019883
:1035A0000122A921FFF773FD0B22ADF824200AA9FF
:1035B0000C220198ADF828200A4609A90AF0BCFBA4
:1035C0000199284606F036FB029801228521FFF773
:1035D0005EFD0F220AA90298ADF82420ADF828203C
:1035E0000A4609A90AF0A8FB0299C4F854612846C2
:1035F00006F020FB039842466C21FFF748FD142299
:10360000ADF824200AA913220398ADF828200A4611
:1036100009A90AF091FB0399284606F00BFB3846EE
:103620000D221D21FFF733FDD4F89421A4F8C881A1
:103630004FF0FF3304AEC4F8C43139463046D2F8F7
:103640008420904796E8070004F5E87C04F5F073C1
:103650008CE80700C4F8DC313846A4F8E0810AF0B1
:10366000EDFA0D4B0A934FF002020AA93846ADF865
:103670002C200AF003FB2846394606F0DBFA2046E8
:103680000DB0BDE8F08F00BF886F0208BC7602085D
:10369000946E0208706F0208686D0208C533000856
:1036A000406A7047806A704770478A880B8810B5F7
:1036B000D20A4C88C1699BB251F8220043EA044304
:1036C000184410BD10B50446BAB1107B68B1537BE5
:1036D000D27A1B0203F4E0631A43236A03EB8203EA
:1036E0001A888A4202D193F9020010BD05D8013828
:1036F00080B204330028F3D1F7E70020F5E710B5D6
:103700002C21044620F08AF8204610BD30B58BB03D
:103710000446BDF860500895BDF85C5007959DF8CB
:10372000505006959DF84C5005959DF848500495CD
:103730009DF8445003959DF8405002959DF83C50EB
:103740000195BDF8385000950EF090FE064B2360B1
:10375000159BE361169B2362199B63621A9BA3620C
:1037600020460BB030BD00BFBC6F020870477047E9
:10377000704730B4C26844685510034604EB6200D9
:10378000D20748BF62599B6830BC48BFD35818471E
:103790000346406830B19A681AB9D86800F0010051
:1037A00070470120704710B51021044620F036F80C
:1037B000204610BD10B5DC21044620F02FF820462D
:1037C00010BD9830884208B505D10CF0FBFFBDE86C
:1037D0000840FFF759B908BD2DE9F34704462646CE
:1037E00000250FF05FF8494BE56346F8403B4FF08A
:1037F000260A52462946304621F095F93046FFF711
:1038000053FC04F16C07424B23644FF0FF084FF662
:10381000FF795246294684F86680A5663846ADF899
:10382000049021F080F93846FFF73EFC394BE366FF
:10383000BDF80430A4F8923084F8948001A904F112
:10384000980838460AF0B1FB52462946404621F016
:103850006AF94046FFF728FC2F4BC4F898302F4BED
:10386000A4F8C690C4E933342D4BA4F8C8904FF0A7
:10387000010A2A46C4E9353584F8CA9029463046FB
:10388000C4F8C05084F8C45084F8BCA0FFF7FFFB14
:103890003046F021FDF750FD30464FF4A071FDF7A2
:1038A0004DFD04F104094FF07F43A36631464846BD
:1038B00006F0C0F92A4629463846FFF7E8FB01A979
:1038C0003846ADF804A00AF070FB3946484606F0C9
:1038D000B1F9404692224621FFF7D9FB1123ADF8FA
:1038E000003001AA122369464046ADF804300AF0C0
:1038F00023FA04F1CC034846C4F8C030414606F030
:1039000099F9204602B0BDE8F08700BF3C7002087C
:10391000BC7602089877020824770208247002080F
:10392000C33700087047000030B5164D2C6814F0FE
:1039300001048FB0BFF35B8F21D128461FF070FFC9
:10394000E8B13F230993104B0893104B07930123D1
:10395000CDE9054304930423CDE902430A230C492E
:1039600000930922CDE90B440A480A940194FFF719
:10397000CDFE094820F0EEFE28461FF05DFF054809
:103980000FB030BDF0360020AC850208BC850208BF
:10399000C4840208F436002025390008704700006E
:1039A00030B5164D2C6814F001048FB0BFF35B8F57
:1039B00020D128461FF034FFE0B13F230993104B7C
:1039C0000893104B104911480A940122CDE906438F
:1039D0000423CDE9033214230093CDE90B44CDE950
:1039E00001440594FFF792FE094820F0B3FE2846F3
:1039F0001FF022FF05480FB030BD00BF2037002068
:103A0000B0850208C08502084485020824370020DA
:103A10009D3900087047000030B5164D2C6814F031
:103A200001048FB0BFF35B8F21D128461FF0F8FE51
:103A3000E8B13F230993104B0893104B10491148EC
:103A40000A94CDE9064301220423CDE90332192368
:103A500000930522CDE90B44CDE901440594FFF71D
:103A600055FE094820F076FE28461FF0E5FE054881
:103A70000FB030BD50370020B4850208C48502085D
:103A80005485020854370020153A0008704700009A
:103A900030B5164D2C6814F001048FB0BFF35B8F66
:103AA00020D128461FF0BCFEE0B13F230993104B04
:103AB0000893104B104911480A940122CDE906439E
:103AC0000423CDE9033228230093CDE90B44CDE94B
:103AD00001440594FFF71AFE094820F03BFE2846F2
:103AE0001FF0AAFE05480FB030BD00BF8037002090
:103AF000B8850208C88502089C8502088437002022
:103B00008D3A000800207047002070470EB403B5BE
:103B100003AB002153F8042B01930DF025FF02B0F5
:103B20005DF804EB03B070470CB407B504AB53F871
:103B3000042B01930DF018FF03B05DF804EB02B005
:103B400070470000436C10B5044673B3038F2BB964
:103B5000184B194AC521194820F0DEFDC38E00EB31
:103B600043035B8C0BB30FF002FE238F012B03D8B2
:103B7000134B144ACB21EEE7E28E531C9BB2092B68
:103B8000194688BFA3F10A0104EB410140F63F103A
:103B9000498C814209D10A2B04EB420228BF002341
:103BA00004EB4303508C588451842046BDE81040F8
:103BB0000FF0E0BC566502085F6502080A6602085D
:103BC00054660208626602080FF09BBC10B586B00E
:103BD00002AC84E806001A460AAB05930193099BE0
:103BE00000932146089B0CF06FF906B010BD000051
:103BF00038B518BB124B13481C681349B4B122687E
:103C000022440260626822440A60A26814440F4B96
:103C100000221A8000F038F8054600F033F80C4B0B
:103C20001C600C4B1D600C4B188007E00B4B0360B5
:103C30000B4B0B600B4B1C68002CE8D138BD00BF50
:103C4000BC370020B4370020B0370020B837002040
:103C500028460120304601202C460120D885020844
:103C6000CC850208F4850208044B1B6853F8210038
:103C7000034B1B6803EB4000704700BFB0370020C8
:103C8000B43700200320704700487047C037002039
:103C900010B5FFF7FDFE064C2060FFF745FE6060A3
:103CA000FFF7BAFEA060FFF77BFEE06010BD00BF2B
:103CB000C037002010B5002404600C6014601C6044
:103CC00010BD704710B54FF4AE7104461FF0A6FD4D
:103CD000204610BD10B50446D0F8580100F0A8FFEA
:103CE0002046BDE810400CF009BE000010B50446A7
:103CF000FEF776FE014B2360204610BD707002086F
:103D0000704704387047704710B5102104461FF003
:103D100085FD204610BDA0F10400F5E78368C0686A
:103D2000596800F02FB8000000228260024A026049
:103D300018324260C1607047C470020870470000CA
:103D400010B5034B03600446FFF717F9204610BD7A
:103D5000EC70020810B50446FFF7F2FF20464FF45E
:103D6000E6711FF05BFD204610BD000010B5044653
:103D7000FFF7EAF9014B2360204610BDEC70020802
:103D8000FFF7FCB838B5044600F5CA750B4628465F
:103D9000054A142110F0EAFBC4F8905104F5A47010
:103DA000BDE838400DF00ABF346702087047043898
:103DB00070477047D0E90232D2F810235A6070473A
:103DC00010B5102104461FF029FD204610BDA0F1BA
:103DD0000400F5E700228260024A02601832426065
:103DE000C16070472071020870477047704730B457
:103DF000C26844685510034604EB6200D20748BF0E
:103E000062599B6830BC48BFD35818470346406886
:103E100030B19A681AB9D86800F0010070470120E3
:103E2000704781857047808D704700F58053002270
:103E300000F5EF5083F8152E10300DF0BFBE10B511
:103E4000442104461FF0EAFC204610BD10B51021A5
:103E500004461FF0E3FC204610BD000038B5094BB6
:103E60000360044641F66855B5F5367F05D06359C1
:103E700060191B689847443DF6E72046FFF777FA3C
:103E8000204638BDD471020810B50446FFF7E6FF9E
:103E9000204641F610711FF0C1FC204610BD08B548
:103EA00090F828300BB1FDF7FDFA08BD08B5054BB9
:103EB0001B682BB9044B054A0548942120F02CFCC3
:103EC00008BD00BF6046012037670208736702081B
:103ED000A66702080268D0ED0E0AD26EB0EE401A54
:103EE00090ED0D0A10472DE9F34100F5EF5510351F
:103EF0000446032304F5805701A9284604F5F1562A
:103F0000ADF804304FF001080AF04FF81436D7220C
:103F100028465A21FFF7BBF82946304687F8158E08
:103F200005F088FE04F5ED5428460DF047FE0C34EC
:103F300004230DEB03012046ADF804300AF035F8F8
:103F4000D72220465A21FFF7A2F8304687F8D18DB4
:103F5000214605F06FFE204602B0BDE8F0410DF0AD
:103F60002DBE00002DE9F04F2A4B87B000250493A9
:103F700003F10213059300F5F1531433074600F5DE
:103F80000C7BAA4600932BB2019307EB0A06D94695
:103F900000244FF000082048CDF80C8003A902F05F
:103FA000D3FDA0BB0399D6F81C2306AB01F0030197
:103FB000C9F8001003EB410106F5477831F8081CF9
:103FC000126EADF80810404602A99047019A21B23E
:103FD0004046FFF75CF80122009886F841234146ED
:103FE00005F028FE1434A4B2C82C09F1040906F126
:103FF0004406CED10AF52A7A40F648521535924544
:10400000ADB20BF1280BBED107B0BDE8F08FC9F8F7
:104010000080E7E7030004004C3500200023C0E9DE
:10402000BF33012380F8043300F5F15014300DF054
:10403000C5BD00002DE9F0412DED028B00F5805645
:1040400000F5EF5584B01035B6F9B07DB6F9B28DF4
:10405000B6F8D23DADF80830044602A9284609F06A
:10406000A4FF3946424628460127FFF710F82846A4
:1040700086F8157E0DF0A2FD9FED287AD4ED867AA4
:1040800067EE877A9FED267A67EE877A9FED257A2D
:1040900087EE878A0025B0EE480A1FF04BFCF1EE50
:1040A000007A20EE270A84ED880AB0EE480A1FF055
:1040B000FDFBF9EE007A1C4B029320EE270A03F178
:1040C00002131A4884ED890A84F8287201A903931F
:1040D000019502F039FD10B9019D05F0030504AB0F
:1040E00003EB450504F5ED540C3435F8083CADF808
:1040F00000306946204609F058FFD7225A21204651
:10410000FEF7C5FF012386F8D13D20460DF056FD90
:1041100004B0BDEC028BBDE8F08100BF0000884216
:10412000C3F5484000003443030004004C35002030
:10413000B2F90400B2F9083030B5B1F904400344D3
:10414000A34215DDB1F908302344834210DDB2F9F2
:104150000640B2F90A30B1F906502344AB4207DDFC
:10416000B1F90A002844A042D4BF0020012030BD8C
:104170000020FCE770B5044600F5F076D0F8103367
:10418000084A04F5CA751421304610F0EFF92846A4
:104190000DF014FDC4F8DC612846BDE870400DF058
:1041A0000DBD00BF346702082DE9F84F4FF42A7B9C
:1041B0001F464FF044080BFB01F308FB0233034496
:1041C0000446B3F842030D461646FFF76FFE0A9BFE
:1041D0000BFB07FA08FB03AAF318E91908FB03F322
:1041E0000BFB013381461C444FF0000B0A9B3D44FE
:1041F000042D1E440ED8092E0CD894F841334BB12F
:10420000B4F84203FFF752FE4845544402D10BF183
:10421000010BEBE75846BDE8F88F00002DE9F04FA1
:104220004FF42A734B431546442202FB05330344E3
:1042300091B00646B3F842030C46FFF737FEDFF8AD
:104240006CC10590BCE80F0008AF0FC79CE80F00D9
:1042500087E80F000DF120090DF1400AD9E9008728
:104260002A464346214600973046FFF79DFF7B4292
:1042700000F1010B00932A46C8F1000321463046A5
:10428000FFF792FF0BEB0003022B039340F38380B5
:104290004FF42A7B44210BFB04F201FB05F0831849
:1042A00033444FF0000C83F841C300F54770D3F856
:1042B0001C3310445B6930449847EB1B04933A4B22
:1042C0006FF0430003FB08FC784308EB040A00EBA3
:1042D0000C02A4EB0804EB1B442107920BFB04F235
:1042E00001FB0322CCF100031B1A3D4406930BFB98
:1042F0000AF301FB053306EB030B012306EB02096E
:104300000293BAF1040F11D8092D0FD8BBF842035C
:10431000FFF7CCFD059B984208D100218BF8411393
:10432000DBF81C130BF5477049698847042C12D839
:10433000049B092B0FD8B9F84203FFF7B7FD059B83
:10434000984208D1002189F84113D9F81C1309F5C6
:10435000477049698847029B01330293049BDB1B2A
:104360000493079B9944069B9B44DDE902239342F7
:10437000C244A4EB08043D44C3DCD6F810330399CF
:104380000A2202FB01333046C6F8103311B0BDE8F3
:10439000F04FFFF7EFBE09F10809D1457FF45EAF9A
:1043A00011B0BDE8F08F00BF58FDFFFF285802088C
:1043B0002DE9F74300F580590746B9F9383ECD1A83
:1043C000B9F93A3ED41A14F1140F4BDB682C4BDCCC
:1043D000152394FBF3F415F1130F47DBC72D47DCCE
:1043E000142395FBF3F54FF42A73634344266E437D
:1043F00003F54778B0441E443E44B9F8162ED6F86B
:104400001C33ADF80420B84401A940461B6E984700
:10441000B9F83A3EB9F8381E04EB4402C2EBC202C6
:104420001A4405EB850301EB830112B209B2404641
:10443000FEF72DFE012386F84133D6F81C334046A3
:104440005B699847002307F5EF5089F8153E103057
:104450000DF0B4FB2A462146384603B0BDE8F043D0
:10446000FFF7DCBE0024B6E70424B4E70025BAE772
:104470000925B8E790F828322DE9F0470446002BCB
:1044800045D000F58052B2F9F45DB2F9F68DB2F97B
:10449000F81DB2F93C3E002D02DD681898420DDB94
:1044A0005B1AD4ED887AAB42A8BF2B46F1EE677A4F
:1044B00023EAE373C4ED887AA2F8F43D04F5EF51E2
:1044C0000027103141F6902AE6194FF0000996F8BE
:1044D000413373B106F547722046FFF729FE40B11C
:1044E000424629462046FFF763FF002384F828321E
:1044F0000DE009F10109B9F10A0F06F14406E6D110
:1045000007F52A775745DFD1B8F1000FE8DDBDE8A0
:10451000F08700002DE9F04F364B85B00546029339
:1045200003F1021303934FF42A672E467C194FF0D0
:104530000008D4F81C33B4F89A201B6EADF80420A0
:1045400004F5477901A94846984794F89930B4F999
:104550007A20B4F9781084F841334846FEF797FD85
:10456000D4F81C3348465B6908F101089847B8F154
:104570000A0F04F14404DCD1B7F52A77D5D105F54B
:104580000B7805F515751C48019701A902F0DCFAB6
:1045900068BB019C04F0030404AA02EB4401D6F8B2
:1045A0001C33B6F9CAB531F8081CB6F9C8A51B6E9C
:1045B000ADF8001006F54779694648469847ABF1D3
:1045C000150212B251464846FEF761FD012386F8F6
:1045D0004133D6F81C3348465B69984748F8044F86
:1045E000A84506F14406CED105B0BDE8F08F002401
:1045F000D2E700BF030004004C35002090F80433DC
:104600002DE9F74304460BB3D0F80833D0F80C2358
:1046100001339342C0F80833C0F2FD80D0E9BF52A5
:104620000023042AC0F8083300F3B5806D004FF46E
:104630002A77D4F8FC320133B5EB430F01DA042DAD
:1046400075DDD4F800330133C4F8003394F8283210
:10465000D3B304F5EF55103504F5805728460DF017
:10466000ADFAB7F9F66DB7F9F48DD4ED886A07EEB7
:10467000906AB8EEE77AD4ED897A37EE277A07EEBA
:10468000908AF8EEE77ABDEEC77A77EEA67A17EE53
:10469000103AFDEEE77A1AB217EE903A284619B2B0
:1046A000FEF7F5FC28460DF089FA2046FFF7E2FEFA
:1046B000B8F1F00F03D8B6B2B6F5A07F04D9002345
:1046C00084F8283287F8153E94F8F8322BB100238D
:1046D00084F8F8322046FFF706FC504E002530687B
:1046E0008DF8075003F026FB002800F094804FF06F
:1046F000FF3330682A460DF1070103F0EBFA9DF80D
:1047000007304C2B53D1D4ED867A9FED457A77EE66
:10471000C77AC4ED867A94ED867ADFED427AB4EEFC
:10472000E77AF1EE10FA65DDC4ED867A69E007FB01
:1047300005464FF0000896F841331BB3D6F81C33FA
:1047400006F547795B6948469847B6F92223B6F9DA
:104750002013A52A0CDD94F805334BB9012384F806
:1047600005330CF02FF803B0BDE8F043FEF79CB919
:104770000132484612B2FEF78AFCD6F81C3348468E
:104780005B69984708F10108B8F10A0F06F1440681
:10479000D1D101354DE70135C0E9BF536D00042D7E
:1047A0007FF754AF80F80433FFF764FE4EE7522BD7
:1047B00006D1D4ED867A9FED1A7A77EE877AA8E74C
:1047C000422BA8D12046FFF735FC6420FCF7A4FF5C
:1047D0002046FFF723FCD4F81433D4F81823013310
:1047E0009342C4F8143396DB2046FFF793FEC4F8D7
:1047F000145390E7DFED0C7AB4EEE77AF1EE10FA9D
:1048000092D404F5F355284694ED860AFFF762FB2F
:1048100028460DF0D3F903B0BDE8F08360340020E2
:10482000CDCC4C3E00003443000034C337B54FF4C8
:10483000807200254FF6FF738284104A0260C0E93F
:104840000155C0E90355C0E90555C0E90755C384C2
:1048500080F8283001A90446ADF8043009F0A5FB22
:10486000074B23602046C4E90B55C4E90D55C4E944
:104870000F5584F82950658503B030BD987702083C
:1048800048710208F7B50446FEF7CCFD3B4B2360A8
:10489000002500230522C4F81832C4F81C22C4F8ED
:1048A0002032C4F82432A4F828523549C82204F52D
:1048B0000C7020F066FA0223C4E9C33504F5ED5606
:1048C0000323C4E9BF5584F8F852A4F80453C4F88C
:1048D0000853C4F81453C4F8183304F547750C365C
:1048E00005F52A7728464435FFF7A0FFBD42F9D1E8
:1048F000AE42F5D13046FFF799FF04F5EF5004F5CD
:1049000080551030FFF792FF4FF480730026A5F812
:10491000583E1C4BC5F8343EC5F8386E4FF6FF7351
:10492000C5F83C6EC5F8406EC5F8446EC5F8486ED3
:10493000C5F84C6EC5F8506EC5F8546EC5F85C6E7F
:1049400001A904F5F350ADF8043008F0C9F80E4B96
:104950000E4AC5F8F03EC5F8003F0D4BC5F8F44EC1
:104960002046C5F8F82EC5F8FC6EC5F8044FC5F80A
:10497000083FC5F80C6F03B0F0BD00BFD47102084A
:1049800048580208B8720208BC710208354A00088B
:104990002B3E000890F829302DE9F0410446002B09
:1049A00041D0438D828D01339BB2934243853AD3EC
:1049B0009B1A9DB2828E038E866BD21A12B2C38D61
:1049C00000212846B047638EE28EE76BD21A064676
:1049D000E38D12B200212846B847638EC218238E99
:1049E000F11812B209B22046FCF7AFFCA38DE18D9D
:1049F000628D0B449A4216D3002384F829306385D4
:104A00000BF0E0FE214604300BF001FF206C50B1AA
:104A10000368DB68984730B1206C036821469B68C7
:104A2000BDE8F0411847BDE8F08108B5FFF7B2FFD7
:104A300008BD0000B1F90630B22B70B5B1F90460C1
:104A40000C4605DD0BF0BEFEBDE87040FEF72CB84D
:104A500015331DB291F829302BB90BF0B3FE214666
:104A600004300BF07DFF0023638563682363962386
:104A7000E385074BA686C4E90E33012384F8293069
:104A8000E36AE58613B92046FFF784FF70BD00BFD7
:104A90006F2C01082DE9F0432DED028B044683B005
:104AA000FEF766FC632304F5F35604F58057C4F85B
:104AB00010332046FFF75EFB4FF0000801A9304697
:104AC000ADF8048008F0AEF9B7F8863EADF80030D6
:104AD00068460FF005FEB7F8863EADF8043005468F
:104AE00001A80FF031FE05EBD5714910C0F1FF02AE
:104AF000C1F1780112B209B23046FEF7C8FAB7F830
:104B0000863EADF8003068460FF0EAFD00EBD0704D
:104B100040F34F0007EE900AB7F8863EADF8043038
:104B200001A8B8EEE78A0FF00FFE07EE900AF8EE44
:104B3000E77A3046C6ED127A86ED118A08F01CF845
:104B40001A4BB365304608F017F804F104099FEDDD
:104B5000180A3046FFF7BEF904F5F15531464846CC
:104B600005F068F814352046FFF7FCF91E222846A8
:104B70001421FEF78CFA2846C721FCF7DDFB2846F6
:104B800040F26D11FCF7DAFB2946484687F8588E4B
:104B900005F050F828460DF011F8012384F8F8329A
:104BA00003B0BDEC028BBDE8F08300BF0080BB45C5
:104BB00000000000704704387047704710B510219E
:104BC00004461EF02BFE204610BDA0F10400F5E7C0
:104BD00000228260024A026018324260C16070475F
:104BE000087202087047000010B5034B03600446CA
:104BF000FEF7BDFD204610BD3072020810B5044618
:104C0000FFF7F2FF2046DC211EF008FE204610BD13
:104C100010B50446FEF7E0FD014B2360204610BDB1
:104C200030720208FEF7A4BD0022C0E900227047DE
:104C30007047F02070474FF4A07070472920FDF7AF
:104C400055B92820FDF752B908B5FDF723F9CA2058
:104C5000FDF74CF9C320FDF72DF90820FDF72AF9DF
:104C60005020FDF727F9CF20FDF740F90020FDF790
:104C700021F9C120FDF71EF93020FDF71BF9ED20C9
:104C8000FDF734F96420FDF715F90320FDF712F95B
:104C90001220FDF70FF98120FDF70CF9E820FDF750
:104CA00025F98520FDF706F90020FDF703F97820A6
:104CB000FDF700F9CB20FDF719F93920FDF7FAF8D7
:104CC0002C20FDF7F7F80020FDF7F4F83420FDF76D
:104CD000F1F80220FDF7EEF8F720FDF707F92020A4
:104CE000FDF7E8F8EA20FDF701F90020FDF7E2F80A
:104CF0000020FDF7DFF8B120FDF7F8F80020FDF700
:104D0000D9F81B20FDF7D6F8B620FDF7EFF80A20FA
:104D1000FDF7D0F8A220FDF7CDF8C020FDF7E6F8AA
:104D20001020FDF7C7F8C120FDF7E0F81020FDF7CF
:104D3000C1F8C520FDF7DAF84520FDF7BBF81520CE
:104D4000FDF7B8F8C720FDF7D1F89020FDF7B2F8CD
:104D50003620FDF7CBF8C820FDF7ACF8F220FDF7C0
:104D6000C5F80020FDF7A6F8B020FDF7BFF8C22077
:104D7000FDF7A0F8B620FDF7B9F80A20FDF79AF87C
:104D8000A720FDF797F82720FDF794F80420FDF7FA
:104D900091F82A20FDF7AAF80020FDF78BF80020F3
:104DA000FDF788F80020FDF785F8EF20FDF782F881
:104DB0002B20FDF79BF80020FDF77CF80020FDF785
:104DC00079F80120FDF776F83F20FDF773F8F6201B
:104DD000FDF78CF80120FDF76DF80020FDF76AF86B
:104DE0000620FDF767F82C20FDF780F8C820FDF7B6
:104DF000CBF82620FDF77AF80120FDF75BF8E020DC
:104E0000FDF774F80F20FDF755F82920FDF752F84B
:104E10002420FDF74FF80C20FDF74CF80E20FDF78D
:104E200049F80920FDF746F84E20FDF743F87820B1
:104E3000FDF740F83C20FDF73DF80920FDF73AF872
:104E40001320FDF737F80520FDF734F81720FDF79C
:104E500031F81120FDF72EF80020FDF72BF8E120A6
:104E6000FDF744F80020FDF725F81620FDF722F89D
:104E70001B20FDF71FF80420FDF71CF81120FDF79B
:104E800019F80720FDF716F83120FDF713F8332045
:104E9000FDF710F84220FDF70DF80520FDF70AF8A0
:104EA0000C20FDF707F80A20FDF704F82820FDF78D
:104EB00001F82F20FCF7FEFF0F20FCF7FBFF11206D
:104EC000FDF714F8C820FDF75FF82920FDF70EF86C
:104ED000BDE808402C20FDF709B808B5FCF7DAFF5B
:104EE0000321D320FDF71EF880B208BD10B5C4B26F
:104EF000022203212046FCF783FF0A20FCF7C8FFAB
:104F0000204600220321FCF77BFFBDE81040022071
:104F1000FCF7BEBF38B50446E4B2FCF76FFF0021D2
:104F20002046FCF785FF012105462046FCF780FF5F
:104F300040EA052080B238BD10B5C4B240212046F9
:104F4000FCF776FF030607D54C212046FCF770FFDF
:104F5000003818BF012010BD01224B212046FCF76C
:104F60004FFF204600224B21FCF74AFF0020F2E7CA
:104F700073B50423C4B20E461546D7210DEB0302C8
:104F80002046FCF76FFF019B1BBA1A0DC3F30B23DE
:104F9000328020462B8001224B21FCF731FF00227A
:104FA0004B212046FCF72CFF02B070BD10B50A4A19
:104FB0001378984204460DD0517888420AD00BB13C
:104FC00041B90123D454FCF719FF2046BDE8104035
:104FD000FFF78CBF10BD00BFD037002010B5C4B2A2
:104FE00009212046FCF724FF40F00102D2B22046FE
:104FF0000921BDE81040FCF703BF10B5C4B2092178
:105000002046FCF715FF092100F0FE022046BDE80E
:105010001040FCF7F5BE38B5C4B20D4620460A2153
:10502000FCF706FF40EA0502D2B220460A21BDE89D
:105030003840FCF7E5BE10B50446FCF7E0FE20461C
:105040001F21FFF7E8FF2046BDE81040FFF7C6BF6D
:1050500038B5C4B20D4620460A21FCF7E9FE20EA25
:105060000502D2B220460A21BDE83840FCF7C8BE8E
:1050700010B50446FFF7C1FF20461F21BDE81040D0
:10508000FFF7E6BF10B5C0B20C460B21FCF7D0FE0F
:10509000204010BD1F21FFF7F5BF0A46C0B20B210B
:1050A000FCF7AEBE1F21FFF7F8BF38B5C4B20D46FE
:1050B00020461721FCF7BCFE20EA0502D2B22046AA
:1050C0001721BDE83840FCF79BBE70B5C4B2064658
:1050D00004212046FCF7ACFE042100F0FB0205464B
:1050E0002046FCF78DFE3046F021FFF7DEFF05F08D
:1050F000F80220460421FCF783FE492220212046A5
:10510000FCF77EFE0220FCF7C3FE2046012221218F
:10511000FCF776FE20469A224121FCF771FE2046DC
:1051200001224A21FCF76CFE204601224B21FCF7AC
:1051300067FE204600224B21FCF762FE204601223A
:105140005621FCF75DFE204601225821FCF758FE4F
:10515000204601224021FCF753FE2046FF220B216E
:10516000FCF74EFEBDE870400220FCF791BE000047
:10517000054BD3F8882042F47002C3F888204FF022
:1051800000629A60704700BF00ED00E008B50B4B6D
:105190001A6842F400721A601A6842F480621A6057
:1051A0001A6842F480721A60032000F02FF8002081
:1051B000FDF77AF9FCF7F6FE002008BD003C02403E
:1051C000034A044B11681B780B441360704700BFFF
:1051D000D437002078000020014B1868704700BFCA
:1051E000D437002038B50446FFF7F6FF631C1CBF18
:1051F000054B1B78054618BFE418FFF7EDFF431B6E
:10520000A342FAD338BD00BF780000200749CA681E
:1052100022F4E0620302120403F4E063120C13436D
:1052200043F0BF6343F40033CB60704700ED00E010
:10523000164B30B5DC68C4F30224C4F10703251D06
:10524000042B28BF0423062D4FF0FF358CBF033CF1
:10525000002405FA03F321EA0303A54022EA05022C
:10526000A340002843EA0203ACBF00F16040084AB3
:105270004FEA0313B8BF00F00F00DBB2AABF00F57E
:105280006140135480F8003330BD00BF00ED00E0F2
:1052900014ED00E0002807DB044A4109012300F077
:1052A0001F00834042F82130704700BF00E100E05A
:1052B00010B5044650B1437903F0FF0213B90271EF
:1052C000FCF790FE01236371002010BD0120FCE774
:1052D00010B5044620B390F8393003F0FF021BB933
:1052E00080F83820FCF796FE022384F839302368D2
:1052F00061681A6822F440320A431A605A6BA16846
:1053000022F007020A435A631A6CE1686FF30D0238
:105310000A431A6400200123E06384F8393010BD89
:105320000120FCE770477047036870B55E681D6830
:10533000F207044614D5E90512D51A6822F48072E2
:105340001A60C26B42F00102C26301229A60042318
:1053500080F83930002380F83830436903B198472A
:10536000B20616D5AB0414D523681A6822F400528D
:105370001A6020229A60E36B43F00203E363042384
:1053800084F83930002384F8383063690BB1204643
:105390009847300716D5290514D523681A6822F4D2
:1053A00000621A6008229A60E36B43F00403E3632F
:1053B000042384F83930002384F8383063690BB152
:1053C0002046984772070BD56B0509D523681A68E4
:1053D00022F480621A6004229A602046FFF7A2FF3E
:1053E000B00714D5A90512D523681A6822F40072F3
:1053F0001A6002229A60E36BE363012384F8393078
:10540000002384F8383023690BB120469847F20610
:1054100013D5EB0411D523681A6822F480521A6060
:1054200010229A60E36BE363012384F83930002390
:1054300084F838302046FFF776FF70BDF0B590F85D
:105440003820012A03464FF002002BD0012283F8B6
:10545000382083F8390003EB0112D2E90740556A7E
:10546000174F44EA0040093C012C9CBF05F07F42E5
:1054700010434FEA01161A6888BF40EA056091B9E7
:10548000516A394001435162012C9969916103D8F5
:10549000596A21F07F4191620122002083F839206E
:1054A00083F83800F0BDD16939400143D1619919C1
:1054B000012C896911619CBF25F07F451562EBE7DE
:1054C000F0FFFC002DE9F74FDFF8BC916C4A002398
:1054D0000D6801249C4004EA0506AC4340F0B78007
:1054E0004D68032705F003044FEA430807FA08FC58
:1054F000671E012F6FEA0C0C34D8876807EA0C0E80
:10550000CF6807FA08F747EA0E078760476827EA77
:10551000060EC5F300179F4047EA0E074760C768AD
:1055200007EA0C0E8F6807FA08F747EA0E07022C05
:10553000C76019D14FEAD30A00EB8A0A03F0070BC0
:10554000DAF820704FEA8B0B4FF00F0E0EFA0BFEBD
:1055500027EA0E0E0F6907FA0BF747EA0E07CAF89B
:10556000207001E0032CDAD1076804FA08F407EA96
:105570000C073C4315F4403F046068D000240194BC
:10558000D9F8444044F48044C9F84440D9F8444030
:1055900023F0030707F1804704F4804407F59C37A4
:1055A000019403F0030C019CD7F808E04FEA8C0C3F
:1055B0000F2404FA0CF42EEA040E324CA0424DD013
:1055C00004F58064A0424BD004F58064A04249D029
:1055D00004F58064A04247D004F58064A04245D021
:1055E00004F58064A04243D004F58064A04241D019
:1055F00004F58064A0423FD004F58064A0423DD011
:1056000004F58064A04214BF0A24092404FA0CF4AF
:1056100044EA0E04BC609468F74315F4801F0CBF85
:105620003C4034439460D46815F4001F0CBF3C40E8
:105630003443D460546815F4003F0CBF3C403443FD
:1056400054601468ED0354BF3C403443146001338C
:10565000102B7FF43DAF03B0BDE8F08F0024D5E7F9
:105660000124D3E70224D1E70324CFE70424CDE7C4
:105670000524CBE70624C9E70724C7E70824C5E7C4
:10568000003C01400000024000380240036919421A
:1056900014BF0120002070470AB1816170470904DE
:1056A000FBE7436901EA030221EA030141EA0241FF
:1056B0008161704701684B6913F480634FF0000209
:1056C00010D06FF480634B612023026380F83D307B
:1056D00080F83E20036C80F83C2043F00403036410
:1056E00001207047184670472DE9F84606460F46D8
:1056F00091461D464FEA114A3368BAF1010F0CBFBB
:105700005C699C6927EA0404A4B2B4FA84F46409CD
:10571000A14501D0002025E06A1CEED0FFF75CFD1A
:10572000089BC01AA84201D8002DE5D13368BAF110
:10573000010F0CBF5B699B6927EA03039BB2B3FAB5
:1057400083F35B099945D7D100232022336386F880
:105750003D2086F83E30326C86F83C3042F0200224
:1057600032640120BDE8F8862DE9F04104460F4679
:10577000164698462568686927EA000080B2C0B1DD
:105780006B695A0517D52B6843F400732B606FF4CF
:1057900080636B6120220023236384F83D2084F81A
:1057A0003E30236C43F004032364002384F83C3030
:1057B0000120BDE8F081731CDDD0FFF70DFDA0EBEB
:1057C0000800B04201D8002ED4D123685A6927EAD4
:1057D000020292B2002ACDD000232022236384F853
:1057E0003D2084F83E30236C1343DDE770B504465A
:1057F0000D46164623685B691B0601D500201EE096
:105800002046FFF757FFC8B96A1CF3D0FFF7E4FC46
:10581000801BA84201D8002DECD123685B6913F0EE
:105820008003E7D12022236384F83D2084F83E30B2
:10583000226C84F83C3042F020022264012070BDCA
:105840002DE9F0431546026885B0DDE90C789946EC
:10585000136843F4807313600E463B46CDF8008016
:1058600000224FF001110446FFF73EFF236838B1D4
:105870001B68DB0502D54FF400732364032620E088
:1058800006F0FE061E611A4943463A462046FFF7D7
:105890006BFFA8B9236803905A6903929B6903932D
:1058A000424639462046039BFFF7A0FF064660B1FB
:1058B000236C042B01BF2268136843F40073136048
:1058C0000126304605B0BDE8F083B9F1010F236829
:1058D00002D1EDB21D61F4E72A0A1A613946424647
:1058E0002046FFF783FF0028E2D12368F1E700BFDD
:1058F000020001002DE9FF479A46036815461A6821
:1059000042F480621A601A68DDE90C7842F4807211
:105910001A600E463B46CDF8008000224FF0011180
:105920000446FFF7E1FE236838B11B68DB0544BF7E
:105930004FF400732364032021E05FFA86F906F038
:10594000FE061E612B4943463A462046FFF70CFFF0
:10595000A0B9236803905A6903929B690393424656
:1059600039462046039BFFF741FF58B1236C042BB7
:1059700001BF2268136843F400731360012004B070
:10598000BDE8F087BAF1010F23681AD1EDB24246A3
:105990001D6139462046FFF729FF02460028E5D160
:1059A00021680B6843F480730B602046CDF80080BB
:1059B0003B464FF00111FFF797FE226860B1136874
:1059C000B4E72A0A1A61394642462046FFF70EFF1D
:1059D0000028CBD12368D9E749F0010313610549B9
:1059E00043463A462046FFF7BFFE003818BF012065
:1059F000C5E700BF0200010070B504460D4616461B
:105A000023685B695B0701D500201EE02046FFF795
:105A100051FEC8B96A1CF3D0FFF7DEFB801BA84219
:105A200001D8002DECD123685B6913F00403E7D1A2
:105A30002022236384F83D2084F83E30226C84F8D1
:105A40003C3042F020022264012070BD70B5044653
:105A50000D46164621684B6913F0400301D0002023
:105A600011E04A69D2060FD56FF010024A61202278
:105A7000236384F83D2084F83E30236C23640023A4
:105A800084F83C30012070BDFFF7A6FB801BA842C4
:105A900001D8002DDED123685B6913F04003D9D112
:105AA0002022236384F83D2084F83E30236C134386
:105AB000E4E7000070B5044608B9012070BD90F815
:105AC0003D3003F0FF021BB980F83C20FCF7C4FA1C
:105AD000242384F83D3023681A6822F001021A60FA
