:020000040800F2
:10000000000003205D060008492500084B25000874
:100010004D2500084F25000851250008000000006C
:10002000000000000000000000000000117F000838
:100030005325000800000000A17F00081B7800087D
:10004000AD060008AD060008AD060008AD060008C4
:10005000AD060008AD060008AD060008AD060008B4
:10006000AD060008AD060008AD060008AD060008A4
:10007000AD060008AD060008AD060008AD06000894
:10008000AD060008AD060008AD060008AD06000884
:10009000AD060008AD060008AD060008AD06000874
:1000A000AD060008AD060008AD060008AD06000864
:1000B000AD060008AD060008AD060008AD06000854
:1000C000AD060008AD060008AD060008AD06000844
:1000D000AD060008AD060008AD060008AD06000834
:1000E000AD060008AD060008AD060008AD06000824
:1000F000AD060008AD060008AD060008AD06000814
:10010000AD060008AD060008AD060008AD06000803
:10011000AD060008AD06000855250008AD0600082C
:10012000AD060008AD060008AD060008AD060008E3
:10013000AD060008AD060008AD060008AD060008D3
:10014000AD060008AD060008AD060008AD060008C3
:10015000AD060008AD060008AD060008AD060008B3
:10016000AD060008AD060008AD060008AD060008A3
:10017000AD060008AD060008AD060008000000004E
:10018000AD060008AD060008AD060008AD06000883
:10019000AD060008AD060008AD060008AD06000873
:0C01A00061250008AD0600086D25000870
:1001B00010B5054C237833B9044B13B10448AFF3A1
:1001C00000800123237010BD800300200000000088
:1001D0009056020808B5034B1BB103490348AFF31F
:1001E000008008BD00000000840300209056020833
:1001F00001F0FF01102A2BDB10F0070F08D010F8D8
:10020000013B013A8B422DD010F0070F42B3F6D1DB
:10021000F0B441EA012141EA014122F007047FF0F4
:1002200000070023F0E80256083C85EA010586EA4B
:10023000010685FA47F5A3FA87F586FA47F6A5FA87
:1002400087F68EB9EED1F0BC01F0FF0102F0070293
:1002500032B110F8013B013A83EA010313B1F8D13E
:100260000020704701387047002D06BF354603381F
:10027000073815F0010F07D1013015F4807F02BF58
:10028000013015F4C03F0130F0BC0138704700BFA9
:100290007BB972B90029BEBF00204FF0004106E0D3
:1002A00008BF00281CBF6FF000414FF0FF3000F086
:1002B000D3B9ADF1080C6DE904CE002909DB002BA0
:1002C0001ADB00F04DF8DDF804E0DDE9022304B0AC
:1002D0007047404261EB4101002B1BDB00F040F80E
:1002E000DDF804E0DDE9022304B0404261EB4101A6
:1002F000524263EB43037047524263EB430300F007
:100300002FF8DDF804E0DDE9022304B0404261EBA0
:1003100041017047524263EB430300F021F8DDF8DE
:1003200004E0DDE9022304B0524263EB430370476B
:1003300053B94AB9002908BF00281CBF4FF0FF314C
:100340004FF0FF3000F088B9ADF1080C6DE904CE34
:1003500000F006F8DDF804E0DDE9022304B07047A0
:100360002DE9F047089D8E4604468846002B4AD169
:100370008A42174662D9B2FA82F64EB1C6F120031C
:1003800001FA06F820FA03F3B74043EA0808B4403C
:100390004FEA174E1FFA87FCB8FBFEF1230C0EFB49
:1003A000118843EA084301FB0CF29A4209D9FB1871
:1003B00001F1FF3080F0EA809A4240F2E780023992
:1003C0003B449A1AA3B2B2FBFEF00EFB102243EAA2
:1003D000024300FB0CFC9C4509D9FB1800F1FF32DD
:1003E00080F0D6809C4540F2D3803B44023840EAFE
:1003F0000140A3EB0C0300211DB1F3400022C5E92D
:100400000032BDE8F0878B4205D90DB1C5E9000186
:1004100000210846F5E7B3FA83F1002946D1734578
:1004200002D3824200F20581841A6EEB030201209E
:100430009046002DE5D0C5E90048E2E7002A00F02B
:100440009080B2FA82F6002E40F0A4808A1A030C43
:100450004FEA174E80B2BCB20121B2FBFEFC0EFB8C
:100460001C2243EA024304FB0CF29A4207D9FB1810
:100470000CF1FF3802D29A4200F2E080C4469B1A87
:10048000B3FBFEF20EFB123340EA034302FB04F41B
:100490009C4207D9FB1802F1FF3002D29C4200F2C5
:1004A000CA8002461B1B42EA0C40A5E7C1F12006A8
:1004B0008B4022FA06F71F430EFA01F420FA06F3E6
:1004C0002EFA06FE4FEA1749234300FA01F81FFAF5
:1004D00087FCBEFBF9F01C0C09FB10EE44EA0E444D
:1004E00000FB0CFEA64502FA01F209D93C1900F105
:1004F000FF3A80F09C80A64540F2998002383C4447
:10050000A4EB0E041FFA83FEB4FBF9F309FB1344BA
:100510004EEA044403FB0CFCA44508D93C1903F142
:10052000FF3E80F08280A4457FD9023B3C4443EAF1
:100530000040A4EB0C04A0FB02EC64457346E146CA
:1005400062D35FD05DB1B8EB030264EB090404FA37
:1005500006F622FA01F31E43CC40C5E900640021EF
:100560004FE7B1FBF2FC010C41EA0E4180B240EAD8
:1005700001423B4638463C46B846BE462026B1FBC3
:10058000F7F1A2EB080241EA0C4166E7014618E7E1
:1005900010462CE7C6F120022EFA02F3B740B14014
:1005A00020FA02F24FEA174E0A43B3FBFEF8BCB240
:1005B0000EFB1833110C41EA034108FB04F9B0406B
:1005C00089454FEA104380B23ED9791808F1FF3CC3
:1005D00001D289451FD8A1EB0901B1FBFEF909FB46
:1005E00004F80EFB191192B242EA0142424529D2A7
:1005F000BA1809F1FF31C4D24245C2D2A9F10201B1
:100600003A44BEE7F0459DD2BEEB02036CEB070C0B
:100610000138E14696E7A7EB09094944A8F1020C25
:10062000B1FBFEF909FB04F8DBE773467FE75046B0
:1006300066E70846FDE63B44023A33E7ACF1020CBC
:100640003B441CE749469CE7A1EB0901C446B1FBCA
:10065000FEF909FB04F8C4E7704700BFDFF834D0A7
:10066000002103E00C4B5B58435004310B480C4B0A
:1006700042189A42F6D30B4A02E0002342F8043BA8
:10068000094B9A42F9D304F0B3FC24F093FA01F039
:1006900043F970470000032014570D0800000020A4
:1006A000640100208003002000530120FEE7704712
:1006B00008B500F0BDFDBDE8084000F03FBD00F00A
:1006C000B9BD704710B50421044622F0E7FF20466B
:1006D00010BD000038B50C4B0C4C18800C4B822020
:1006E00019806368984740F6110398420AD1094D72
:1006F00023682C60822098472B688220DB6898470B
:10070000002038BD0120FCE7A60300204C0000209B
:10071000A4030020A80300204FF4A071F020FFF7ED
:10072000D9BF0000F7B5394D2B6804461B698220FC
:100730009847208000284ED02B680DF106025B6997
:1007400001A982209847324B1B78002B4BD0BDF873
:10075000062040F674639A423FD9ADF80630BDF8E2
:1007600006209B1A9BB20A2B42D90B22B3FBF2F351
:10077000284A1288934201D9013A93B2BDF8042065
:10078000254840F6B8318A4234D8C2F571620E323B
:10079000016892B20F25B2FBF5F2204D2D88AA42D6
:1007A00084BF05F1FF35AAB28A4215468EB22AD916
:1007B000921B91B21A4E3768BB42BAB28CBF9A1ADA
:1007C000D21A92B211440529C4BF05603360036890
:1007D00063803368A38003B0F0BDB32A9CBFB4220A
:1007E000ADF80620BBE7BDF80630A3F5B473B9E752
:1007F0000023C3E7C2F56D62083292B20E2A016887
:10080000C8D800252A46891A89B2D3E7A803002050
:1008100058340020A4030020A0030020A6030020D9
:100820009C03002037B568460D461446FFF77AFF53
:10083000BDF8000030B1BDF802302B60BDF80430C7
:100840002360012003B030BD032821D8DFE800F089
:10085000020B12190F4B1A68B2FA82F252090421E4
:100860000D4804F059BE0B4B5A68B2FA82F2520995
:100870000821F5E7074B9A68B2FA82F25209102173
:10088000EEE7044BDA68B2FA82F252092021E7E778
:10089000704700BFAC03002000100240032821D89D
:1008A000DFE800F0020B12190F4B1A68003A18BF6C
:1008B000012204210D4804F02FBE0B4B5A68003A68
:1008C00018BF01220821F5E7074B9A68003A18BFC4
:1008D00001221021EEE7044BDA68003A18BF01222A
:1008E0002021E7E7704700BFAC0300200010024062
:1008F00003280DD8DFE800F00206080A04210548A5
:1009000004F00FBE0821FAE71021F8E72021F6E7EE
:10091000704700BF0010024008B5032811D8DFE877
:1009200000F0020A0C0E0421074804F0EFFD431EFC
:100930005842584108BD0821F6E71021F4E720216C
:10094000F2E70020F3E700BF0010024070B5084D49
:1009500000240126E0B2FFF7DFFF18B12B68012B5E
:1009600018BF2E600134052C05F10405F2D170BDCD
:10097000AC030020012380F8781080F879307047AC
:100980007047002070470000034B4164003918BFD6
:1009900001211970704700BFBF450120704700203A
:1009A0007047836B0BB10846184770474FF6FF70CE
:1009B0007047406803689B691847704770477047E5
:1009C0007047704710B5044600F04AFD236803499C
:1009D000D3F890302046BDE810401847000000D002
:1009E00008B503680446D3F8843098472368204646
:1009F000DB6F984700F0ECF8236820465B6F984760
:100A0000292001F073FA00F0E3F8236820465B6FB9
:100A10009847F8E710B504460AF0B4F82368204672
:100A2000D3F8BC30BDE81040184700F0FDBC00F022
:100A300001BD00F033BD00F0D3BC00F043BD00F0B9
:100A40004BBD00F0D7BC09F0CBBA10B584210446E9
:100A500022F024FE204610BD10B590F8341090F816
:100A600078400C4B8C421A7809D03AB90A4A0B49A3
:100A70001488088810800C8001221A7010BD002A8A
:100A8000FCD0054A05491488088810800C80002293
:100A9000F3E700BFB8450120B4450120B645012069
:100AA00070B50D46194635B9094B0A4A0A4840F255
:100AB000FF2123F071FDC0E90F52084B003A18BF27
:100AC00001221A700368BDE87040D3F890301847CF
:100AD000E8570208205802086E580208BE45012057
:100AE00008B5094B1B888B4203D8084B1B889342DF
:100AF00005D9074B074A0848A32123F04DFD074BB2
:100B00001980074B1A8008BDB4450120B645012065
:100B1000B3580208165902086E580208BA45012057
:100B2000BC450120034690F87A0018B15868036864
:100B30001B68184770470000012108B500220846CD
:100B400006F0F4FE0A4B186028B90A4B0A4A28211D
:100B50000A4823F021FD00220421012006F08EFF27
:100B6000074B186018B9074B034A2C21F0E708BD62
:100B7000C003002059590208A2590208D15902089D
:100B8000BC030020215A0208024B4FF0FF311868C5
:100B900006F016BFC0030020014B186806F03CBFEA
:100BA000C0030020024B0021186806F009BF00BFF7
:100BB000C0030020FFF7F0BF03480449006800238A
:100BC0001A4606F096BF00BFBC03002004000020B8
:100BD00013B5084C00231A4601A9206806F0BAFF95
:100BE00020684FF0FF33002201A906F0B3FF02B0E6
:100BF00010BD00BFBC03002003685B6C18470120D8
:100C0000704703689B6A1847FEE740F2EF30704771
:100C1000054B0360054B4FF08062C3F88820BFF39B
:100C20004F8FBFF36F8F7047E867020800E100E065
:100C300010B504464FF45A61FFF7EAFF204622F050
:100C40002DFD204610BD000082B0002301930E4B05
:100C50001A6B42F400021A631A6B02F4000201924A
:100C6000019A1A6942F400021A611A6922F4000218
:100C70001A61064B064A1A61064A5A61064B4FF042
:100C800080629A6002B07047003802404836002007
:100C9000E90E0008090C000800E100E008B50A2888
:100CA00009D8DFE800F006100E0808080810101038
:100CB0001000022008BD054B054A0648902123F08C
:100CC0006BFC0020F6E70120F4E700BF635A02083E
:100CD0007E5A0208C95A020838B50C46887FFFF7C9
:100CE000DDFFA58AE28A164B2169586342EA054274
:100CF0005A64628BD963521B1A642568082D0ED181
:100D00009A611A615862207F0E4A42EA0062DA61F3
:100D1000E2681A620C4A5961D9601A6038BD002233
:100D2000D8611A61E1680A0A480902F4784200F4BD
:100D3000FC600243C1F3C4010A439A63034AECE72F
:100D400000B002400900010001230200012303005A
:100D500008B50B280BD8DFE800F00612100A0A0AC3
:100D60000A0808080808022008BD0520FCE7054B12
:100D7000054A06486F2123F00FFC0020F4E701200C
:100D8000F2E700BF635A0208175B0208C95A02085B
:100D90002DE9F04191F81D800C464046FFF7D8FF41
:100DA000A77F05463846FFF7D3FF06463846FFF7CC
:100DB00075FFA18A628B444B521A1A649A61228B86
:100DC000521A1A61E28A586342EA01425A6421695E
:100DD0006268D963DA602068802828D0227F0FD823
:100DE000202867D0402865D004281AD0364B45EA21
:100DF000026545F40035B845DD6161D0334A44E011
:100E0000B0F5807F04D0B0F5007FEFD1304800E02E
:100E1000304840EA0262DA61E2681A625E62596151
:100E200032E045EA026242F40032DA61F6E7A06895
:100E3000021DDA62227F45EA026545F40035DD6174
:100E40005E625961017841B1012921D0224B234AC8
:100E500023484FF48D7123F09FFBDA69418822F417
:100E60007F42013922F0100242EA0122DA610121B7
:100E7000154BDA6942F02002DA61DA699206FCD495
:100E800010229A600029B9D0164A1A60BDE8F08194
:100E9000B2F1FF01DA69408822F47F4200F1FF30AD
:100EA00022F0100242EA002242F0100218BF012193
:100EB000DA61DDE745EA0262034B42F40032B4E74F
:100EC00042F20132E1E700BF00B00240012301001D
:100ED000090002000A000200615B02087B5B020855
:100EE000C95A020801230200024B1B6858680368B4
:100EF0005B691847C045012070B5044625460A4B7A
:100F00000C30002660602672667245F8203B602235
:100F1000294609F08DFF04F55A63EE6024359D42A1
:100F2000FBD1204670BD00BFE8670208034B1A687A
:100F3000D207FCD423229A60704700BF00B0024061
:100F40007047000030B50F4C2568ED07FCD4232511
:100F50000904A56041F001010225FF2B656361646E
:100F6000E0630AD00849656241EA0363E361074B25
:100F700022626061E060236030BDE561039BA36392
:100F8000034BF8E700B00240090001000100020035
:100F90000100030030B50E4C2568ED07FCD4232575
:100FA0001204A56042F001020225FF2B6563626412
:100FB000E063E16008D01B0643F00213E361054BD8
:100FC00065626061236030BD034BE3610123F9E793
:100FD00000B0024001000200020002FF30B50B4CDD
:100FE0002568ED07FCD4232512041B06A56043F4F5
:100FF0000033022542F0010265636264E063E16050
:10100000E361034B65626061236030BD00B0024064
:1010100001000200012070474020704700EB811062
:101020000830704700EB811008307047012070478E
:1010300041F60470704741F6047303FB0100083069
:10104000704741F6047303FB01000830704701202C
:1010500070471020704700EB01100830704700EB1C
:10106000011008307047084601F010BD10B5034B61
:101070000360044608F009FD204610BDA068020880
:1010800010B50446FFF7F2FF2046482122F006FB88
:10109000204610BD10B5034B0360044608F0F5FC74
:1010A000204610BD6C68020810B50446FFF7F2FF39
:1010B000204641F60C7122F0F1FA204610BD0000E6
:1010C00010B5034B0360044608F0DFFC204610BD5A
:1010D0003868020810B50446FFF7F2FF20461821D1
:1010E00022F0DCFA204610BD10B5094B036004461F
:1010F00000F5F9501830FFF7B9FF04F12C00FFF7A5
:10110000C9FF04F11400FFF7DBFF204610BD00BF4C
:10111000D468020808B50248FFF7E6FF08BD00BF23
:101120009C12002010B50446FFF7DEFF204642F275
:10113000E00122F0B3FA204610BD00002DE9F34192
:1011400001F08EFA054601F08FFA0024014623468D
:1011500028462246009413F0EFF9274B274A1A60DD
:10116000204602F02FFD264D264B274A27489A603D
:1011700013F04AF92B68BFF35B8FDB0736D42846A0
:1011800022F08EFA90B3224C224F234B236007F1BA
:101190004C0604F1140004F12C086060C4F80880C7
:1011A000E760266108F072FC1C4B6361404608F062
:1011B0006DFC1B4BE362384608F068FC04F5805375
:1011C000184AC3F8382F04F5FC5003F06DFC224692
:1011D00004F5FC51304602F073FD304601F056FC38
:1011E000114823F0F7F9284622F066FA0F4802B0BA
:1011F000BDE8F041FFF7E6BB24460120480400208B
:1012000098120020680400204C04002008000020F0
:101210009C120020D4310020D468020838680208EB
:101220006C680208A068020815110008C4030020B9
:10123000704700000148FFF7D3BB00BFC403002084
:1012400070B5264E264C274D274B23603046FFF7BE
:1012500053FE284618F076FA244810F0A5FC244BDB
:101260002448DC6000224FF48071C3E91212224945
:101270001A86C3E91A12214983F85820C3E91E01CE
:101280001F49C3F880101F491F480B60F021C3E9B4
:101290000422C3E90622C3E90822C3E90A22C3E9FA
:1012A0000E22C3E91022C3E91422C3E917225A66A9
:1012B00083F870205A67C3E90165018013480180F3
:1012C00013484FF4A07101801248018012490A703E
:1012D000012283F83420114A1A6070BDF404002002
:1012E0009412002068040020D85702084C04002003
:1012F000C4030020000001010100000100045000AF
:101300001A001400C0450120B4450120BA4501204F
:10131000B6450120BC450120B8450120FC66020805
:101320000148FFF775BC00BFF4040020002070479F
:1013300081807047C180704701817047418170474B
:101340007047704770477047704710B4C48803688F
:10135000121B84885B6D091B12B25DF8044B09B245
:1013600018474FF6FF7383814FF0FF330362136812
:10137000C36110607047002070478B888380012014
:101380007047704780F82610704790F82600704725
:1013900010B50022B1F90840B1F90A10028042806C
:1013A0008480C18010BD0022028042808280C28081
:1013B00070470177704780ED080A704780F8241065
:1013C000704780F8251070470120704798307047AB
:1013D0008C3070478430704770477047704700000A
:1013E000034B902283F85A2383F85823704700BF99
:1013F00000E100E0094A0A49D3680A48C3F30A0336
:10140000013B9BB20B801169C1F30A0101390180D4
:101410001364536B43F0010353637047006801404A
:101420007E3300207C330020014BD3F8AC007047A2
:1014300000680140024B0122C3F8AC105A627047A9
:101440000068014010B52C21044622F027F92046FF
:1014500010BD10B5BC21044622F020F9204610BD75
:1014600070B5044608F011FE23689D6E0FF0EAF88F
:1014700001462046A8472368054AD3F88C502046E9
:10148000AC460023BDE87040A2F51631604700BFAE
:1014900000B004D008F0E0BD08F0EABD08F0A6BD39
:1014A00008F015BF90F8252012B103685B69184752
:1014B000704790F825201AB190F8242002B11860E6
:1014C00070470000034B4FF080629A604FF08072CB
:1014D0009A60704700E100E0084B4FF08062C3F86B
:1014E0008820BFF34F8FBFF36F8F4FF08072C3F828
:1014F0008820BFF34F8FBFF36F8F704700E100E08C
:1015000070B50023124E8380124B0360336893F84A
:10151000582005460AB1D86C00B998680368DB6AA0
:1015200098473368B0FA80F4D86C640930B1036826
:10153000DB6A9847002808BF44F001042CB9064B29
:10154000064A07482C2123F027F8284670BD00BF23
:10155000C0450120E8680208B95B0208175C020870
:10156000505C020870B5254E3568BFF35B8F15F0EF
:10157000010540D1304622F093F800283BD0204CA2
:10158000204B256104F13400C4E90035C4E902555B
:10159000E584A562A58510F0ECFD04F158000BF080
:1015A000FBF8194BA3652046184B40F8843BFFF726
:1015B000A7FF174BC4F884302433C4F88C304FF4A1
:1015C000C803C4E928350023C4F8AC30C4F8B030EF
:1015D000C4F8B430C4F8B8300E480F4BC4F890507B
:1015E000C4F89C50C4F8A850C4F8983022F0F2FF18
:1015F000304622F061F8024870BD00BF8033002001
:10160000843300208C72020808690208806902088D
:1016100040720208DD1300082072020838B5184C29
:1016200023685BB3174B184A1B6C11888B4216D189
:10163000164B198804F078FD236893F86A2000257A
:10164000013283F86A2083F87C50FFF7B5FA2068EE
:1016500009F098FA2846BDE83840FFF7F5B804F0DD
:1016600063FD2468236820461B6A9847012384F899
:101670007C300020BDE83840FFF710B938BD00BF0E
:10168000C0450120006801407E3300207C330020EB
:1016900007B50D4D0D4C286800224FF0FF3301A90E
:1016A00006F058FA02460028F5D18021204603F0C2
:1016B00033FFBDF8040003F0D5FC01228021204651
:1016C00003F02AFFE7E700BF40340020000002409B
:1016D00000B500228BB00221082006F0CFF90B4B99
:1016E00020221860002102A823F05DF9084B019325
:1016F0004FF400720823CDE90623002101AA054812
:1017000006F0C4F80BB05DF804FB00BF40340020C5
:10171000B25C02089116000807B5ADF80400054850
:1017200000231A4601A9006806F0E3F903B05DF84A
:1017300004FB00BF4034002007B5064BADF806009F
:101740001B68054801220DF1060105F0E9FA03B016
:101750005DF804FB0C000020E434002007B50D4DBB
:101760000D4C286800224FF0FF3301A906F0F2F972
:1017700002460028F5D18021204603F0CDFEBDF8B9
:10178000040003F06FFC01228021204603F0C4FE18
:10179000E7E700BF483400200000024007B50D23F2
:1017A0008DF804008DF8053003220A2301A90448AE
:1017B0008DF8063005F04BFF03B05DF804FB00BF69
:1017C0009C3400202DE9F74F0127DFF8A8A0DFF8AF
:1017D000A880B946BB461021504603F097FE202151
:1017E0000446504603F092FE04210546204803F0CB
:1017F0008DFE06468CB9BBF1010F0ED14FF04C0B9C
:10180000D8F800008DF807B0234622460DF10701F5
:1018100006F06FF95846FFF7C1FF8DB9B9F1010F16
:101820000ED14FF05209D8F800008DF807902B46E2
:101830002A460DF1070106F05CF94846FFF7AEFFB6
:101840007EB9012F0DD14227D8F800008DF807701E
:10185000334632460DF1070106F04BF93846FFF7E3
:101860009DFF1E2006F056F83746A946A346B2E76C
:1018700000000240000802405034002030B595B00E
:10188000102200210AA823F08EF81422002103A8B8
:1018900023F089F800241E4B01941A6C42F0805208
:1018A0001A641B6C03F080530193019B194B029443
:1018B0001A6842F440421A601B6803F440430293E2
:1018C0000122029B4FF48033CDE9082302254FF417
:1018D00080030421CDE90E53B423CDE9101308A8E9
:1018E00008231393129504F077FC04F03BFC0F23BC
:1018F000CDE903354FF4A0504FF48053CDE90603F2
:10190000052103A8059404F043FE15B030BD00BFC7
:10191000003802400070004080B59AB003F076FBBA
:10192000FFF7D6FEFFF7AAFF142200210DA823F02F
:101930003AF80024C74B00941A6BC748DFF8548369
:10194000DFF8549342F010021A631A6B02F010028F
:101950000092009A01941A6B42F020021A631A6BEB
:1019600002F020020192019A02941A6B42F0800266
:101970001A631A6B02F080020292029A03941A6BA5
:1019800042F004021A631A6B02F004020392039AF3
:1019900004941A6B42F001021A631A6B02F00102FE
:1019A0000492049A05941A6B42F002021A631A6BAD
:1019B00002F002020592059A06941A6B42F0400268
:1019C0001A631A6B02F040020692069A07941A6B89
:1019D00042F008021A631B6B03F0080322460793C8
:1019E0003C21079B03F098FD9C480122022103F053
:1019F00093FD22469948042103F08EFD9848012268
:101A0000802103F089FD224696484FF4405103F0AF
:101A100083FD01263C23CDE90D368F480F94032327
:101A20000DA90227109303F08DFC8C480DA9CDE978
:101A30000D760425CDE90F4403F084FC87480DA9F9
:101A4000CDE90D56CDE90F4703F07CFC24238448F3
:101A50000F960DA9CDE90D3403F074FC8023804866
:101A60000DA9CDE90D36CDE90F4403F06BFC302311
:101A70007A480F960DA9CDE90D3403F063FC4FF4BD
:101A8000405378480DA9CDE90D36CDE90F4703F055
:101A900059FC0DA974480F96CDE90D5403F052FC82
:101AA0007248734B734D036003F042FB724B2C6220
:101AB000C5E9008328464FF48043C5E90434C5E9ED
:101AC0000244C5E9064403F035FF1021284604F01E
:101AD00079F921462846694D04F093F94FF4827351
:101AE000C5E900934FF4007A1823C5E906A32846F8
:101AF0000A23C5E90244C5E90444C5E90844AC62C7
:101B0000EB6205F0B1F88F232246394653488DF831
:101B100024308DF8344003F0FFFC32464FF47A73E2
:101B200009A9284605F0FCF84FF47A7332460DA94E
:101B3000284605F0A1FA324639464848504D03F090
:101B4000EBFC9DF83430D32B04BF4E4B1E704E4B34
:101B50000126C5E90036102240230024C5E90423EC
:101B60004FF4C073C5E906344FF40063C5E9083487
:101B70004FF4005302274FF00409AB624FF0030A01
:101B800007230DA92846CDE90D73CDE90F934FF03A
:101B90000808C5E90249CDE911A7139704F048FFE9
:101BA0004FF6FF7209A92846CDE90A8608940996DE
:101BB0000C9404F05DFF304603F054FA4FF6FF72C8
:101BC00009A92846CDE90978CDE90B6404F050FF56
:101BD0004FF6FF7209A92846CDE909A8CDE90B9473
:101BE00004F046FF4FF40C730893089B0C934FF6D8
:101BF000FF7209A92846CDE909980B9604F038FF31
:101C000040F26A51284604F051FF34220DEB0200E5
:101C1000214622F0C8FE1D4D1D4B2C61C5E9003444
:101C20000923C5E905361D23C5E9073A40F20D1120
:101C300040F24313C5E9091340F2171040F247136D
:101C4000C5E90B032846C5E90244AC8685F8364051
:101C500024E000BF003802400010024000080240AB
:101C600000000240000C02400018024088360020AC
:101C700000300240F4350020A0860100E43400204A
:101C80006834002058340020400100A04C3500206A
:101C900000680140005C00400050014004F04CF935
:101CA000FF214FF4806CF022CDE912140521CDE91B
:101CB00014C14FF4A0730DA9CDE90E24CDE916424D
:101CC00028462246384D1893CDE910370D94ADF8CB
:101CD00064408DF8664004F0FAF9344B2B601B68C1
:101CE00098472B68324DDB689847324B2846C5E948
:101CF0000034C5E90274C5E90A47C5E90C4403F09C
:101D000027FA3146284603F0D9FADFF8ECE02A48F2
:101D10004FF4E133C0E900E30C23C0E90534C0E926
:101D200002440461C46105F063FC2448244B036051
:101D300004F032FEFEF7BCFCFEF7B9FC05F07AFDBC
:101D400022463946304605F099FE1E4B2246186061
:101D500031460A2005F092FE1B4B224618603146A0
:101D6000404605F08BFE194B224618603946404626
:101D700005F084FE164B174A18602146164805F0F8
:101D800085FD164B164A18602146164805F07EFD63
:101D9000154B164A18602146154805F077FD154B7E
:101DA000186005F059FDFEE74434002014000020BF
:101DB0004836002000B002409C3400203C35002012
:101DC0000008065054340020503400204C340020C9
:101DD000483400200C6A0208C5170008643400204B
:101DE000E8690208BF06000860340020C4690208E0
:101DF0005D1700085C3400200010014070477047F8
:101E00007FB5094B8DF817201B6802930DF117025F
:101E10000123009201930A460146044803F032FE72
:101E200007B05DF804FB00BF10000020F43500206F
:101E30007FB500238DF81730084B1B6802930A46C4
:101E400001230DF11701009101930146044803F0AD
:101E5000A9FE9DF8170007B05DF804FB10000020F4
:101E6000F43500201FB5084C24680092CDE90134F8
:101E70000A4601230146054803F094FE003818BFC6
:101E8000012004B010BD00BF10000020F435002078
:101E900003F0E8B810B5064C00222046042103F0F8
:101EA0003BFB20460122BDE81040042103F034BB77
:101EB0000008024038B50B4D044601220A484FF491
:101EC000005103F029FB00220421284603F024FBE3
:101ED0002046FFF731FC28460122BDE838400421A6
:101EE00003F01ABB00080240000C024038B50B4D4D
:101EF000044600220A484FF4005103F00DFB002273
:101F00000421284603F008FB2046FFF715FC28466D
:101F10000122BDE83840042103F0FEBA0008024067
:101F2000000C0240F7B5144E144F05460C463046DF
:101F30000022042103F0F0FA00224FF40051384649
:101F400003F0EAFA2846FFF7F7FB0D4B0D481B6834
:101F5000224601A905F090F8384601224FF40051BD
:101F6000019C03F0D9FA30460122042103F0D4FA8F
:101F7000204603B0F0BD00BF00080240000C024044
:101F80000C000020E434002003F06CB80268034B1E
:101F90009A4201D103F054B8704700BF00100040CE
:101FA0007047000082B00E4B00220092596C41F441
:101FB00080415964596C01F480410091009901926B
:101FC000196C41F0805119641B6C03F0805301932C
:101FD000019B0F216FF0010002B003F069B800BF50
:101FE000003802400268094B9A4282B00BD10023AC
:101FF0000193074B1A6B42F480521A631B6B03F474
:1020000080530193019B02B0704700BF0030024033
:102010000038024007B50F4B02689A4216D10022E1
:10202000A3F5F0430192196B41F4000119631B6B96
:1020300003F40003019305215A20019B03F038F8B3
:102040005A2003B05DF804EB03F064B803B05DF808
:1020500004FB00BF00B002402DE9F043044689B004
:102060001422002103A822F09EFC2268244B9A42ED
:1020700043D1244C244800250095236B43F00403EE
:102080002363236B03F004030093009B0195236BF0
:1020900043F001032363236B03F001030193019BCE
:1020A0004FF012094FF400734FF001080327042684
:1020B00003A9CDE90339CDE90587079603F042F975
:1020C0004FF480731148079603A9CDE90339CDE990
:1020D000058703F037F90295236C43F4000323646A
:1020E000236C03F400030293029B236A43F400036E
:1020F0002362236A23F40003236209B0BDE8F0835E
:10210000005C00400038024000080240000002402D
:10211000F0B599B004461422002107A822F043FC30
:1021200030220DEB0200002122F03DFC22685E4BC4
:102130009A4240F0B78008230C9332231093042373
:1021400012930CA84FF40033159304F0F9FA08B178
:10215000FFF726FF554B5648002400945A6C42F076
:1021600080625A645A6C02F080620092009A019474
:102170001A6B42F020021A631A6B02F020020192DD
:10218000019A02941A6B42F001021A631A6B02F070
:1021900001020292029A03941A6B42F002021A633D
:1021A0001A6B02F002020392039A04941A6B42F033
:1021B00040021A631A6B02F040020492049A0594DA
:1021C0001A6B42F004021A631A6B02F004020592C1
:1021D000059A06941A6B42F008021A631B6B03F00F
:1021E0000803069302250E26069B0B964FF4806388
:1021F00007A9CDE90735CDE9094503F0A3F841F674
:1022000058032C480B9607A9CDE907350927CDE9D6
:10221000094503F097F8032327480B9707A9CDE951
:102220000735CDE9094503F08DF84FF47063224876
:102230000B9607A9CDE90735CDE9094503F082F8EA
:102240004FF40C631D480B9607A9CDE90735CDE97E
:10225000094503F077F8C02319480B9607A9CDE983
:102260000735CDE9094503F06DF8082315480B96AD
:1022700007A9CDE90735CDE9094503F063F84FF427
:10228000A0530E480B9707A9CDE90735CDE90945BD
:1022900003F058F858202246052102F009FF582083
:1022A00002F038FF19B0F0BD00680140003802406C
:1022B00000140240000002400004024000180240E6
:1022C00000080240000C02400268094B9A4282B0AA
:1022D0000BD100230193074B5A6B42F040025A6323
:1022E0005B6B03F040030193019B02B0704700BF9A
:1022F000000806500038024010B5044688B0142289
:10230000002103A822F04FFB2268144B9A4223D1EC
:1023100003F56843002101915A6C114842F4801280
:102320005A645A6C02F480120192019A02911A6B5B
:1023300042F020021A631B6B03F020030293029BFE
:102340004FF4607202230321CDE903230523CDE975
:10235000061303A902F0F6FF08B010BD00500140BB
:102360000014024010B5044688B01422002103A8CE
:1023700022F019FB2268144B9A4223D103F59433BF
:10238000002101915A6C114842F010025A645A6CB3
:1023900002F010020192019A02911A6B42F00102BE
:1023A0001A631B6B03F001030293029B4FF4C0629C
:1023B00002230321CDE903230723CDE9061303A953
:1023C00002F0C0FF08B010BD001001400000024044
:1023D0002DE9F04186B0002303932B4B1C68002CA1
:1023E0004FD14FF00108C3F80080284B00949A6B3E
:1023F000274842EA08029A639B6B03EA08030093AA
:10240000022703260C25009B01A94FF63F03CDE9C7
:102410000137CDE9046502F095FF1E48059501A935
:10242000CDE90187CDE9034602F08CFF48F2331372
:102430001948059501A9CDE90137CDE9034602F018
:1024400081FF4FF683731548059501A9CDE9013742
:10245000CDE9034602F076FF4CF203731048059570
:1024600001A9CDE90137CDE9034602F06BFF6023F6
:102470000C48059501A9CDE90137CDE9034602F0E5
:1024800061FF06B0BDE8F0819036002000380240C0
:1024900000140240000802400018024000100240F0
:1024A000000C02400004024070B588B00023029383
:1024B000204B1A6C42F010021A641B6C03F01003DC
:1024C0000293054601A903A8029B04F01BF9069B91
:1024D0004BBB04F0F7F8184E184B336040F2E7336B
:1024E000F360174BB0FBF3F3013B736030460023FE
:1024F0003361B360B36104F08FFF044680B93046A6
:1025000004F060FE044658B9362002F003FE0F2D99
:102510000DD822462946362002F0CAFD094B1D601F
:10252000204608B070BD04F0CDF84000D3E7012488
:10253000F6E700BF0038024094360020001000404B
:1025400040420F007C0000207047FEE7FEE7FEE7F8
:10255000FEE77047014804F073BE00BF94360020C8
:10256000014803F057BD00BF4C350020014802F080
:102570001BBE00BF483600200120704708B522F07E
:1025800013FB162303604FF0FF3008BD08B522F09F
:102590000BFB16230360FEE770B50D4614460E468E
:1025A000731B9C4201DC204670BDAFF3008006F82F
:1025B000010BF5E770B50D4614460E46731B9C42A1
:1025C00001DC204670BD16F8010BAFF30080F5E783
:1025D0004FF0FF3070474FF400534B6000207047BE
:1025E00001207047002070470A4A116808B5034669
:1025F00009B9094911601068694603448B4206D93C
:1026000022F0D2FA0C2303604FF0FF3008BD1360B4
:10261000FCE700BFDC36002000530120704710B5F6
:102620000421044621F03AF8204610BD08B50329DC
:1026300013D8DFE801F002060A0E01F00FFB006874
:1026400008BD01F00BFB4068FAE701F007FB80686A
:10265000F6E701F003FBC068F2E70020F0E70000B6
:1026600000487047446A02081520704713B50024DB
:1026700051B1036801948DF8034001AA9C680DF1E3
:102680000303A04702B010BD0846FBE7C0897047AE
:10269000008A7047C088704780887047807A00F051
:1026A0007F007047807AC0097047002070470000A3
:1026B0009FED010A704700BF00000000704710B591
:1026C0000821044620F0EAFF204610BD70477047FD
:1026D00000F598730868496803C3704770477047EE
:1026E0004160704770477047064BC0F84C3100237B
:1026F000C0F8503100F5A273C0F84801C0F840316D
:10270000704700BF8128000801230372704770479B
:10271000704710B4C26841685410034601EB620070
:10272000D20748BF0A599B685DF8044B48BFD3588D
:1027300018470346406830B19A681AB9D86800F063
:10274000010070470120704710B50C21044620F0AD
:10275000A5FF204610BD10B51021044620F09EFFB5
:10276000204610BD10B54FF4AE71044620F096FF20
:10277000204610BD10B54021044620F08FFF2046B2
:1027800010BD10B50DF05EFF0368BDE81040DB6BB7
:1027900018470000054B1B7801462BB1406818B163
:1027A00003680C315B6E1847704700BFBF450120BE
:1027B000037A70B50546BBB940680368DB69984782
:1027C00004463CB96868036805F10C011B6EBDE85E
:1027D00070401847E1886B8FC91A236820465B6BED
:1027E00009B29847A469ECE770BD10B50446D0F86B
:1027F000400158B10368DB68984738B1D4F840010C
:1028000003689B6898470023C4F8403110BD70B539
:10281000044690F8390094F838300130C0B298423C
:1028200084F8390005D901232372002384F8393054
:1028300070BDB4F93A20002110F026F9C30706D57F
:1028400000284FF6FF73C8BF0123184400B2638A03
:10285000C01AA08760680368DB69984705462DB9F0
:1028600060680368BDE870405B691847E988A38F1A
:1028700019442B6828465B6B09B29847AD69EEE7AF
:102880002DE9F14FD0E9556A0746B06803681B6A25
:102890009847B0F5D07F05D2444B454AA32145481F
:1028A00021F07AFE706803681B6A98470F2803D8E6
:1028B000414B3F4AA421F2E7F06803681B6A98473E
:1028C0000B2803D83D4B3A4AA521E8E70DF0BAFEA4
:1028D000DFF8F09004300DF0F3FED9F8000010B1ED
:1028E0000368DB689847D9F8000010B103681B68DB
:1028F0009847DFF8D480D8F8000010B103685B690E
:102900009847D7F83C0110B103685B689847D8F83E
:10291000000010B103681B689847D7F83C0110B15C
:1029200003689B689847F068036800215B6A9847D2
:102930004FF0000B224BC0F804B0044680F808B0FA
:102940000360B068036859465B6A9847054601F022
:10295000F1F97068036859465B6A9847294606464C
:1029600001F0C6F9331DC7F83C61C9F80040C8F84A
:102970000050CAF800302B68C6F808A02846DB686B
:10298000EE639847336830461B68984721462846CF
:1029900010F074F8236820461B69984723685B6928
:1029A000204601B0BDE8F04F184700BF0D5D02089A
:1029B0009B5D02087B5E0208C25E0208655F02083A
:1029C0006C6C02080846012004460120044B1B6879
:1029D00093F858200AB1D86C00B99868704700BFC6
:1029E000C0450120F8B5174604460E460DF036FFE7
:1029F000124B1C60124B2360124B0025C4E9513569
:102A0000114BC4E953551868036801219B68C4E958
:102A10004F55C4E955769847284601F0D3F8FFF79B
:102A2000D5FF18F038FDFFF7D1FF18F0AFFDFFF725
:102A3000CDFF18F0B7FD2046F8BD00BF14460120B9
:102A4000186C0208006C0208C0450120064BC0F853
:102A50004C310023C0F8503100F5A273C0F8480192
:102A6000C0F84031704700BFBD2D0008064BC0F8CC
:102A70004C310023C0F8503100F5A273C0F8480172
:102A8000C0F84031704700BF812C0008064BC0F8E9
:102A90004C310023C0F8503100F5A273C0F8480152
:102AA000C0F84031704700BF81280008064BC0F8CD
:102AB0004C310023C0F8503100F5A273C0F8480132
:102AC000C0F84031704700BF492B000803685B6ABB
:102AD000184700002DE9F04105460026164B4660D8
:102AE000067245F80C3B044628460F460AF05EFC89
:102AF000124B84F838701B7884F83960A68723B9A4
:102B0000012323722046BDE8F0810D4AE3680D4F92
:102B1000B2F900109B6B26612846B7F900809847F0
:102B2000E3684146DB6B2846984728460AF0B9FB24
:102B30003B886387E6E700BF906C0208BF45012031
:102B4000B4450120B64501202DE9F047D0E9556A8A
:102B50000746B06803681B6A9847B0F5D07F05D276
:102B6000404B414AA321414821F016FD706803689B
:102B70001B6A98470F2803D83D4B3B4AA421F2E734
:102B8000F06803681B6A98473F2803D8394B364AD8
:102B9000A521E8E70DF056FDDFF8DC9004300DF0DC
:102BA0008FFDD9F8000010B10368DB689847D9F8A9
:102BB000000010B103681B689847DFF8C080D8F8A0
:102BC000000010B103685B699847D7F83C0110B169
:102BD00003685B689847D8F8000010B103681B6869
:102BE0009847D7F83C0110B103689B689847F06894
:102BF0000021FFF76BFF14210446FFF76BFFB0685D
:102C0000036800215B6A9847054601F093F87068F5
:102C1000036800215B6A98472946064601F068F878
:102C2000331DC7F83C61C9F80040C8F80050CAF825
:102C300000302B68C6F808A02846DB68EE6398478A
:102C4000336830461B689847214628460FF016FF28
:102C5000236820461B699847236820465B69BDE8C6
:102C6000F04718470D5D0208086002087B5E020805
:102C7000C25E0208655F0208084601200446012082
:102C80002DE9F047D0E9556A0746B06803681B6A2A
:102C9000984741F60373984205D8414B414AA32116
:102CA000414821F079FC706803681B6A98470F2837
:102CB00003D83E4B3B4AA421F2E7F06803681B6A45
:102CC00098473F2803D83A4B364AA521E8E70DF04C
:102CD000B9FCDFF8E09004300DF0F2FCD9F8000008
:102CE00010B10368DB689847D9F8000010B1036899
:102CF0001B689847DFF8C080D8F8000010B103685F
:102D00005B699847D7F83C0110B103685B68984746
:102D1000D8F8000010B103681B689847D7F83C0149
:102D200010B103689B689847F0680021FFF7CEFE5A
:102D300014210446FFF7CEFEB068036800215B6AE9
:102D40009847054601F0E4FC7068036800215B6A5F
:102D500098472946064601F007F8331DC7F83C613D
:102D6000C9F80040C8F80050CAF800302B68C6F80F
:102D700008A02846DB68EE639847336830461B6836
:102D80009847214628460FF079FE236820461B69A4
:102D90009847236820465B69BDE8F047184700BFA5
:102DA0000D5D0208FC6002087B5E0208C25E02083C
:102DB000655F020808460120044601202DE9F0471E
:102DC000D0E9556A0746B06803681B6A9847DB2854
:102DD00005D8414B414AA321414821F0DDFB7068F1
:102DE00003681B6A98470F2803D83E4B3B4AA4212F
:102DF000F2E7F06803681B6A98473F2803D83A4B0C
:102E0000364AA521E8E70DF01DFCDFF8E09004301C
:102E10000DF056FCD9F8000010B10368DB68984744
:102E2000D9F8000010B103681B689847DFF8C0802C
:102E3000D8F8000010B103685B699847D7F83C01E7
:102E400010B103685B689847D8F8000010B10368B8
:102E50001B689847D7F83C0110B103689B689847F6
:102E6000F0680021FFF732FE14210446FFF732FE1E
:102E7000B068036800215B6A9847054601F008FEC8
:102E80007068036800215B6A98472946064601F08E
:102E9000DFFD331DC7F83C61C9F80040C8F8005099
:102EA000CAF800302B68C6F808A02846DB68EE6335
:102EB0009847336830461B689847214628460FF0EC
:102EC000DDFD236820461B699847236820465B691F
:102ED000BDE8F047184700BF0D5D0208F061020829
:102EE0007B5E0208C25E0208655F02080846012098
:102EF000044601207047704770477047704770471D
:102F00007047704730B4C26844685510034604EBFC
:102F10006200D20748BF62599B6830BC48BFD35893
:102F200018470346406830B19A681AB9D86800F06B
:102F3000010070470120704710B51021044620F0B1
:102F4000ADFB204610BD10B54FF4D071044620F003
:102F5000A5FB204610BD38B500F1E00399420446B8
:102F60000D4603D10DF06EFBFFF780FD04F58A746A
:102F7000A54205D10DF066FBBDE83840FFF766BD00
:102F800038BD70B5036804461B6B15469847236827
:102F9000294620465B6BBDE8704018470022C0E917
:102FA0000122C0E90322C0E90522C0E907224FF44B
:102FB00080728284014A0260704700BFB46C0208CC
:102FC00010B526220446002121F0EDFC2046FFF733
:102FD000E5FF0A4B23600A4BA3624FF6FF73A385FC
:102FE0004FF47F020023C4E90C3223874FF0FF32F5
:102FF000C4E91023E363204610BD00BFD474020867
:10300000F06B020810B526220446002121F0CBFC0B
:103010002046FFF7C3FF0023A36284F82C3001236E
:1030200084F82430044B23604FF6FF7384F8323069
:10303000E3852386204610BDCC7502082DE9F04FAC
:1030400004468BB0264600250FF06CFB714BE56300
:1030500046F8403B26273A462946304621F0A3FC55
:103060003046FFF79BFF04F16C084FF0FF396A4BC5
:1030700023643A464FF6FF73294684F86690A566A6
:103080004046ADF8203021F08EFC4046FFF786FF29
:10309000624BE366BDF82030A4F8923008A904F131
:1030A000980A84F8949040460AF0BFFE04F1E00BC1
:1030B0005046FFF785FF5846FFF7A4FF04F58A73D3
:1030C00004F5A47918460193FFF79CFF4846FFF7E3
:1030D00077FF534BC4E96434524B2A46C4E9663542
:1030E00029463046FFF74DFF3046F021FEF724F920
:1030F00030464FF4A071FEF721F9271D4FF07F43B2
:10310000A3663146384606F0D5FC2A462946404695
:10311000FFF737FF072308A94046ADF820300AF033
:1031200084FE4146384606F0C5FC02AEDFF8FC805E
:103130007F2250468921FFF724FFA4F8CC50514646
:103140003046C4F8C8800AF031FA96E8070004F166
:10315000D40383E80700344B089308A95046ADF820
:1031600024500AF0CBFC5146384606F0A3FC5846E2
:10317000FF222821FFF705FF0D22ADF81C200E22AB
:10318000ADF8202007A908AA584604F5C87A0AF025
:1031900013FD59463846C4F808A106F08BFC019887
:1031A000BE222821FFF7EDFE0822ADF81C200922DF
:1031B0000198ADF8202007A908AA0AF0FDFC0199A2
:1031C000C4F83CA1384606F075FC5D2248468921CA
:1031D000FFF7D7FEA4F87C5149463046C4F8788101
:1031E0000AF0E4F996E807000F4B089304F5C2755E
:1031F00085E80700012308A94846ADF824300AF005
:103200007DFC3846494606F055FC20460BB0BDE82B
:10321000F08F00BF346D0208647502084076020822
:103220001C6D0208572F0008F06B02080000FFFF1A
:1032300030B5036885B06D460181D3F8843001460E
:1032400004462846984795E807003C3484E8070080
:1032500005B030BD30B5036885B06D464181D3F807
:103260008430014604462846984795E807003C34D8
:1032700084E8070005B030BD0022028042808280D1
:10328000C280704780F83610704770B503680446F6
:103290001B6B154698472368294620465B6EBDE8A0
:1032A0007040184700207047806C70477047704727
:1032B0007047704730B4C26844685510034604EB49
:1032C0006200D20748BF62599B6830BC48BFD358E0
:1032D00018470346406830B19A681AB9D86800F0B8
:1032E000010070470120704710B54C21044620F0C2
:1032F000D5F9204610BD10B51021044620F0CEF9B6
:10330000204610BD10B54FF40671044620F0C6F9F2
:10331000204610BD08B5FEF7C5F808BD036870B5B6
:103320005E6B124B1B6804468DB22BB9104B114AD1
:103330006C21114821F030F91049828D09889142A1
:1033400003D80F4B0B4A6D21F3E713F812200D4BF6
:103350001B6853F8220003681B6B9847291A3346F1
:10336000204609B2BDE87040184700BF184601204A
:10337000DC6202081E630208596302081C46012031
:10338000A06302082046012038B500F1C403994229
:1033900004460D4603D10DF055F9FFF757FB04F530
:1033A0009674A54205D10DF04DF9BDE83840FFF700
:1033B0007DBB38BD00224FF0FF31C0E900218260A3
:1033C0007047000038B5262204460D46002121F042
:1033D000EAFA2046FFF7E2FD064B23602B88E384E0
:1033E000FF23204684F8283029460AF01EFD204697
:1033F00038BD00BF407602082DE9F04F04468DB07D
:1034000026464FF000080FF08DF9944AC4F83C802E
:1034100046F8402B41462622304621F0C4FA304679
:10342000FFF7BCFD8E49216404F16C0BFF2104F110
:10343000980A4FF6FF7584F86610C4F868800AA9E8
:10344000584604F1C409ADF82850FFF7BBFF0AA99C
:103450005046ADF82850FFF7B5FF4846FFF7D2FDBC
:1034600004F1F80318460193FFF7CCFD04F59673B9
:1034700018460293FFF7C6FD04F5B07304F5CA774A
:1034800018460393FFF7BEFD41462622384621F039
:103490008AFA3846FFF782FD4FF47F02C4F8C8214C
:1034A000704AC4F89421704A704BC4F8BC31C4E926
:1034B00082246F4AA4F8C0514FF0FF33C4E9753835
:1034C000C4E98428414642463046C4F8C481A4F881
:1034D000CC81C4F8D081C4F8DC81FFF752FD3046BE
:1034E000F021FDF729FF30464FF4A071251DFDF7AF
:1034F00025FF4FF07F42A2663146284606F0DAFAF1
:10350000424641465846FFF73CFD4FF002020AA9E9
:103510005846ADF828200AF088FC5946284606F09F
:10352000C9FA5046D7221421FFF72BFD10220AA911
:103530005046ADF828200AF078FC5146284606F09F
:10354000B9FA42464846C221FFF71BFD0A220AA9E2
:1035500004F50276ADF82420ADF8282048460A4646
:1035600009A90AF029FBC4F8EC604946284606F090
:10357000A1FA01980122A921FFF703FD0B22ADF862
:1035800024200AA90C220198ADF828200A4609A98E
:103590000AF012FB0199284606F08CFA02980122E3
:1035A0008521FFF7EEFC0F220AA90298ADF824202E
:1035B000ADF828200A4609A90AF0FEFA0299C4F8D3
:1035C0005461284606F076FA039842466C21FFF7CC
:1035D000D8FC1422ADF824200AA913220398ADF8D0
:1035E00028200A4609A90AF0E7FA0399284606F0B6
:1035F00061FA38460D221D21FFF7C3FCD4F894214F
:10360000A4F8C8814FF0FF3304AEC4F8C431394682
:103610003046D2F88420904796E8070004F5E87C0D
:1036200004F5F0738CE80700C4F8DC313846A4F8E0
:10363000E0810AF043FA0D4B0A934FF002020AA907
:103640003846ADF82C200AF059FA2846394606F0DB
:1036500031FA20460DB0BDE8F08F00BF106E0208B1
:1036600064750208686D0208F86D0208F06B0208C4
:1036700089330008406A7047806A704770478A88BB
:103680000B8810B5D20A4C88C1699BB251F8220050
:1036900043EA0443184410BD10B50446BAB1107B88
:1036A00068B1537BD27A1B0203F4E0631A43236AA6
:1036B00003EB82031A888A4202D193F9020010BDFB
:1036C00005D8013880B204330028F3D1F7E7002091
:1036D000F5E710B52C2104461FF0E0FF204610BD91
:1036E00030B58BB00446BDF860500895BDF85C500D
:1036F00007959DF8505006959DF84C5005959DF8FE
:10370000485004959DF8445003959DF8405002950B
:103710009DF83C500195BDF8385000950EF0E6FD3F
:10372000064B2360159BE361169B2362199B636222
:103730001A9BA36220460BB030BD00BF446E020846
:1037400070477047704730B4C268446855100346EC
:1037500004EB6200D20748BF62599B6830BC48BF87
:10376000D35818470346406830B19A681AB9D868E8
:1037700000F0010070470120704710B51021044689
:103780001FF08CFF204610BD10B5DC2104461FF051
:1037900085FF204610BD9830884208B505D10CF051
:1037A00051FFBDE80840FFF761B908BD2DE9F347B7
:1037B0000446264600250EF0B5FF494BE56346F862
:1037C000403B4FF0260A52462946304621F0EBF89E
:1037D0003046FFF7E3FB04F16C07424B23644FF0E4
:1037E000FF084FF6FF795246294684F86680A566A1
:1037F0003846ADF8049021F0D6F83846FFF7CEFBF6
:10380000394BE366BDF80430A4F8923084F8948014
:1038100001A904F1980838460AF007FB52462946E8
:10382000404621F0C0F84046FFF7B8FB2F4BC4F8E4
:1038300098302F4BA4F8C690C4E933342D4BA4F82C
:10384000C8904FF0010A2A46C4E9353584F8CA9079
:1038500029463046C4F8C05084F8C45084F8BCA04F
:10386000FFF78FFB3046F021FDF766FD30464FF441
:10387000A071FDF763FD04F104094FF07F43A366D7
:103880003146484606F016F92A4629463846FFF7DB
:1038900078FB01A93846ADF804A00AF0C6FA39460B
:1038A000484606F007F9404692224621FFF769FB99
:1038B0001123ADF8003001AA122369464046ADF845
:1038C00004300AF079F904F1CC034846C4F8C0305A
:1038D000414606F0EFF8204602B0BDE8F08700BF91
:1038E000C46E02086475020840760208CC750208AE
:1038F000AC6E0208973700087047000030B5164DCF
:103900002C6814F001048FB0BFF35B8F21D12846DF
:103910001FF0C6FEE8B13F230993104B0893104BEC
:1039200007930123CDE9054304930423CDE9024322
:103930000A230C4900930822CDE90B440A480A9453
:103940000194FFF7CDFE094820F044FE28461FF001
:10395000B3FE05480FB030BDE03600202C840208CD
:103960003C84020854830208E4360020F938000839
:103970007047000030B5164D2C6814F001048FB06C
:10398000BFF35B8F20D128461FF08AFEE0B13F23B2
:103990000993104B0893104B104911480A940122C7
:1039A000CDE906430423CDE9033214230093CDE986
:1039B0000B44CDE901440594FFF792FE094820F03D
:1039C00009FE28461FF078FE05480FB030BD00BF45
:1039D000103700203084020840840208C4830208A3
:1039E00014370020713900087047000030B5164DBB
:1039F0002C6814F001048FB0BFF35B8F21D12846EF
:103A00001FF04EFEE8B13F230993104B0893104B73
:103A1000104911480A94CDE9064301220423CDE957
:103A20000332192300930522CDE90B44CDE901446B
:103A30000594FFF755FE094820F0CCFD28461FF0FD
:103A40003BFE05480FB030BD4037002034840208EB
:103A500044840208D483020844370020E93900086E
:103A60007047000030B5164D2C6814F001048FB07B
:103A7000BFF35B8F20D128461FF012FEE0B13F2339
:103A80000993104B0893104B104911480A940122D6
:103A9000CDE906430423CDE9033228230093CDE981
:103AA0000B44CDE901440594FFF71AFE094820F0C4
:103AB00091FD28461FF000FE05480FB030BD00BF45
:103AC0007037002038840208488402081C840208E9
:103AD00074370020613A00080020704700207047CA
:103AE0000EB403B503AB002153F8042B01930DF082
:103AF0007BFE02B05DF804EB03B070470CB407B571
:103B000004AB53F8042B01930DF06EFE03B05DF887
:103B100004EB02B070470000436C10B5044673B369
:103B2000038F2BB9184B194AC521194820F034FDD1
:103B3000C38E00EB43035B8C0BB30FF058FD238F58
:103B4000012B03D8134B144ACB21EEE7E28E531C12
:103B50009BB2092B194688BFA3F10A0104EB41016E
:103B600040F63F10498C814209D10A2B04EB4202F6
:103B700028BF002304EB4303508C58845184204613
:103B8000BDE810400FF036BCDE630208E7630208B0
:103B900092640208DC640208EA6402080FF0F1BBD8
:103BA00010B586B002AC84E806001A460AAB05934D
:103BB0000193099B00932146089B0CF0C5F806B0C1
:103BC00010BD000038B518BB124B13481C681349D0
:103BD000B4B1226822440260626822440A60A2688A
:103BE00014440F4B00221A8000F038F8054600F00C
:103BF00033F80C4B1C600C4B1D600C4B188007E01D
:103C00000B4B03600B4B0B600B4B1C68002CE8D17B
:103C100038BD00BFAC370020A4370020A0370020FB
:103C2000A837002018460120204601201C4601200C
:103C3000588402084C84020878840208044B1B68EC
:103C400053F82100034B1B6803EB4000704700BF93
:103C5000A0370020A4370020032070470048704799
:103C6000B037002010B5FFF7FDFE064C2060FFF7CF
:103C700045FE6060FFF7BAFEA060FFF77BFEE060E4
:103C800010BD00BFB037002010B5002404600C60E8
:103C900014601C6010BD704710B54FF4AE7104463F
:103CA0001FF0FCFC204610BD10B50446D0F85801AA
:103CB00000F0FDFE2046BDE810400CF05FBD0000A6
:103CC00010B50446FEF78EFE014B2360204610BD62
:103CD000F86E0208704704387047704710B510211D
:103CE00004461FF0DBFC204610BDA0F10400F5E700
:103CF00000228260024A026018324260C16070474E
:103D00004C6F02087047000010B5034B0360044677
:103D1000FFF7F6F8204610BD746F020810B5044690
:103D2000FFF7F2FF20464FF4D0711FF0B7FC20469A
:103D300010BD000010B50446FFF780F9014B236069
:103D4000204610BD746F0208FFF7DBB870470438D7
:103D50007047704710B5102104461FF09FFC2046A5
:103D600010BDA0F10400F5E700228260024A026063
:103D700018324260C1607047A86F020870477047F0
:103D8000704730B4C26844685510034604EB6200C3
:103D9000D20748BF62599B6830BC48BFD358184708
:103DA0000346406830B19A681AB9D86800F001003B
:103DB00070470120704781857047808D704700F5FE
:103DC0008053002200F5EF5083F8092E04300DF0E7
:103DD00035BE10B5442104461FF060FC204610BDDE
:103DE00010B5102104461FF059FC204610BD0000FC
:103DF00038B5094B0360044641F65C55B5F5337F91
:103E000005D0635960191B689847443DF6E7204682
:103E1000FFF74EFA204638BD5C70020810B5044624
:103E2000FFF7E6FF204641F604711FF037FC2046FD
:103E300010BD08B590F828300BB1FDF733FB08BD75
:103E400008B5054B1B682BB9044B054A054894215E
:103E500020F0A2FB08BD00BF50460120BC6502084F
:103E6000F86502082B6602080268D0ED0E0AD26ED1
:103E7000B0EE401A90ED0D0A10472DE9F34100F520
:103E8000EF5504350446032304F5805701A928465D
:103E900004F5F156ADF804304FF0010809F0C5FF04
:103EA0000836D72228465A21FFF76BF829463046B4
:103EB00087F8098E05F0FEFD28460DF0BFFD04F5DC
:103EC000ED5404230DEB03012046ADF8043009F056
:103ED000ACFFD72220465A21FFF753F8304687F827
:103EE000C58D214605F0E6FD204602B0BDE8F04153
:103EF0000DF0A4BD2DE9F04F2A4B87B000250493A7
:103F000003F10213059300F5F1530833074600F55A
:103F10000B7BAA4600932BB2019307EB0A06D94606
:103F200000244FF000082048CDF80C8003A902F0CF
:103F30004BFDA0BB0399D6F8102306AB01F003019B
:103F4000C9F8001003EB410106F5447831F8081C6C
:103F5000126EADF80810404602A99047019A21B2AE
:103F60004046FFF70EF80122009886F835234146B7
:103F700005F0A0FD1434A4B2C82C09F1040906F11F
:103F80004406CED10AF52A7A40F6485215359245B4
:103F9000ADB20BF1280BBED107B0BDE8F08FC9F868
:103FA0000080E7E7030004003C3500202DE9F041E4
:103FB0002DED028B00F5805500F5EF5684B0B5F974
:103FC000A47DB5F9A68DB5F8C63DADF80830043628
:103FD000044602A9304609F028FF424639463046D9
:103FE0000127FEF7CEFF304685F8097E0DF026FD4D
:103FF000D4ED867A9FED287A67EE877A9FED277A4F
:1040000067EE877A9FED267A87EE878AB0EE480AB8
:104010001FF0D0FBF1EE007A20EE270A84ED870A2C
:10402000B0EE480A1FF082FB1E4B029303F102130D
:1040300003931D4AD4F8283284F8247252F82320BE
:104040003B44594201F00701F9EE007A03F00703FF
:1040500058BF4B4220EE270AC4F8283204AB03EBCA
:10406000420384ED880A04F5ED5433F8083CADF8BA
:10407000043001A9204609F0D8FE2046D7225A2153
:10408000FEF77FFF204685F8C57D04B0BDEC028BAE
:10409000BDE8F0410DF0D2BC00008A42C3F54840B3
:1040A000000034430300040088700208B2F90400E1
:1040B000B2F9083030B5B1F904400344A34215DD2C
:1040C000B1F908302344834210DDB2F90640B2F959
:1040D0000A30B1F906502344AB4207DDB1F90A00BA
:1040E0002844A042D4BF0020012030BD0020FCE7BE
:1040F00070B5044600F5F076D0F80C33084A04F5A4
:10410000CA751421304610F071F928460DF096FC5E
:10411000C4F8DC612846BDE870400DF08FBC00BFDC
:104120006F6602082DE9F84F4FF42A7B1F464FF0C7
:1041300044080BFB01F308FB023303440446B3F8C5
:1041400036030D461646FFF77BFE0A9B0BFB07FA6C
:1041500008FB03AAF318E91908FB03F30BFB01336F
:1041600081461C444FF0000B0A9B3D44042D1E4425
:104170000ED8092E0CD894F835334BB1B4F8360369
:10418000FFF75EFE4845544402D10BF1010BEBE70B
:104190005846BDE8F88F00002DE9F04F4FF42A7320
:1041A0004B431546442202FB0533034491B00646B7
:1041B000B3F836030C46FFF743FEDFF86CC10590F9
:1041C000BCE80F0008AF0FC79CE80F0087E80F009E
:1041D0000DF120090DF1400AD9E900872A4643462E
:1041E000214600973046FFF79DFF7B4200F1010B0F
:1041F00000932A46C8F1000321463046FFF792FF9C
:104200000BEB0003022B039340F383804FF42A7BD4
:1042100044210BFB04F201FB05F0831833444FF0FB
:10422000000C83F835C300F54470D3F81033104404
:104230005B6930449847EB1B04933A4B6FF04300A3
:1042400003FB08FC784308EB040A00EB0C02A4EB28
:104250000804EB1B442107920BFB04F201FB032231
:10426000CCF100031B1A3D4406930BFB0AF301FB40
:10427000053306EB030B012306EB02090293BAF1A7
:10428000040F11D8092D0FD8BBF83603FFF7D8FD5E
:10429000059B984208D100218BF83513DBF81013E9
:1042A0000BF5447049698847042C12D8049B092BEC
:1042B0000FD8B9F83603FFF7C3FD059B984208D124
:1042C000002189F83513D9F8101309F544704969AC
:1042D0008847029B01330293049BDB1B0493079BDB
:1042E0009944069B9B44DDE902239342C244A4EB1C
:1042F00008043D44C3DCD6F80C3303990A2202FBC0
:1043000001333046C6F80C3311B0BDE8F04FFFF76B
:10431000EFBE09F10809D1457FF45EAF11B0BDE8E9
:10432000F08F00BF58FDFFFFA85602082DE9F743A4
:1043300000F580590746B9F92C3ECD1AB9F92E3E41
:10434000D41A14F1140F4BDB682C4BDC152394FBAF
:10435000F3F415F1130F47DBC72D47DC142395FB4E
:10436000F3F54FF42A73634344266E4303F5447810
:10437000B0441E443E44B9F80A2ED6F81033ADF8C6
:104380000420B84401A940461B6E9847B9F82E3E58
:10439000B9F82C1E04EB4402C2EBC2021A4405EB2E
:1043A000850301EB830112B209B24046FEF7E9FD35
:1043B000012386F83533D6F8103340465B699847B9
:1043C000002307F5EF5089F8093E04300DF036FB65
:1043D0002A462146384603B0BDE8F043FFF7DCBE6D
:1043E0000024B6E70424B4E70025BAE70925B8E7B6
:1043F00090F824322DE9F0470446002B45D000F513
:104400008052B2F9E85DB2F9EA8DB2F9EC1DB2F969
:10441000303E002D02DD681898420DDB5B1AD4EDAA
:10442000877AAB42A8BF2B46F1EE677A23EAE373A3
:10443000C4ED877AA2F8E83D04F5EF510027043176
:1044400040F6485AE6194FF0000996F8353373B133
:1044500006F544722046FFF729FE40B14246294640
:104460002046FFF763FF002384F824320DE009F1B2
:104470000109B9F10A0F06F14406E6D107F52A77DA
:104480005745DFD1B8F1000FE8DDBDE8F087000047
:1044900090F800332DE9F74304460BB3D0F804330A
:1044A000D0F8082301339342C0F80433C0F2F880F7
:1044B000D0E9BE520023042AC0F8043300F3B580CB
:1044C0006D004FF42A77D4F8F8320133B5EB430F7F
:1044D00001DA042D75DDD4F8FC320133C4F8FC3266
:1044E00094F82432D3B304F5EF55043504F580571E
:1044F00028460DF0A3FAB7F9EA6DB7F9E88DD4EDC7
:10450000876A07EE906AB8EEE77AD4ED887A37EEDC
:10451000277A07EE908AF8EEE77ABDEEC77A77EE53
:10452000A67A17EE103AFDEEE77A1AB217EE903A35
:10453000284619B2FEF725FD28460DF07FFA2046E1
:10454000FFF756FFB8F1F00F03D8B6B2B6F5A07F6B
:1045500004D9002384F8243287F8093E94F8F43211
:104560002BB1002384F8F4322046FFF786FC4E4D31
:10457000002628688DF8076003F01CFB002800F077
:104580008F804FF0FF33286832460DF1070103F0AA
:10459000E1FA9DF807304C2B53D1D4ED867A9FED8C
:1045A000437A77EEC77AC4ED867A94ED867ADFEDAA
:1045B000407AB4EEE77AF1EE10FA5FDDC4ED867A68
:1045C00063E007FB05464FF0000896F835331BB350
:1045D000D6F8103306F544795B6948469847B6F932
:1045E0001623B6F91413A52A0CDD94F801334BB940
:1045F000012384F801330CF025F803B0BDE8F04343
:10460000FEF754BA0132484612B2FEF7BAFCD6F8A9
:10461000103348465B69984708F10108B8F10A0F62
:1046200006F14406D1D101354DE70135C0E9BE534D
:104630006D00042D7FF754AF80F80033FFF7D8FEEC
:104640004EE7522B06D1D4ED867A9FED187A77EE9D
:10465000877AA8E7422BA8D12046FFF7A7FC642061
:10466000FDF75AF894F82532002B9ED10122C4E9B7
:10467000BE3384F8002384F8253296E7DFED0D7A07
:10468000B4EEE77AF1EE10FA98D404F5F255143549
:10469000284694ED860AFFF7E7FB28460DF0CEF991
:1046A00003B0BDE8F08300BF50340020CDCC4C3EB9
:1046B00000003443000034C337B54FF48072002546
:1046C0004FF6FF738284104A0260C0E90155C0E9C9
:1046D0000355C0E90555C0E90755C38480F8283063
:1046E00001A90446ADF8043009F09FFB074B236095
:1046F0002046C4E90B55C4E90D55C4E90F5584F8AB
:104700002950658503B030BD40760208D06F02089D
:10471000F7B50446FEF770FE374B236000250023F3
:10472000C4F81832C4F81C32C4F82032A4F8245259
:104730003249C82204F50B7020F063FA0223C4E961
:10474000BE55C4E9C23584F8F452A4F80053C4F845
:10475000045304F5ED5604F5447505F52A7728460B
:104760004435FFF7A9FFBD42F9D1AE42F5D130463D
:10477000FFF7A2FF04F5EF5004F580550430FFF772
:104780009BFF4FF480730026A5F84C3E04F5F250D1
:104790001B4BC5F8283EC5F82C6E4FF6FF73C5F8C5
:1047A000306EC5F8346EC5F8386EC5F83C6EC5F885
:1047B000406EC5F8446EC5F8486EC5F8506E01A944
:1047C0001430ADF8043008F0CBF80E4B0E4AC5F8A3
:1047D000E43EC5F8F43E0D4BC5F8E84E2046C5F85A
:1047E000EC2EC5F8F06EC5F8F84EC5F8FC3EC5F8DD
:1047F000006F03B0F0BD00BF5C700208C85602082D
:104800006071020844700208B1480008BF3D00080A
:1048100090F829302DE9F0410446002B41D0438D1A
:10482000828D01339BB2934243853AD39B1A9DB24A
:10483000828E038E866BD21A12B2C38D0021284657
:10484000B047638EE28EE76BD21A0646E38D12B252
:1048500000212846B847638EC218238EF11812B281
:1048600009B22046FCF771FDA38DE18D628D0B44EA
:104870009A4216D3002384F8293063850BF0E2FEB8
:10488000214604300BF003FF206C50B10368DB6855
:10489000984730B1206C036821469B68BDE8F04121
:1048A0001847BDE8F08108B5FFF7B2FF08BD00006A
:1048B000B1F90630B22B70B5B1F904600C4605DDD4
:1048C0000BF0C0FEBDE87040FEF7F0B815331DB226
:1048D00091F829302BB90BF0B5FE214604300BF0CE
:1048E0007FFF00236385636823639623E385074B7B
:1048F000A686C4E90E33012384F82930E36AE586ED
:1049000013B92046FFF784FF70BD00BFEF2A0108EE
:104910002DE9F0432DED028B044683B0FEF7C9FC70
:1049200004F5F2566323143604F58057C4F80C33AB
:104930002046FFF7DDFB4FF0000801A93046ADF837
:10494000048008F0AFF9B7F87A3EADF80030684659
:104950000FF006FEB7F87A3EADF80430054601A820
:104960000FF032FE05EBD5714910C0F1FF02C1F125
:10497000780112B209B23046FEF703FBB7F87A3E6F
:10498000ADF8003068460FF0EBFD00EBD07040F35F
:104990004F0007EE900AB7F87A3EADF8043001A850
:1049A000B8EEE78A0FF010FE07EE900AF8EEE77A0D
:1049B00007F65465C5ED127A85ED118A304608F088
:1049C0001BF81A4BAB65304608F016F804F10409E1
:1049D0009FED170A3046FFF747FA04F5F1553146C7
:1049E000484605F067F808352046FFF783FA1E228F
:1049F00028461421FEF7C5FA2846C721FCF79CFC7F
:104A0000284640F26D11FCF799FC2946484687F884
:104A10004C8E05F04FF828460DF010F8012384F86D
:104A2000F43203B0BDEC028BBDE8F0830080BB45DF
:104A300000000000704704387047704710B510211F
:104A400004461EF02BFE204610BDA0F10400F5E741
:104A500000228260024A026018324260C1607047E0
:104A6000B07002087047000010B5034B03600446A5
:104A7000FEF767FE204610BDD870020810B5044648
:104A8000FFF7F2FF2046DC211EF008FE204610BD95
:104A900010B50446FEF78AFE014B2360204610BD88
:104AA000D8700208FEF74EBE0022026070477047C1
:104AB000F02070474FF4A07070472920FDF716BA18
:104AC0002820FDF713BA08B5FDF7E4F9CA20FDF771
:104AD0000DFAC320FDF7EEF90820FDF7EBF95020A1
:104AE000FDF7E8F9CF20FDF701FA0020FDF7E2F924
:104AF000C120FDF7DFF93020FDF7DCF9ED20FDF7EF
:104B0000F5F96420FDF7D6F90320FDF7D3F912205B
:104B1000FDF7D0F98120FDF7CDF9E820FDF7E6F9A2
:104B20008520FDF7C7F90020FDF7C4F97820FDF7CF
:104B3000C1F9CB20FDF7DAF93920FDF7BBF92C20BC
:104B4000FDF7B8F90020FDF7B5F93420FDF7B2F90B
:104B50000220FDF7AFF9F720FDF7C8F92020FDF797
:104B6000A9F9EA20FDF7C2F90020FDF7A3F900201A
:104B7000FDF7A0F9B120FDF7B9F90020FDF79AF98A
:104B80001B20FDF797F9B620FDF7B0F90A20FDF7D5
:104B900091F9A220FDF78EF9C020FDF7A7F91020AA
:104BA000FDF788F9C120FDF7A1F91020FDF782F982
:104BB000C520FDF79BF94520FDF77CF91520FDF791
:104BC00079F9C720FDF792F99020FDF773F93620A7
:104BD000FDF78CF9C820FDF76DF9F220FDF786F995
:104BE0000020FDF767F9B020FDF780F9C220FDF73E
:104BF00061F9B620FDF77AF90A20FDF75BF9A720E5
:104C0000FDF758F92720FDF755F90420FDF752F973
:104C10002A20FDF76BF90020FDF74CF90020FDF785
:104C200049F90020FDF746F9EF20FDF743F92B2065
:104C3000FDF75CF90020FDF73DF90020FDF73AF99A
:104C40000120FDF737F93F20FDF734F9F620FDF795
:104C50004DF90120FDF72EF90020FDF72BF9062074
:104C6000FDF728F92C20FDF741F9C820FDF78CF954
:104C70002620FDF73BF90120FDF71CF9E020FDF7A8
:104C800035F90F20FDF716F92920FDF713F9242037
:104C9000FDF710F90C20FDF70DF90E20FDF70AF9CC
:104CA0000920FDF707F94E20FDF704F97820FDF7FC
:104CB00001F93C20FDF7FEF80920FDF7FBF8132071
:104CC000FDF7F8F80520FDF7F5F81720FDF7F2F8E5
:104CD0001120FDF7EFF80020FDF7ECF8E120FDF7DB
:104CE00005F90020FDF7E6F81620FDF7E3F81B2094
:104CF000FDF7E0F80420FDF7DDF81120FDF7DAF804
:104D00000720FDF7D7F83120FDF7D4F83320FDF761
:104D1000D1F84220FDF7CEF80520FDF7CBF80C20A6
:104D2000FDF7C8F80A20FDF7C5F82820FDF7C2F8FE
:104D30002F20FDF7BFF80F20FDF7BCF81120FDF77D
:104D4000D5F8C820FDF720F92920FDF7CFF8BDE8F8
:104D500008402C20FDF7CAB808B5FDF79BF80321E1
:104D6000D320FDF7DFF880B208BD10B5C4B202222F
:104D700003212046FDF744F80A20FDF789F8204674
:104D800000220321FDF73CF8BDE810400220FDF7AA
:104D90007FB838B50446E4B2FDF730F8002120466C
:104DA000FDF746F8012105462046FDF741F840EAA7
:104DB000052080B238BD10B5C4B240212046FDF7B1
:104DC00037F8030607D54C212046FDF731F80038A7
:104DD00018BF012010BD01224B212046FDF710F81D
:104DE000204600224B21FDF70BF80020F2E773B5B7
:104DF0000423C4B20E461546D7210DEB030220460C
:104E0000FDF730F8019B1BBA1A0DC3F30B23328058
:104E100020462B8001224B21FCF7F2FF00224B2180
:104E20002046FCF7EDFF02B070BD000010B50A4A45
:104E30001378984204460DD0517888420AD00BB1BD
:104E400041B90123D454FCF7D9FF2046BDE81040F6
:104E5000FFF78BBF10BD00BFC037002010B5C4B234
:104E600009212046FCF7E4FF40F00102D2B22046BF
:104E70000921BDE81040FCF7C3BF10B5C4B2092139
:104E80002046FCF7D5FF092100F0FE022046BDE8D0
:104E90001040FCF7B5BF38B5C4B20D4620460A2114
:104EA000FCF7C6FF40EA0502D2B220460A21BDE85F
:104EB0003840FCF7A5BF10B50446FCF7A0FF20461C
:104EC0001F21FFF7E8FF2046BDE81040FFF7C6BFEF
:104ED00038B5C4B20D4620460A21FCF7A9FF20EAE6
:104EE0000502D2B220460A21BDE83840FCF788BF4F
:104EF00010B50446FFF7C1FF20461F21BDE8104052
:104F0000FFF7E6BF10B5C0B20C460B21FCF790FFCF
:104F1000204010BD1F21FFF7F5BF0A46C0B20B218C
:104F2000FCF76EBF1F21FFF7F8BF38B5C4B20D46BE
:104F300020461721FCF77CFF20EA0502D2B220466A
:104F40001721BDE83840FCF75BBF70B5C4B2064618
:104F500004212046FCF76CFF042100F0FB0205460B
:104F60002046FCF74DFF3046F021FFF7DEFF05F04D
:104F7000F80220460421FCF743FF49222021204665
:104F8000FCF73EFF0220FCF783FF2046012221218F
:104F9000FCF736FF20469A224121FCF731FF2046DC
:104FA00001224A21FCF72CFF204601224B21FCF76D
:104FB00027FF204600224B21FCF722FF204601223A
:104FC0005621FCF71DFF204601225821FCF718FF4F
:104FD000204601224021FCF713FF2046FF220B212F
:104FE000FCF70EFFBDE870400220FCF751BF000047
:104FF000054BD3F8882042F47002C3F888204FF0A4
:1050000000629A60704700BF00ED00E008B50B4BEE
:105010001A6842F400721A601A6842F480621A60D8
:105020001A6842F480721A60032000F02FF8002002
:10503000FDF73AFAFCF7B6FF002008BD003C02403D
:10504000034A044B11681B780B441360704700BF80
:10505000C437002078000020014B1868704700BF5B
:10506000C437002038B50446FFF7F6FF631C1CBFA9
:10507000054B1B78054618BFE418FFF7EDFF431BEF
:10508000A342FAD338BD00BF780000200749CA68A0
:1050900022F4E0620302120403F4E063120C1343EF
:1050A00043F0BF6343F40033CB60704700ED00E092
:1050B000164B30B5DC68C4F30224C4F10703251D88
:1050C000042B28BF0423062D4FF0FF358CBF033C73
:1050D000002405FA03F321EA0303A54022EA0502AE
:1050E000A340002843EA0203ACBF00F16040084A35
:1050F0004FEA0313B8BF00F00F00DBB2AABF00F500
:105100006140135480F8003330BD00BF00ED00E073
:1051100014ED00E0002807DB044A4109012300F0F8
:105120001F00834042F82130704700BF00E100E0DB
:1051300010B5044650B1437903F0FF0213B9027170
:10514000FCF750FF01236371002010BD0120FCE734
:1051500010B5044620B390F8393003F0FF021BB9B4
:1051600080F83820FCF756FF022384F83930236892
:1051700061681A6822F440320A431A605A6BA168C7
:1051800022F007020A435A631A6CE1686FF30D02BA
:105190000A431A6400200123E06384F8393010BD0B
:1051A0000120FCE770477047036870B55E681D68B2
:1051B000F207044614D5E90512D51A6822F4807264
:1051C0001A60C26B42F00102C26301229A6004239A
:1051D00080F83930002380F83830436903B19847AC
:1051E000B20616D5AB0414D523681A6822F400520F
:1051F0001A6020229A60E36B43F00203E363042306
:1052000084F83930002384F8383063690BB12046C4
:105210009847300716D5290514D523681A6822F453
:1052200000621A6008229A60E36B43F00403E363B0
:10523000042384F83930002384F8383063690BB1D3
:105240002046984772070BD56B0509D523681A6865
:1052500022F480621A6004229A602046FFF7A2FFBF
:10526000B00714D5A90512D523681A6822F4007274
:105270001A6002229A60E36BE363012384F83930F9
:10528000002384F8383023690BB120469847F20692
:1052900013D5EB0411D523681A6822F480521A60E2
:1052A00010229A60E36BE363012384F83930002312
:1052B00084F838302046FFF776FF70BDF0B590F8DF
:1052C0003820012A03464FF002002BD0012283F838
:1052D000382083F8390003EB0112D2E90740556A00
:1052E000174F44EA0040093C012C9CBF05F07F4267
:1052F00010434FEA01161A6888BF40EA056091B969
:10530000516A394001435162012C9969916103D876
:10531000596A21F07F4191620122002083F83920EF
:1053200083F83800F0BDD16939400143D161991942
:10533000012C896911619CBF25F07F451562EBE75F
:10534000F0FFFC002DE9F74FDFF8BC916C4A002319
:105350000D6801249C4004EA0506AC4340F0B78088
:105360004D68032705F003044FEA430807FA08FCD9
:10537000671E012F6FEA0C0C34D8876807EA0C0E01
:10538000CF6807FA08F747EA0E078760476827EAF9
:10539000060EC5F300179F4047EA0E074760C7682F
:1053A00007EA0C0E8F6807FA08F747EA0E07022C87
:1053B000C76019D14FEAD30A00EB8A0A03F0070B42
:1053C000DAF820704FEA8B0B4FF00F0E0EFA0BFE3F
:1053D00027EA0E0E0F6907FA0BF747EA0E07CAF81D
:1053E000207001E0032CDAD1076804FA08F407EA18
:1053F0000C073C4315F4403F046068D0002401943E
:10540000D9F8444044F48044C9F84440D9F84440B1
:1054100023F0030707F1804704F4804407F59C3725
:10542000019403F0030C019CD7F808E04FEA8C0CC0
:105430000F2404FA0CF42EEA040E324CA0424DD094
:1054400004F58064A0424BD004F58064A04249D0AA
:1054500004F58064A04247D004F58064A04245D0A2
:1054600004F58064A04243D004F58064A04241D09A
:1054700004F58064A0423FD004F58064A0423DD092
:1054800004F58064A04214BF0A24092404FA0CF431
:1054900044EA0E04BC609468F74315F4801F0CBF07
:1054A0003C4034439460D46815F4001F0CBF3C406A
:1054B0003443D460546815F4003F0CBF3C4034437F
:1054C00054601468ED0354BF3C403443146001330E
:1054D000102B7FF43DAF03B0BDE8F08F0024D5E77B
:1054E0000124D3E70224D1E70324CFE70424CDE746
:1054F0000524CBE70624C9E70724C7E70824C5E746
:10550000003C01400000024000380240036919429B
:1055100014BF0120002070470AB18161704709045F
:10552000FBE7436901EA030221EA030141EA024180
:105530008161704701684B6913F480634FF000028A
:1055400010D06FF480634B612023026380F83D30FC
:1055500080F83E20036C80F83C2043F00403036491
:1055600001207047184670472DE9F84606460F4659
:1055700091461D464FEA114A3368BAF1010F0CBF3C
:105580005C699C6927EA0404A4B2B4FA84F464094F
:10559000A14501D0002025E06A1CEED0FFF75CFD9C
:1055A000089BC01AA84201D8002DE5D13368BAF192
:1055B000010F0CBF5B699B6927EA03039BB2B3FA37
:1055C00083F35B099945D7D100232022336386F802
:1055D0003D2086F83E30326C86F83C3042F02002A6
:1055E00032640120BDE8F8862DE9F04104460F46FB
:1055F000164698462568686927EA000080B2C0B15F
:105600006B695A0517D52B6843F400732B606FF450
:1056100080636B6120220023236384F83D2084F89B
:105620003E30236C43F004032364002384F83C30B1
:105630000120BDE8F081731CDDD0FFF70DFDA0EB6C
:105640000800B04201D8002ED4D123685A6927EA55
:10565000020292B2002ACDD000232022236384F8D4
:105660003D2084F83E30236C1343DDE770B50446DB
:105670000D46164623685B691B0601D500201EE017
:105680002046FFF757FFC8B96A1CF3D0FFF7E4FCC8
:10569000801BA84201D8002DECD123685B6913F070
:1056A0008003E7D12022236384F83D2084F83E3034
:1056B000226C84F83C3042F020022264012070BD4C
:1056C0002DE9F0431546026885B0DDE90C7899466E
:1056D000136843F4807313600E463B46CDF8008098
:1056E00000224FF001110446FFF73EFF236838B156
:1056F0001B68DB0502D54FF400732364032620E00A
:1057000006F0FE061E611A4943463A462046FFF758
:105710006BFFA8B9236803905A6903929B690393AE
:10572000424639462046039BFFF7A0FF064660B17C
:10573000236C042B01BF2268136843F400731360C9
:105740000126304605B0BDE8F083B9F1010F2368AA
:1057500002D1EDB21D61F4E72A0A1A6139464246C8
:105760002046FFF783FF0028E2D12368F1E700BF5E
:10577000020001002DE9FF479A46036815461A68A2
:1057800042F480621A601A68DDE90C7842F4807293
:105790001A600E463B46CDF8008000224FF0011102
:1057A0000446FFF7E1FE236838B11B68DB0544BF00
:1057B0004FF400732364032021E05FFA86F906F0BA
:1057C000FE061E612B4943463A462046FFF70CFF72
:1057D000A0B9236803905A6903929B6903934246D8
:1057E00039462046039BFFF741FF58B1236C042B39
:1057F00001BF2268136843F400731360012004B0F2
:10580000BDE8F087BAF1010F23681AD1EDB2424624
:105810001D6139462046FFF729FF02460028E5D1E1
:1058200021680B6843F480730B602046CDF800803C
:105830003B464FF00111FFF797FE226860B11368F5
:10584000B4E72A0A1A61394642462046FFF70EFF9E
:105850000028CBD12368D9E749F00103136105493A
:1058600043463A462046FFF7BFFE003818BF0120E6
:10587000C5E700BF0200010070B504460D4616469C
:1058800023685B695B0701D500201EE02046FFF717
:1058900051FEC8B96A1CF3D0FFF7DEFB801BA8429B
:1058A00001D8002DECD123685B6913F00403E7D124
:1058B0002022236384F83D2084F83E30226C84F853
:1058C0003C3042F020022264012070BD70B50446D5
:1058D0000D46164621684B6913F0400301D00020A5
:1058E00011E04A69D2060FD56FF010024A612022FA
:1058F000236384F83D2084F83E30236C2364002326
:1059000084F83C30012070BDFFF7A6FB801BA84245
:1059100001D8002DDED123685B6913F04003D9D193
:105920002022236384F83D2084F83E30236C134307
:10593000E4E7000070B5044608B9012070BD90F896
:105940003D3003F0FF021BB980F83C20FCF784FBDC
:10595000242384F83D3023681A6822F001021A607B
:105960001A6842F400421A601A6822F400421A606F
:1059700000F0A8FE3F4B65689D4294BF3E4B3F4BF5
:1059800098428CBF00230123002BD6D12268394EC8
:1059900051683B4BB0FBF3F321F03F011943B54293
:1059A000516088BF4FF49676116A88BF734321F027
:1059B0003F0184BF4FF47A76B3FBF6F301330B4318
:1059C0001362D169431E2B4821F44F41854221F0D7
:1059D000FF0132D86D0040F6FC70B3FBF5F30133E4
:1059E000034242D0C3F30B031943D161D4E907301A
:1059F0001168034321F0C0010B4313609168D4E99F
:105A0000030321F40341034321F0FF010B4393609F
:105A1000D4E90530D168034321F0FF010B43D36083
:105A2000136843F00103136000202023206484F8EE
:105A30003D30206384F83E0080E7A06850B905EB54
:105A40004505B3FBF5F30133C3F30B037BB143F41B
:105A50000043C9E719206843B3FBF0F30133C3F3F4
:105A60000B0323B143F44043BEE70423BCE7012307
:105A7000BAE700BFA08601007F841E00FF083D003A
:105A800040420F002DE9F743044699460C9E0F460D
:105A90009046FFF7E1FA94F83D30202B054603D0FD
:105AA000022003B0BDE8F08300903C491923012295
:105AB0002046FFF759FD0028F2D194F83C30012B25
:105AC000EED02068012384F83C300368D9075EBF1C
:105AD000036843F001030360036823F40063036079
