:020000040800F2
:10000000000003205D060008492500084B25000874
:100010004D2500084F25000851250008000000006C
:1000200000000000000000000000000081800008C7
:100030005325000800000000118100089379000892
:10004000AD060008AD060008AD060008AD060008C4
:10005000AD060008AD060008AD060008AD060008B4
:10006000AD060008AD060008AD060008AD060008A4
:10007000AD060008AD060008AD060008AD06000894
:10008000AD060008AD060008AD060008AD06000884
:10009000AD060008AD060008AD060008AD06000874
:1000A000AD060008AD060008AD060008AD06000864
:1000B000AD060008AD060008AD060008AD06000854
:1000C000AD060008AD060008AD060008AD06000844
:1000D000AD060008AD060008AD060008AD06000834
:1000E000AD060008AD060008AD060008AD06000824
:1000F000AD060008AD060008AD060008AD06000814
:10010000AD060008AD060008AD060008AD06000803
:10011000AD060008AD06000855250008AD0600082C
:10012000AD060008AD060008AD060008AD060008E3
:10013000AD060008AD060008AD060008AD060008D3
:10014000AD060008AD060008AD060008AD060008C3
:10015000AD060008AD060008AD060008AD060008B3
:10016000AD060008AD060008AD060008AD060008A3
:10017000AD060008AD060008AD060008000000004E
:10018000AD060008AD060008AD060008AD06000883
:10019000AD060008AD060008AD060008AD06000873
:0C01A00061250008AD0600086D25000870
:1001B00010B5054C237833B9044B13B10448AFF3A1
:1001C00000800123237010BD800300200000000088
:1001D0000058020808B5034B1BB103490348AFF3AD
:1001E000008008BD000000008403002000580208C1
:1001F00001F0FF01102A2BDB10F0070F08D010F8D8
:10020000013B013A8B422DD010F0070F42B3F6D1DB
:10021000F0B441EA012141EA014122F007047FF0F4
:1002200000070023F0E80256083C85EA010586EA4B
:10023000010685FA47F5A3FA87F586FA47F6A5FA87
:1002400087F68EB9EED1F0BC01F0FF0102F0070293
:1002500032B110F8013B013A83EA010313B1F8D13E
:100260000020704701387047002D06BF354603381F
:10027000073815F0010F07D1013015F4807F02BF58
:10028000013015F4C03F0130F0BC0138704700BFA9
:100290007BB972B90029BEBF00204FF0004106E0D3
:1002A00008BF00281CBF6FF000414FF0FF3000F086
:1002B000D3B9ADF1080C6DE904CE002909DB002BA0
:1002C0001ADB00F04DF8DDF804E0DDE9022304B0AC
:1002D0007047404261EB4101002B1BDB00F040F80E
:1002E000DDF804E0DDE9022304B0404261EB4101A6
:1002F000524263EB43037047524263EB430300F007
:100300002FF8DDF804E0DDE9022304B0404261EBA0
:1003100041017047524263EB430300F021F8DDF8DE
:1003200004E0DDE9022304B0524263EB430370476B
:1003300053B94AB9002908BF00281CBF4FF0FF314C
:100340004FF0FF3000F088B9ADF1080C6DE904CE34
:1003500000F006F8DDF804E0DDE9022304B07047A0
:100360002DE9F047089D8E4604468846002B4AD169
:100370008A42174662D9B2FA82F64EB1C6F120031C
:1003800001FA06F820FA03F3B74043EA0808B4403C
:100390004FEA174E1FFA87FCB8FBFEF1230C0EFB49
:1003A000118843EA084301FB0CF29A4209D9FB1871
:1003B00001F1FF3080F0EA809A4240F2E780023992
:1003C0003B449A1AA3B2B2FBFEF00EFB102243EAA2
:1003D000024300FB0CFC9C4509D9FB1800F1FF32DD
:1003E00080F0D6809C4540F2D3803B44023840EAFE
:1003F0000140A3EB0C0300211DB1F3400022C5E92D
:100400000032BDE8F0878B4205D90DB1C5E9000186
:1004100000210846F5E7B3FA83F1002946D1734578
:1004200002D3824200F20581841A6EEB030201209E
:100430009046002DE5D0C5E90048E2E7002A00F02B
:100440009080B2FA82F6002E40F0A4808A1A030C43
:100450004FEA174E80B2BCB20121B2FBFEFC0EFB8C
:100460001C2243EA024304FB0CF29A4207D9FB1810
:100470000CF1FF3802D29A4200F2E080C4469B1A87
:10048000B3FBFEF20EFB123340EA034302FB04F41B
:100490009C4207D9FB1802F1FF3002D29C4200F2C5
:1004A000CA8002461B1B42EA0C40A5E7C1F12006A8
:1004B0008B4022FA06F71F430EFA01F420FA06F3E6
:1004C0002EFA06FE4FEA1749234300FA01F81FFAF5
:1004D00087FCBEFBF9F01C0C09FB10EE44EA0E444D
:1004E00000FB0CFEA64502FA01F209D93C1900F105
:1004F000FF3A80F09C80A64540F2998002383C4447
:10050000A4EB0E041FFA83FEB4FBF9F309FB1344BA
:100510004EEA044403FB0CFCA44508D93C1903F142
:10052000FF3E80F08280A4457FD9023B3C4443EAF1
:100530000040A4EB0C04A0FB02EC64457346E146CA
:1005400062D35FD05DB1B8EB030264EB090404FA37
:1005500006F622FA01F31E43CC40C5E900640021EF
:100560004FE7B1FBF2FC010C41EA0E4180B240EAD8
:1005700001423B4638463C46B846BE462026B1FBC3
:10058000F7F1A2EB080241EA0C4166E7014618E7E1
:1005900010462CE7C6F120022EFA02F3B740B14014
:1005A00020FA02F24FEA174E0A43B3FBFEF8BCB240
:1005B0000EFB1833110C41EA034108FB04F9B0406B
:1005C00089454FEA104380B23ED9791808F1FF3CC3
:1005D00001D289451FD8A1EB0901B1FBFEF909FB46
:1005E00004F80EFB191192B242EA0142424529D2A7
:1005F000BA1809F1FF31C4D24245C2D2A9F10201B1
:100600003A44BEE7F0459DD2BEEB02036CEB070C0B
:100610000138E14696E7A7EB09094944A8F1020C25
:10062000B1FBFEF909FB04F8DBE773467FE75046B0
:1006300066E70846FDE63B44023A33E7ACF1020CBC
:100640003B441CE749469CE7A1EB0901C446B1FBCA
:10065000FEF909FB04F8C4E7704700BFDFF834D0A7
:10066000002103E00C4B5B58435004310B480C4B0A
:1006700042189A42F6D30B4A02E0002342F8043BA8
:10068000094B9A42F9D304F06FFD24F04BFB01F0C3
:1006900043F970470000032080580D080000002037
:1006A0006401002080030020FC520120FEE7704717
:1006B00008B500F0BDFDBDE8084000F03FBD00F00A
:1006C000B9BD704710B50421044623F09FF82046B9
:1006D00010BD000038B50C4B0C4C18800C4B822020
:1006E00019806368984740F6110398420AD1094D72
:1006F00023682C60822098472B688220DB6898470B
:10070000002038BD0120FCE7A60300204C0000209B
:10071000A4030020A80300204FF4A071F020FFF7ED
:10072000D9BF0000F7B5394D2B6804461B698220FC
:100730009847208000284ED02B680DF106025B6997
:1007400001A982209847324B1B78002B4BD0BDF873
:10075000062040F674639A423FD9ADF80630BDF8E2
:1007600006209B1A9BB20A2B42D90B22B3FBF2F351
:10077000284A1288934201D9013A93B2BDF8042065
:10078000254840F6B8318A4234D8C2F571620E323B
:10079000016892B20F25B2FBF5F2204D2D88AA42D6
:1007A00084BF05F1FF35AAB28A4215468EB22AD916
:1007B000921B91B21A4E3768BB42BAB28CBF9A1ADA
:1007C000D21A92B211440529C4BF05603360036890
:1007D00063803368A38003B0F0BDB32A9CBFB4220A
:1007E000ADF80620BBE7BDF80630A3F5B473B9E752
:1007F0000023C3E7C2F56D62083292B20E2A016887
:10080000C8D800252A46891A89B2D3E7A803002050
:1008100054340020A4030020A0030020A6030020DD
:100820009C03002037B568460D461446FFF77AFF53
:10083000BDF8000030B1BDF802302B60BDF80430C7
:100840002360012003B030BD032821D8DFE800F089
:10085000020B12190F4B1A68B2FA82F252090421E4
:100860000D4804F015BF0B4B5A68B2FA82F25209D8
:100870000821F5E7074B9A68B2FA82F25209102173
:10088000EEE7044BDA68B2FA82F252092021E7E778
:10089000704700BFAC03002000100240032821D89D
:1008A000DFE800F0020B12190F4B1A68003A18BF6C
:1008B000012204210D4804F0EBBE0B4B5A68003AAC
:1008C00018BF01220821F5E7074B9A68003A18BFC4
:1008D00001221021EEE7044BDA68003A18BF01222A
:1008E0002021E7E7704700BFAC0300200010024062
:1008F00003280DD8DFE800F00206080A04210548A5
:1009000004F0CBBE0821FAE71021F8E72021F6E732
:10091000704700BF0010024008B5032811D8DFE877
:1009200000F0020A0C0E0421074804F0ABFE431E3F
:100930005842584108BD0821F6E71021F4E720216C
:10094000F2E70020F3E700BF0010024070B5084D49
:1009500000240126E0B2FFF7DFFF18B12B68012B5E
:1009600018BF2E600134052C05F10405F2D170BDCD
:10097000AC030020012380F8781080F879307047AC
:100980007047002070470000034B4164003918BFD6
:1009900001211970704700BFBB450120704700203E
:1009A0007047836B0BB10846184770474FF6FF70CE
:1009B0007047406803689B691847704770477047E5
:1009C0007047704710B5044600F04AFD236803499C
:1009D000D3F890302046BDE810401847000000D002
:1009E00008B503680446D3F8843098472368204646
:1009F000DB6F984700F0ECF8236820465B6F984760
:100A0000292001F073FA00F0E3F8236820465B6FB9
:100A10009847F8E710B504460AF06CF923682046B9
:100A2000D3F8BC30BDE81040184700F0FDBC00F022
:100A300001BD00F033BD00F0D3BC00F043BD00F0B9
:100A40004BBD00F0D7BC09F083BB10B58421044630
:100A500022F0DCFE204610BD10B590F8341090F85E
:100A600078400C4B8C421A7809D03AB90A4A0B49A3
:100A70001488088810800C8001221A7010BD002A8A
:100A8000FCD0054A05491488088810800C80002293
:100A9000F3E700BFB4450120B0450120B245012075
:100AA00070B50D46194635B9094B0A4A0A4840F255
:100AB000FF2123F029FEC0E90F52084B003A18BF6E
:100AC00001221A700368BDE87040D3F890301847CF
:100AD0005859020890590208DE590208BA45012007
:100AE00008B5094B1B888B4203D8084B1B889342DF
:100AF00005D9074B074A0848A32123F005FE074BF9
:100B00001980074B1A8008BDB0450120B24501206D
:100B1000235A0208865A0208DE590208B645012007
:100B2000B8450120034690F87A0018B15868036868
:100B30001B68184770470000012108B500220846CD
:100B400006F0B0FF0A4B186028B90A4B0A4A282160
:100B50000A4823F0D9FD00220421012007F04AF8B9
:100B6000074B186018B9074B034A2C21F0E708BD62
:100B7000C0030020C95A0208125B0208415B020848
:100B8000BC030020915B0208024B4FF0FF31186854
:100B900006F0D2BFC0030020014B186806F0F8BF72
:100BA000C0030020024B0021186806F0C5BF00BF3B
:100BB000C0030020FFF7F0BF03480449006800238A
:100BC0001A4607F052B800BFBC0300200400002002
:100BD00013B5084C00231A4601A9206807F076F8DF
:100BE00020684FF0FF33002201A907F06FF802B030
:100BF00010BD00BFBC03002003685B6C18470120D8
:100C0000704703689B6A1847FEE740F2EF30704771
:100C1000054B0360054B4FF08062C3F88820BFF39B
:100C20004F8FBFF36F8F70475069020800E100E0FB
:100C300010B504464FF45A61FFF7EAFF204622F050
:100C4000E5FD204610BD000082B0002301930E4B4D
:100C50001A6B42F400021A631A6B02F4000201924A
:100C6000019A1A6942F400021A611A6922F4000218
:100C70001A61064B064A1A61064A5A61064B4FF042
:100C800080629A6002B0704700380240443600200B
:100C9000E90E0008090C000800E100E008B50A2888
:100CA00009D8DFE800F006100E0808080810101038
:100CB0001000022008BD054B054A0648902123F08C
:100CC00023FD0020F6E70120F4E700BFD35B020814
:100CD000EE5B0208395C020838B50C46887FFFF7E6
:100CE000DDFFA58AE28A164B2169586342EA054274
:100CF0005A64628BD963521B1A642568082D0ED181
:100D00009A611A615862207F0E4A42EA0062DA61F3
:100D1000E2681A620C4A5961D9601A6038BD002233
:100D2000D8611A61E1680A0A480902F4784200F4BD
:100D3000FC600243C1F3C4010A439A63034AECE72F
:100D400000B002400900010001230200012303005A
:100D500008B50B280BD8DFE800F00612100A0A0AC3
:100D60000A0808080808022008BD0520FCE7054B12
:100D7000054A06486F2123F0C7FC0020F4E7012054
:100D8000F2E700BFD35B0208875C0208395C020807
:100D90002DE9F04191F81D800C464046FFF7D8FF41
:100DA000A77F05463846FFF7D3FF06463846FFF7CC
:100DB00075FFA18A628B444B521A1A649A61228B86
:100DC000521A1A61E28A586342EA01425A6421695E
:100DD0006268D963DA602068802828D0227F0FD823
:100DE000202867D0402865D004281AD0364B45EA21
:100DF000026545F40035B845DD6161D0334A44E011
:100E0000B0F5807F04D0B0F5007FEFD1304800E02E
:100E1000304840EA0262DA61E2681A625E62596151
:100E200032E045EA026242F40032DA61F6E7A06895
:100E3000021DDA62227F45EA026545F40035DD6174
:100E40005E625961017841B1012921D0224B234AC8
:100E500023484FF48D7123F057FCDA69418822F45E
:100E60007F42013922F0100242EA0122DA610121B7
:100E7000154BDA6942F02002DA61DA699206FCD495
:100E800010229A600029B9D0164A1A60BDE8F08194
:100E9000B2F1FF01DA69408822F47F4200F1FF30AD
:100EA00022F0100242EA002242F0100218BF012193
:100EB000DA61DDE745EA0262034B42F40032B4E74F
:100EC00042F20132E1E700BF00B00240012301001D
:100ED000090002000A000200D15C0208EB5C020873
:100EE000395C020801230200024B1B685868036842
:100EF0005B691847BC45012070B5044625460A4B7E
:100F00000C30002660602672667245F8203B602235
:100F100029460AF045F804F55A63EE6024359D42EF
:100F2000FBD1204670BD00BF50690208034B1A6810
:100F3000D207FCD423229A60704700BF00B0024061
:100F40007047000030B50F4C2568ED07FCD4232511
:100F50000904A56041F001010225FF2B656361646E
:100F6000E0630AD00849656241EA0363E361074B25
:100F700022626061E060236030BDE561039BA36392
:100F8000034BF8E700B00240090001000100020035
:100F90000100030030B50E4C2568ED07FCD4232575
:100FA0001204A56042F001020225FF2B6563626412
:100FB000E063E16008D01B0643F00213E361054BD8
:100FC00065626061236030BD034BE3610123F9E793
:100FD00000B0024001000200020002FF30B50B4CDD
:100FE0002568ED07FCD4232512041B06A56043F4F5
:100FF0000033022542F0010265636264E063E16050
:10100000E361034B65626061236030BD00B0024064
:1010100001000200012070474020704700EB811062
:101020000830704700EB811008307047012070478E
:1010300041F6FC60704741F6FC6303FB0100083099
:10104000704741F6FC6303FB010008307047012044
:1010500070471020704700EB01100830704700EB1C
:10106000011008307047084601F0EEBC10B5034B84
:101070000360044608F0C1FD204610BD086A02085E
:1010800010B50446FFF7F2FF2046482122F0BEFBD0
:10109000204610BD10B5034B0360044608F0ADFDBB
:1010A000204610BDD469020810B50446FFF7F2FFD0
:1010B000204641F6047122F0A9FB204610BD000035
:1010C00010B5034B0360044608F097FD204610BDA1
:1010D000A069020810B50446FFF7F2FF2046182168
:1010E00022F094FB204610BD10B5094B0360044666
:1010F00000F5F9501030FFF7B9FF04F12C00FFF7AD
:10110000C9FF04F11400FFF7DBFF204610BD00BF4C
:101110003C6A020808B50248FFF7E6FF08BD00BFB9
:101120009C12002010B50446FFF7DEFF204642F275
:10113000DC0122F06BFB204610BD00002DE9F341DD
:1011400001F08EFA054601F08FFA0024014623468D
:1011500028462246009413F0A7FA274B274A1A6024
:10116000204602F045FD264D264B274A27489A6027
:1011700013F002FA2B68BFF35B8FDB0736D42846E7
:1011800022F046FB90B3224C224B234F236004F500
:10119000FC5604F1140004F12C086060C4F80880C7
:1011A000E760266108F02AFD1C4B6361404608F0A9
:1011B00025FD1B4BE362384608F020FD04F5805303
:1011C00003F67870174AC3F8302F03F029FD224642
:1011D000A6F10801304602F089FD304601F034FCEA
:1011E000114823F0AFFA284622F01EFB0F4802B048
:1011F000BDE8F041FFF7E6BB20460120480400208F
:1012000098120020680400204C04002008000020F0
:101210009C1200203C6A0208CC310020A069020820
:10122000D4690208086A020815110008C4030020E6
:10123000704700000148FFF7D3BB00BFC403002084
:1012400070B5264E264C274D274B23603046FFF7BE
:1012500053FE284618F02EFB244810F05DFD244B69
:101260002448DC6000224FF48071C3E91212224945
:101270001A86C3E91A12214983F85820C3E91E01CE
:101280001F49C3F880101F491F480B60F021C3E9B4
:101290000422C3E90622C3E90822C3E90A22C3E9FA
:1012A0000E22C3E91022C3E91422C3E917225A66A9
:1012B00083F870205A67C3E90165018013480180F3
:1012C00013484FF4A07101801248018012490A703E
:1012D000012283F83420114A1A6070BDF404002002
:1012E0009412002068040020485902084C04002091
:1012F000C4030020000001010100000100045000AF
:101300001A001400BC450120B0450120B64501205B
:10131000B2450120B8450120B445012064680208A7
:101320000148FFF775BC00BFF4040020002070479F
:1013300081807047C180704701817047418170474B
:101340007047704770477047704710B4C48803688F
:10135000121B84885B6D091B12B25DF8044B09B245
:1013600018474FF6FF7383814FF0FF330362136812
:10137000C36110607047002070478B888380012014
:101380007047704780F82610704790F82600704725
:1013900010B50022B1F90840B1F90A10028042806C
:1013A0008480C18010BD0022028042808280C28081
:1013B00070470177704780ED080A704780F8241065
:1013C000704780F8251070470120704798307047AB
:1013D0008C3070478430704770477047704700000A
:1013E000034B902283F85A2383F85823704700BF99
:1013F00000E100E0094A0A49D3680A48C3F30A0336
:10140000013B9BB20B801169C1F30A0101390180D4
:101410001364536B43F0010353637047006801404A
:101420007A33002078330020014BD3F8AC007047AA
:1014300000680140024B0122C3F8AC105A627047A9
:101440000068014010B52C21044622F0DFF9204647
:1014500010BD10B5BC21044622F0D8F9204610BDBD
:1014600070B5044608F0C9FE23689D6E0FF0A2F91E
:1014700001462046A8472368054AD3F88C502046E9
:10148000AC460023BDE87040A2F51631604700BFAE
:1014900000B004D008F098BE08F0A2BE08F05EBE0E
:1014A00008F0CDBF90F8252012B103685B6918479A
:1014B000704790F825201AB190F8242002B11860E6
:1014C00070470000034B4FF080629A604FF08072CB
:1014D0009A60704700E100E0084B4FF08062C3F86B
:1014E0008820BFF34F8FBFF36F8F4FF08072C3F828
:1014F0008820BFF34F8FBFF36F8F704700E100E08C
:1015000070B50023124E8380124B0360336893F84A
:10151000582005460AB1D86C00B998680368DB6AA0
:1015200098473368B0FA80F4D86C640930B1036826
:10153000DB6A9847002808BF44F001042CB9064B29
:10154000064A07482C2123F0DFF8284670BD00BF6B
:10155000BC450120506A0208295D0208875D020827
:10156000C05D020870B5254E3568BFF35B8F15F07E
:10157000010540D1304622F04BF900283BD0204CE9
:10158000204B256104F13400C4E90035C4E902555B
:10159000E584A562A58510F0A4FE04F158000BF0C7
:1015A000B3F9194BA3652046184B40F8843BFFF76D
:1015B000A7FF174BC4F884302433C4F88C304FF4A1
:1015C000C803C4E928350023C4F8AC30C4F8B030EF
:1015D000C4F8B430C4F8B8300E480F4BC4F890507B
:1015E000C4F89C50C4F8A850C4F8983023F0AAF866
:1015F000304622F019F9024870BD00BF7C3300204C
:1016000080330020D4730208706A0208E86A020876
:1016100088730208DD1300086873020838B5184C97
:1016200023685BB3174B184A1B6C11888B4216D189
:10163000164B198804F034FE236893F86A200025BD
:10164000013283F86A2083F87C50FFF7B5FA2068EE
:1016500009F050FB2846BDE83840FFF7F5B804F024
:101660001FFE2468236820461B6A9847012384F8DC
:101670007C300020BDE83840FFF710B938BD00BF0E
:10168000BC450120006801407A33002078330020F7
:1016900007B50D4D0D4C286800224FF0FF3301A90E
:1016A00006F014FB02460028F5D18021204603F005
:1016B000EFFFBDF8040003F091FD012280212046D8
:1016C00003F0E6FFE7E700BF3C34002000000240E3
:1016D00000B500228BB00221082006F08BFA0B4BDC
:1016E00020221860002102A823F015FA084B01936C
:1016F0004FF400720823CDE90623002101AA054812
:1017000006F080F90BB05DF804FB00BF3C3400200C
:10171000225E02089116000807B5ADF804000548DE
:1017200000231A4601A9006806F09FFA03B05DF88D
:1017300004FB00BF3C34002007B5064BADF80600A3
:101740001B68054801220DF1060105F0A5FB03B059
:101750005DF804FB0C000020E034002007B50D4DBF
:101760000D4C286800224FF0FF3301A906F0AEFAB5
:1017700002460028F5D18021204603F089FFBDF8FC
:10178000040003F02BFD01228021204603F080FF9E
:10179000E7E700BF443400200000024007B50D23F6
:1017A0008DF804008DF8053003220A2301A90448AE
:1017B0008DF8063006F007F803B05DF804FB00BFB3
:1017C000983400202DE9F74F0127DFF8A8A0DFF8B3
:1017D000A880B946BB461021504603F053FF202194
:1017E0000446504603F04EFF04210546204803F00E
:1017F00049FF06468CB9BBF1010F0ED14FF04C0BDF
:10180000D8F800008DF807B0234622460DF10701F5
:1018100006F02BFA5846FFF7C1FF8DB9B9F1010F59
:101820000ED14FF05209D8F800008DF807902B46E2
:101830002A460DF1070106F018FA4846FFF7AEFFF9
:101840007EB9012F0DD14227D8F800008DF807701E
:10185000334632460DF1070106F007FA3846FFF726
:101860009DFF1E2006F012F93746A946A346B2E7AF
:1018700000000240000802404C34002030B595B012
:10188000102200210AA823F046F91422002103A8FF
:1018900023F041F900241E4B01941A6C42F080524F
:1018A0001A641B6C03F080530193019B194B029443
:1018B0001A6842F440421A601B6803F440430293E2
:1018C0000122029B4FF48033CDE9082302254FF417
:1018D00080030421CDE90E53B423CDE9101308A8E9
:1018E00008231393129504F033FD04F0F7FC0F2343
:1018F000CDE903354FF4A0504FF48053CDE90603F2
:10190000052103A8059404F0FFFE15B030BD00BF0B
:10191000003802400070004080B59AB003F032FCFD
:10192000FFF7D6FEFFF7AAFF142200210DA823F02F
:10193000F2F80024C74B00941A6BC748DFF85483B1
:10194000DFF8549342F010021A631A6B02F010028F
:101950000092009A01941A6B42F020021A631A6BEB
:1019600002F020020192019A02941A6B42F0800266
:101970001A631A6B02F080020292029A03941A6BA5
:1019800042F004021A631A6B02F004020392039AF3
:1019900004941A6B42F001021A631A6B02F00102FE
:1019A0000492049A05941A6B42F002021A631A6BAD
:1019B00002F002020592059A06941A6B42F0400268
:1019C0001A631A6B02F040020692069A07941A6B89
:1019D00042F008021A631B6B03F0080322460793C8
:1019E0003C21079B03F054FE9C480122022103F096
:1019F0004FFE22469948042103F04AFE98480122EE
:101A0000802103F045FE224696484FF4405103F0F2
:101A10003FFE01263C23CDE90D368F480F9403236A
:101A20000DA90227109303F049FD8C480DA9CDE9BB
:101A30000D760425CDE90F4403F040FD87480DA93C
:101A4000CDE90D56CDE90F4703F038FD2423844836
:101A50000F960DA9CDE90D3403F030FD80238048A9
:101A60000DA9CDE90D36CDE90F4403F027FD302354
:101A70007A480F960DA9CDE90D3403F01FFD4FF400
:101A8000405378480DA9CDE90D36CDE90F4703F055
:101A900015FD0DA974480F96CDE90D5403F00EFD08
:101AA0007248734B734D036003F0FEFB724B2C6264
:101AB000C5E9008328464FF48043C5E90434C5E9ED
:101AC0000244C5E9064403F0F1FF1021284604F062
:101AD00035FA21462846694D04F04FFA4FF48273D7
:101AE000C5E900934FF4007A1823C5E906A32846F8
:101AF0000A23C5E90244C5E90444C5E90844AC62C7
:101B0000EB6205F06DF98F232246394653488DF874
:101B100024308DF8344003F0BBFD32464FF47A7325
:101B200009A9284605F0B8F94FF47A7332460DA991
:101B3000284605F05DFB324639464848504D03F0D3
:101B4000A7FD9DF83430D32B04BF4E4B1E704E4B77
:101B50000126C5E90036102240230024C5E90423EC
:101B60004FF4C073C5E906344FF40063C5E9083487
:101B70004FF4005302274FF00409AB624FF0030A01
:101B800007230DA92846CDE90D73CDE90F934FF03A
:101B90000808C5E90249CDE911A7139705F004F833
:101BA0004FF6FF7209A92846CDE90A8608940996DE
:101BB0000C9405F019F8304603F010FB4FF6FF7255
:101BC00009A92846CDE90978CDE90B6405F00CF8A0
:101BD0004FF6FF7209A92846CDE909A8CDE90B9473
:101BE00005F002F84FF40C730893089B0C934FF622
:101BF000FF7209A92846CDE909980B9604F0F4FF75
:101C000040F26A51284605F00DF834220DEB02002F
:101C1000214622F080FF1D4D1D4B2C61C5E900348B
:101C20000923C5E905361D23C5E9073A40F20D1120
:101C300040F24313C5E9091340F2171040F247136D
:101C4000C5E90B032846C5E90244AC8685F8364051
:101C500024E000BF003802400010024000080240AB
:101C600000000240000C02400018024084360020B0
:101C700000300240F0350020A0860100E034002052
:101C80006434002054340020400100A04835002076
:101C900000680140005C00400050014004F008FA78
:101CA000FF214FF4806CF022CDE912140521CDE91B
:101CB00014C14FF4A0730DA9CDE90E24CDE916424D
:101CC00028462246384D1893CDE910370D94ADF8CB
:101CD00064408DF8664004F0B6FA344B2B601B6804
:101CE00098472B68324DDB689847324B2846C5E948
:101CF0000034C5E90274C5E90A47C5E90C4403F09C
:101D0000E3FA3146284603F095FBDFF8ECE02A4879
:101D10004FF4E133C0E900E30C23C0E90534C0E926
:101D200002440461C46105F01FFD2448244B036094
:101D300004F0EEFEFEF7BCFCFEF7B9FC05F036FE43
:101D400022463946304605F055FF1E4B22461860A4
:101D500031460A2005F04EFF1B4B224618603146E3
:101D6000404605F047FF194B224618603946404669
:101D700005F040FF164B174A18602146164805F03B
:101D800041FE164B164A18602146164805F03AFEE9
:101D9000154B164A18602146154805F033FE154BC1
:101DA000186005F015FEFEE7403400201400002006
:101DB0004436002000B0024098340020383500201E
:101DC00000080650503400204C34002048340020D5
:101DD00044340020746B0208C517000860340020EA
:101DE000506B0208BF0600085C3400202C6B020810
:101DF0005D170008583400200010014070477047FC
:101E00007FB5094B8DF817201B6802930DF117025F
:101E10000123009201930A460146044803F0EEFEB6
:101E200007B05DF804FB00BF10000020F035002073
:101E30007FB500238DF81730084B1B6802930A46C4
:101E400001230DF11701009101930146044803F0AD
:101E500065FF9DF8170007B05DF804FB1000002037
:101E6000F03500201FB5084C24680092CDE90134FC
:101E70000A4601230146054803F050FF003818BF09
:101E8000012004B010BD00BF10000020F03500207C
:101E900003F0A4B910B5064C00222046042103F03B
:101EA000F7FB20460122BDE81040042103F0F0BBFF
:101EB0000008024038B50B4D044601220A484FF491
:101EC000005103F0E5FB00220421284603F0E0FB6B
:101ED0002046FFF731FC28460122BDE838400421A6
:101EE00003F0D6BB00080240000C024038B50B4D91
:101EF000044600220A484FF4005103F0C9FB0022B7
:101F00000421284603F0C4FB2046FFF715FC2846B1
:101F10000122BDE83840042103F0BABB00080240AA
:101F2000000C0240F7B5144E144F05460C463046DF
:101F30000022042103F0ACFB00224FF4005138468C
:101F400003F0A6FB2846FFF7F7FB0D4B0D481B6877
:101F5000224601A905F04CF9384601224FF4005100
:101F6000019C03F095FB30460122042103F090FB15
:101F7000204603B0F0BD00BF00080240000C024044
:101F80000C000020E034002003F028B90268034B65
:101F90009A4201D103F010B9704700BF0010004011
:101FA0007047000082B00E4B00220092596C41F441
:101FB00080415964596C01F480410091009901926B
:101FC000196C41F0805119641B6C03F0805301932C
:101FD000019B0F216FF0010002B003F025B900BF93
:101FE000003802400268094B9A4282B00BD10023AC
:101FF0000193074B1A6B42F480521A631B6B03F474
:1020000080530193019B02B0704700BF0030024033
:102010000038024007B50F4B02689A4216D10022E1
:10202000A3F5F0430192196B41F4000119631B6B96
:1020300003F40003019305215A20019B03F0F4F8F7
:102040005A2003B05DF804EB03F020B903B05DF84B
:1020500004FB00BF00B002402DE9F043044689B004
:102060001422002103A822F056FD2268244B9A4234
:1020700043D1244C244800250095236B43F00403EE
:102080002363236B03F004030093009B0195236BF0
:1020900043F001032363236B03F001030193019BCE
:1020A0004FF012094FF400734FF001080327042684
:1020B00003A9CDE90339CDE90587079603F0FEF9B9
:1020C0004FF480731148079603A9CDE90339CDE990
:1020D000058703F0F3F90295236C43F400032364AE
:1020E000236C03F400030293029B236A43F400036E
:1020F0002362236A23F40003236209B0BDE8F0835E
:10210000005C00400038024000080240000002402D
:10211000F0B599B004461422002107A822F0FBFC78
:1021200030220DEB0200002122F0F5FC22685E4B0C
:102130009A4240F0B78008230C9332231093042373
:1021400012930CA84FF40033159304F0B5FB08B1BB
:10215000FFF726FF554B5648002400945A6C42F076
:1021600080625A645A6C02F080620092009A019474
:102170001A6B42F020021A631A6B02F020020192DD
:10218000019A02941A6B42F001021A631A6B02F070
:1021900001020292029A03941A6B42F002021A633D
:1021A0001A6B02F002020392039A04941A6B42F033
:1021B00040021A631A6B02F040020492049A0594DA
:1021C0001A6B42F004021A631A6B02F004020592C1
:1021D000059A06941A6B42F008021A631B6B03F00F
:1021E0000803069302250E26069B0B964FF4806388
:1021F00007A9CDE90735CDE9094503F05FF941F6B7
:1022000058032C480B9607A9CDE907350927CDE9D6
:10221000094503F053F9032327480B9707A9CDE994
:102220000735CDE9094503F049F94FF470632248B9
:102230000B9607A9CDE90735CDE9094503F03EF92D
:102240004FF40C631D480B9607A9CDE90735CDE97E
:10225000094503F033F9C02319480B9607A9CDE9C6
:102260000735CDE9094503F029F9082315480B96F0
:1022700007A9CDE90735CDE9094503F01FF94FF46A
:10228000A0530E480B9707A9CDE90735CDE90945BD
:1022900003F014F958202246052102F0C5FF58200A
:1022A00002F0F4FF19B0F0BD0068014000380240B0
:1022B00000140240000002400004024000180240E6
:1022C00000080240000C02400268094B9A4282B0AA
:1022D0000BD100230193074B5A6B42F040025A6323
:1022E0005B6B03F040030193019B02B0704700BF9A
:1022F000000806500038024010B5044688B0142289
:10230000002103A822F007FC2268144B9A4223D133
:1023100003F56843002101915A6C114842F4801280
:102320005A645A6C02F480120192019A02911A6B5B
:1023300042F020021A631B6B03F020030293029BFE
:102340004FF4607202230321CDE903230523CDE975
:10235000061303A903F0B2F808B010BD0050014005
:102360000014024010B5044688B01422002103A8CE
:1023700022F0D1FB2268144B9A4223D103F5943307
:10238000002101915A6C114842F010025A645A6CB3
:1023900002F010020192019A02911A6B42F00102BE
:1023A0001A631B6B03F001030293029B4FF4C0629C
:1023B00002230321CDE903230723CDE9061303A953
:1023C00003F07CF808B010BD00100140000002408E
:1023D0002DE9F04186B0002303932B4B1C68002CA1
:1023E0004FD14FF00108C3F80080284B00949A6B3E
:1023F000274842EA08029A639B6B03EA08030093AA
:10240000022703260C25009B01A94FF63F03CDE9C7
:102410000137CDE9046503F051F81E48059501A97F
:10242000CDE90187CDE9034603F048F848F23313BC
:102430001948059501A9CDE90137CDE9034603F017
:102440003DF84FF683731548059501A9CDE901378D
:10245000CDE9034603F032F84CF2037310480595BA
:1024600001A9CDE90137CDE9034603F027F8602340
:102470000C48059501A9CDE90137CDE9034603F0E4
:102480001DF806B0BDE8F0818C360020003802400F
:1024900000140240000802400018024000100240F0
:1024A000000C02400004024070B588B00023029383
:1024B000204B1A6C42F010021A641B6C03F01003DC
:1024C0000293054601A903A8029B04F0D7F9069BD5
:1024D0004BBB04F0B3F9184E184B336040F2E733AE
:1024E000F360174BB0FBF3F3013B736030460023FE
:1024F0003361B360B36105F04BF8044680B93046F0
:1025000004F01CFF044658B9362002F0BFFE0F2D20
:102510000DD822462946362002F086FE094B1D6062
:10252000204608B070BD04F089F94000D3E70124CB
:10253000F6E700BF0038024090360020001000404F
:1025400040420F007C0000207047FEE7FEE7FEE7F8
:10255000FEE77047014804F02FBF00BF903600200F
:10256000014803F013BE00BF48350020014802F0C7
:10257000D7BE00BF443600200120704708B522F0C6
:10258000CBFB162303604FF0FF3008BD08B522F0E7
:10259000C3FB16230360FEE770B50D4614460E46D6
:1025A000731B9C4201DC204670BDAFF3008006F82F
:1025B000010BF5E770B50D4614460E46731B9C42A1
:1025C00001DC204670BD16F8010BAFF30080F5E783
:1025D0004FF0FF3070474FF400534B6000207047BE
:1025E00001207047002070470A4A116808B5034669
:1025F00009B9094911601068694603448B4206D93C
:1026000022F08AFB0C2303604FF0FF3008BD1360FB
:10261000FCE700BFD836002000530120704710B5FA
:102620000421044621F0F2F8204610BD08B5032924
:1026300013D8DFE801F002060A0E01F025FB00685E
:1026400008BD01F021FB4068FAE701F01DFB80683E
:10265000F6E701F019FBC068F2E70020F0E70000A0
:1026600000487047AC6B02081520704713B5002472
:1026700051B1036801948DF8034001AA9C680DF1E3
:102680000303A04702B010BD0846FBE7C0897047AE
:10269000008A7047C088704780887047807A00F051
:1026A0007F007047807AC0097047002070470000A3
:1026B0009FED010A704700BF00000000704710B591
:1026C0000821044621F0A2F8204610BD704770474B
:1026D00000F598730868496803C3704770477047EE
:1026E0004160704770477047064BC0F84C3100237B
:1026F000C0F8503100F5A273C0F84801C0F840316D
:10270000704700BF8128000801230372704770479B
:10271000704710B4C26841685410034601EB620070
:10272000D20748BF0A599B685DF8044B48BFD3588D
:1027300018470346406830B19A681AB9D86800F063
:10274000010070470120704710B50C21044621F0AC
:102750005DF8204610BD10B51021044621F056F852
:10276000204610BD10B54FF4AE71044621F04EF86E
:10277000204610BD10B54021044621F047F8204600
:1027800010BD10B50EF016F80368BDE81040DB6B05
:1027900018470000054B1B7801462BB1406818B163
:1027A00003680C315B6E1847704700BFBB450120C2
:1027B000037A70B50546BBB940680368DB69984782
:1027C00004463CB96868036805F10C011B6EBDE85E
:1027D00070401847E1886B8FC91A236820465B6BED
:1027E00009B29847A469ECE770BD10B50446D0F86B
:1027F000400158B10368DB68984738B1D4F840010C
:1028000003689B6898470023C4F8403110BD70B539
:10281000044690F8390094F838300130C0B298423C
:1028200084F8390005D901232372002384F8393054
:1028300070BDB4F93A20002110F0DEF9C30706D5C7
:1028400000284FF6FF73C8BF0123184400B2638A03
:10285000C01AA08760680368DB69984705462DB9F0
:1028600060680368BDE870405B691847E988A38F1A
:1028700019442B6828465B6B09B29847AD69EEE7AF
:102880002DE9F14FD0E9556A0746B06803681B6A25
:102890009847DB2805D8444B444AA321444821F0FB
:1028A00033FF706803681B6A98470F2803D8414BB1
:1028B0003E4AA421F2E7F06803681B6A98470B2898
:1028C00003D83D4B394AA521E8E70DF073FFDFF847
:1028D000F09004300DF0ACFFD9F8000010B103689F
:1028E000DB689847D9F8000010B103681B68984767
:1028F000DFF8D080D8F8000010B103685B69984712
:10290000D7F83C0110B103685B689847D8F800001D
:1029100010B103681B689847D7F83C0110B10368F1
:102920009B689847F068036800215B6A98474FF0FE
:10293000000B224BC0F804B0044680F808B00360D6
:10294000B068036859465B6A9847054602F05CF92F
:102950007068036859465B6A98472946064602F044
:1029600033F9331DC7F83C61C9F80040C8F800507E
:10297000CAF800302B68C6F808A02846DB68EE636A
:102980009847336830461B6898472146284610F020
:102990002DF9236820461B69984723685B69204608
:1029A00001B0BDE8F04F18477D5E02080B5F0208DA
:1029B000E35F02082A600208CD600208D46D0208B5
:1029C0000446012000460120044B1B6893F8582060
:1029D0000AB1D86C00B99868704700BFBC450120A7
:1029E000F8B5174604460E460DF0F0FF124B1C607A
:1029F000124B2360124B0025C4E95135114BC4E939
:102A000053551868036801219B68C4E94F55C4E910
:102A100055769847284601F0EBF8FFF7D5FF18F0F8
:102A2000F2FDFFF7D1FF18F069FEFFF7CDFF18F0B8
:102A300071FE2046F8BD00BF10460120806D0208DF
:102A4000686D0208BC450120064BC0F84C310023DC
:102A5000C0F8503100F5A273C0F84801C0F8403109
:102A6000704700BF81280008064BC0F84C31002396
:102A7000C0F8503100F5A273C0F84801C0F84031E9
:102A8000704700BFB92D0008064BC0F84C31002339
:102A9000C0F8503100F5A273C0F84801C0F84031C9
:102AA000704700BF7D2C0008064BC0F84C31002356
:102AB000C0F8503100F5A273C0F84801C0F84031A9
:102AC000704700BF452B000803685B6A1847000089
:102AD0002DE9F04105460026164B4660067245F882
:102AE0000C3B044628460F460AF018FD124B84F8AA
:102AF00038701B7884F83960A68723B901232372C4
:102B00002046BDE8F0810D4AE3680D4FB2F9001090
:102B10009B6B26612846B7F900809847E3684146D9
:102B2000DB6B2846984728460AF073FC3B8863878E
:102B3000E6E700BFF86D0208BB450120B045012063
:102B4000B24501202DE9F047D0E9556A0746B06843
:102B500003681B6A9847B0F5E67F05D2404B414AAF
:102B6000A321414821F0D0FD706803681B6A984793
:102B70000F2803D83D4B3B4AA421F2E7F0680368D5
:102B80001B6A98473F2803D8394B364AA521E8E706
:102B90000DF010FEDFF8DC9004300DF049FED9F89E
:102BA000000010B10368DB689847D9F8000010B145
:102BB00003681B689847DFF8C080D8F8000010B1A0
:102BC00003685B699847D7F83C0110B103685B68FC
:102BD0009847D8F8000010B103681B689847D7F8E9
:102BE0003C0110B103689B689847F0680021FFF72B
:102BF0006BFF14210446FFF76BFFB06803680021E8
:102C00005B6A9847054601F0B1F8706803680021D7
:102C10005B6A98472946064601F086F8331DC7F8D7
:102C20003C61C9F80040C8F80050CAF800302B6871
:102C3000C6F808A02846DB68EE639847336830463C
:102C40001B689847214628460FF0D0FF236820468E
:102C50001B699847236820465B69BDE8F047184721
:102C60007D5E020870610208E35F02082A600208C4
:102C7000CD60020804460120004601202DE9F047FE
:102C8000D0E9556A0746B06803681B6A984741F661
:102C9000FB63984205D8414B414AA321414821F0AA
:102CA00033FD706803681B6A98470F2803D83E4BB2
:102CB0003B4AA421F2E7F06803681B6A98473F2863
:102CC00003D83A4B364AA521E8E70DF073FDDFF84B
:102CD000E09004300DF0ACFDD9F8000010B10368AD
:102CE000DB689847D9F8000010B103681B68984763
:102CF000DFF8C080D8F8000010B103685B6998471E
:102D0000D7F83C0110B103685B689847D8F8000019
:102D100010B103681B689847D7F83C0110B10368ED
:102D20009B689847F0680021FFF7CEFE1421044607
:102D3000FFF7CEFEB068036800215B6A984705463E
:102D400001F09AFD7068036800215B6A9847294684
:102D5000064601F03FF8331DC7F83C61C9F8004052
:102D6000C8F80050CAF800302B68C6F808A02846FA
:102D7000DB68EE639847336830461B689847214606
:102D800028460FF033FF236820461B6998472368C5
:102D900020465B69BDE8F047184700BF7D5E02082A
:102DA00064620208E35F02082A600208CD6002083C
:102DB00004460120004601202DE9F047D0E9556A7C
:102DC0000746B06803681B6A9847DB2805D8414B63
:102DD000414AA321414821F097FC706803681B6AAF
:102DE00098470F2803D83E4B3B4AA421F2E7F068EE
:102DF00003681B6A98473F2803D83A4B364AA521F7
:102E0000E8E70DF0D7FCDFF8E09004300DF010FD9E
:102E1000D9F8000010B10368DB689847D9F80000C2
:102E200010B103681B689847DFF8C080D8F800002D
:102E300010B103685B699847D7F83C0110B103688B
:102E40005B689847D8F8000010B103681B68984782
:102E5000D7F83C0110B103689B689847F0680021DF
:102E6000FFF732FE14210446FFF732FEB068036814
:102E700000215B6A9847054601F0C6FE706803684A
:102E800000215B6A98472946064601F09DFE331DE6
:102E9000C7F83C61C9F80040C8F80050CAF80030D3
:102EA0002B68C6F808A02846DB68EE6398473368AD
:102EB00030461B689847214628460FF097FE236846
:102EC00020461B699847236820465B69BDE8F047A8
:102ED000184700BF7D5E020858630208E35F0208DE
:102EE0002A600208CD600208044601200046012045
:102EF0007047704770477047704730B5036885B0BA
:102F00006D460181D3F8843001460446284698472F
:102F100095E807003C3484E8070005B030BD30B5C3
:102F2000036885B06D464181D3F88430014604467C
:102F30002846984795E807003C3484E8070005B028
:102F400030BD0022028042808280C280704780F8BB
:102F50003610704770B5036804461B6B15469847DA
:102F60002368294620465B6EBDE870401847002064
:102F70007047806C7047704770477047704730B437
:102F8000C26844685510034604EB6200D20748BF8C
:102F900062599B6830BC48BFD35818470346406805
:102FA00030B19A681AB9D86800F001007047012062
:102FB000704710B54C21044620F028FC204610BD77
:102FC00010B51021044620F021FC204610BD10B59C
:102FD0004FF4E671044620F019FC204610BD08B5F8
:102FE000FEF760FA08BD0000036870B55E6B124B17
:102FF0001B6804468DB22BB9104B114A6C21114845
:1030000021F082FB1049828D0988914203D80F4B31
:103010000B4A6D21F3E713F812200D4B1B6853F890
:10302000220003681B6B9847291A3346204609B2D1
:10303000BDE87040184700BF1446012044640208F0
:1030400086640208C1640208184601200865020867
:103050001C46012038B500F1E003994204460D46B4
:1030600003D10DF0A7FBFFF70FFD04F58A74A5420D
:1030700005D10DF09FFBBDE83840FFF7F5BC38BD2A
:1030800000224FF0FF31C0E900218260704770B527
:10309000036804461B6B154698472368294620465B
:1030A0005B6BBDE8704018470022C0E90122C0E90F
:1030B0000322C0E90522C0E907224FF4807282840E
:1030C000014A0260704700BF1C6E020810B526223C
:1030D0000446002121F01FFD2046FFF7E5FF0A4BC3
:1030E00023600A4BA3624FF6FF73A3854FF47F0260
:1030F0000023C4E90C3223874FF0FF32C4E91023C8
:10310000E363204610BD00BF1C760208586D02081C
:1031100010B526220446002121F0FDFC2046FFF7D1
:10312000C3FF0023A36284F82C30012384F82430E9
:10313000044B23604FF6FF7384F83230E385238617
:10314000204610BD147702082DE9F04F82468BB05F
:10315000554600240FF09EFB7C4ACAF83C4045F8D7
:10316000402B262632462146284621F0D4FC28460C
:10317000FFF79AFF764ACAF840200AF16C084FF030
:10318000FF374FF6FF7221468AF86670ADF82020AF
:10319000CAF868403246404621F0BDFC4046FFF781
:1031A00083FF6C4ACAF86C20BDF82020AAF8922050
:1031B00008A90AF198098AF8947040460AF0EDFED1
:1031C0000AF1E00B4846FFF781FF5846FFF7A0FFE2
:1031D0000AF58A7318460AF5A4770193FFF798FF5A
:1031E0003846FFF773FF5C4ACAF848215B4ACAF8C1
:1031F0009041CAE96F2A5A4A2146CAE971242846F1
:103200002246FFF744FF2846F021FEF795F82846AE
:103210004FF4A071FEF792F80AF104064FF07F42D6
:10322000CAF868202946304606F0FCFC22462146B2
:103230004046FFF72CFF072208A94046ADF82020A2
:103240000AF0ABFE4146304606F0ECFC02ADDFF87A
:1032500018817F2248468921FFF719FF49462846F1
:10326000CAF8C880AAF8CC400AF058FA95E80700D6
:103270000AF1D40C8CE807003A4B089308A9484699
:10328000ADF824400AF0F2FC4946304606F0CAFC8C
:103290005846FF222821FFF7FAFE0D22ADF81C2028
:1032A0000E22ADF8202007A908AA58460AF5DE79B3
:1032B0000AF03AFD59463046CAF8089106F0B2FCC9
:1032C0000198BE222821FFF7E2FE0822ADF81C205B
:1032D00009220198ADF8202007A908AA0AF024FDC8
:1032E0000199CAF83C91304606F09CFC38465D22B4
:1032F0008921FFF7CCFEDAF84821CAF878813946EF
:103300002846D2F88420AAF87C41904795E8070027
:103310000AF5C27C8CE807000AF5CA72CAF8902147
:103320003846AAF894410AF081FC0E4B089301221A
:1033300008A93846ADF824200AF098FC30463946F2
:1033400006F070FC50460BB0BDE8F08F2C6F020801
:10335000AC76020888770208846E0208146F0208AF
:1033600055300008586D02080000FFFF7047704795
:10337000704730B4C26844685510034604EB6200DD
:10338000D20748BF62599B6830BC48BFD358184722
:103390000346406830B19A681AB9D86800F0010055
:1033A00070470120704710B51021044620F02EFA16
:1033B000204610BD10B54FF40171044620F026FAE6
:1033C000204610BD38B500F1C403994204460D46AD
:1033D00003D10DF0EFF9FFF747FB04F59674A54212
:1033E00005D10DF0E7F9BDE83840FFF75DBB38BD0A
:1033F00038B5262204460D46002121F08CFB2046DC
:10340000FFF752FE064B23602B88E384FF23204600
:1034100084F8283029460AF0C0FD204638BD00BF98
:10342000887702082DE9F04F04468DB026464FF00C
:1034300000080FF02FFA944AC4F83C8046F8402B5D
:1034400041462622304621F066FB3046FFF72CFE2F
:103450008E49216404F16C0BFF2104F1980A4FF6A8
:10346000FF7584F86610C4F868800AA9584604F10C
:10347000C409ADF82850FFF7BBFF0AA95046ADF8C4
:103480002850FFF7B5FF4846FFF742FE04F1F80366
:1034900018460193FFF73CFE04F596731846029315
:1034A000FFF736FE04F5B07304F5CA7718460393A8
:1034B000FFF72EFE41462622384621F02CFB3846E7
:1034C000FFF7F2FD4FF47F02C4F8C821704AC4F838
:1034D0009421704A704BC4F8BC31C4E97D246F4A12
:1034E000A4F8C0514FF0FF33C4E97538C4E97F2810
:1034F000414642463046C4F8C481A4F8CC81C4F8A1
:10350000D081C4F8DC81FFF7C2FD3046F021FDF721
:1035100013FF30464FF4A071251DFDF70FFF4FF04C
:103520007F42A2663146284606F07CFB4246414671
:103530005846FFF7ACFD4FF002020AA95846ADF815
:1035400028200AF02AFD5946284606F06BFB504613
:10355000D7221421FFF79BFD10220AA95046ADF88F
:1035600028200AF01AFD5146284606F05BFB424629
:103570004846C221FFF78BFD0A220AA904F5FA7614
:10358000ADF82420ADF8282048460A4609A90AF0DB
:10359000CBFBC4F8EC604946284606F043FB019893
:1035A0000122A921FFF773FD0B22ADF824200AA9FF
:1035B0000C220198ADF828200A4609A90AF0B4FBAC
:1035C0000199284606F02EFB029801228521FFF77B
:1035D0005EFD0F220AA90298ADF82420ADF828203C
:1035E0000A4609A90AF0A0FB0299C4F854612846CA
:1035F00006F018FB039842466C21FFF748FD1422A1
:10360000ADF824200AA913220398ADF828200A4611
:1036100009A90AF089FB0399284606F003FB3846FE
:103620000D221D21FFF733FDD4F89421A4F8C881A1
:103630004FF0FF3304AEC4F8C43139463046D2F8F7
:103640008420904796E8070004F5E87C04F5F073C1
:103650008CE80700C4F8DC313846A4F8E0810AF0B1
:10366000E5FA0D4B0A934FF002020AA93846ADF86D
:103670002C200AF0FBFA2846394606F0D3FA2046F9
:103680000DB0BDE8F08F00BF786F0208AC7602087D
:10369000846E0208606F0208586D0208C533000886
:1036A000406A7047806A704770478A880B8810B5F7
:1036B000D20A4C88C1699BB251F8220043EA044304
:1036C000184410BD10B50446BAB1107B68B1537BE5
:1036D000D27A1B0203F4E0631A43236A03EB8203EA
:1036E0001A888A4202D193F9020010BD05D8013828
:1036F00080B204330028F3D1F7E70020F5E710B5D6
:103700002C21044620F082F8204610BD30B58BB045
:103710000446BDF860500895BDF85C5007959DF8CB
:10372000505006959DF84C5005959DF848500495CD
:103730009DF8445003959DF8405002959DF83C50EB
:103740000195BDF8385000950EF088FE064B2360B9
:10375000159BE361169B2362199B63621A9BA3620C
:1037600020460BB030BD00BFAC6F020870477047F9
:10377000704730B4C26844685510034604EB6200D9
:10378000D20748BF62599B6830BC48BFD35818471E
:103790000346406830B19A681AB9D86800F0010051
:1037A00070470120704710B51021044620F02EF814
:1037B000204610BD10B5DC21044620F027F8204635
:1037C00010BD9830884208B505D10CF0F3FFBDE874
:1037D0000840FFF759B908BD2DE9F34704462646CE
:1037E00000250FF057F8494BE56346F8403B4FF092
:1037F000260A52462946304621F08DF93046FFF719
:1038000053FC04F16C07424B23644FF0FF084FF662
:10381000FF795246294684F86680A5663846ADF899
:10382000049021F078F93846FFF73EFC394BE36607
:10383000BDF80430A4F8923084F8948001A904F112
:10384000980838460AF0A9FB52462946404621F01E
:1038500062F94046FFF728FC2F4BC4F898302F4BF5
:10386000A4F8C690C4E933342D4BA4F8C8904FF0A7
:10387000010A2A46C4E9353584F8CA9029463046FB
:10388000C4F8C05084F8C45084F8BCA0FFF7FFFB14
:103890003046F021FDF750FD30464FF4A071FDF7A2
:1038A0004DFD04F104094FF07F43A36631464846BD
:1038B00006F0B8F92A4629463846FFF7E8FB01A981
:1038C0003846ADF804A00AF068FB3946484606F0D1
:1038D000A9F9404692224621FFF7D9FB1123ADF802
:1038E000003001AA122369464046ADF804300AF0C0
:1038F0001BFA04F1CC034846C4F8C030414606F038
:1039000091F9204602B0BDE8F08700BF2C70020894
:10391000AC7602088877020814770208147002084F
:10392000C33700087047000030B5164D2C6814F0FE
:1039300001048FB0BFF35B8F21D128461FF068FFD1
:10394000E8B13F230993104B0893104B07930123D1
:10395000CDE9054304930423CDE902430A230C492E
:1039600000930922CDE90B440A480A940194FFF719
:10397000CDFE094820F0E6FE28461FF055FF054819
:103980000FB030BDDC3600209C850208AC850208F3
:10399000B4840208E0360020253900087047000092
:1039A00030B5164D2C6814F001048FB0BFF35B8F57
:1039B00020D128461FF02CFFE0B13F230993104B84
:1039C0000893104B104911480A940122CDE906438F
:1039D0000423CDE9033214230093CDE90B44CDE950
:1039E00001440594FFF792FE094820F0ABFE2846FB
:1039F0001FF01AFF05480FB030BD00BF0C37002084
:103A0000A0850208B085020834850208103700201E
:103A10009D3900087047000030B5164D2C6814F031
:103A200001048FB0BFF35B8F21D128461FF0F0FE59
:103A3000E8B13F230993104B0893104B10491148EC
:103A40000A94CDE9064301220423CDE90332192368
:103A500000930522CDE90B44CDE901440594FFF71D
:103A600055FE094820F06EFE28461FF0DDFE054891
:103A70000FB030BD3C370020A4850208B485020891
:103A80004485020840370020153A000870470000BE
:103A900030B5164D2C6814F001048FB0BFF35B8F66
:103AA00020D128461FF0B4FEE0B13F230993104B0C
:103AB0000893104B104911480A940122CDE906439E
:103AC0000423CDE9033228230093CDE90B44CDE94B
:103AD00001440594FFF71AFE094820F033FE2846FA
:103AE0001FF0A2FE05480FB030BD00BF6C370020AC
:103AF000A8850208B88502088C8502087037002066
:103B00008D3A000800207047002070470EB403B5BE
:103B100003AB002153F8042B01930DF01DFF02B0FD
:103B20005DF804EB03B070470CB407B504AB53F871
:103B3000042B01930DF010FF03B05DF804EB02B00D
:103B400070470000436C10B5044673B3038F2BB964
:103B5000184B194AC521194820F0D6FDC38E00EB39
:103B600043035B8C0BB30FF0FAFD238F012B03D8BB
:103B7000134B144ACB21EEE7E28E531C9BB2092B68
:103B8000194688BFA3F10A0104EB410140F63F103A
:103B9000498C814209D10A2B04EB420228BF002341
:103BA00004EB4303508C588451842046BDE81040F8
:103BB0000FF0D8BC466502084F650208FA65020896
:103BC00044660208526602080FF093BC10B586B036
:103BD00002AC84E806001A460AAB05930193099BE0
:103BE00000932146089B0CF067F906B010BD000059
:103BF00038B518BB124B13481C681349B4B122687E
:103C000022440260626822440A60A26814440F4B96
:103C100000221A8000F038F8054600F033F80C4B0B
:103C20001C600C4B1D600C4B188007E00B4B0360B5
:103C30000B4B0B600B4B1C68002CE8D138BD00BF50
:103C4000A8370020A03700209C370020A437002090
:103C5000144601201C46012018460120C885020890
:103C6000BC850208E4850208044B1B6853F8210058
:103C7000034B1B6803EB4000704700BF9C370020DC
:103C8000A03700200320704700487047AC37002061
:103C900010B5FFF7FDFE064C2060FFF745FE6060A3
:103CA000FFF7BAFEA060FFF77BFEE06010BD00BF2B
:103CB000AC37002010B5002404600C6014601C6058
:103CC00010BD704710B54FF4AE7104461FF09EFD55
:103CD000204610BD10B50446D0F8580100F0A4FFEE
:103CE0002046BDE810400CF001BE000010B50446AF
:103CF000FEF776FE014B2360204610BD607002087F
:103D0000704704387047704710B5102104461FF003
:103D10007DFD204610BDA0F10400F5E78368C06872
:103D2000596800F02FB8000000228260024A026049
:103D300018324260C1607047B470020870470000DA
:103D400010B5034B03600446FFF717F9204610BD7A
:103D5000DC70020810B50446FFF7F2FF20464FF46E
:103D6000E6711FF053FD204610BD000010B504465B
:103D7000FFF7EAF9014B2360204610BDDC70020812
:103D8000FFF7FCB838B5044600F5CA750B4628465F
:103D9000054A142110F0E2FBC4F8905104F5A47018
:103DA000BDE838400DF002BF2467020870470438B0
:103DB00070477047D0E90232D2F8FC225A6070474F
:103DC00010B5102104461FF021FD204610BDA0F1C2
:103DD0000400F5E700228260024A02601832426065
:103DE000C16070471071020870477047704730B467
:103DF000C26844685510034604EB6200D20748BF0E
:103E000062599B6830BC48BFD35818470346406886
:103E100030B19A681AB9D86800F0010070470120E3
:103E2000704781857047808D704700F58053002270
:103E300000F5EE5083F8012E1C300DF0B7BE10B522
:103E4000442104461FF0E2FC204610BD10B51021AD
:103E500004461FF0DBFC204610BD000038B5094BBE
:103E60000360044641F65455B5F5317F05D06359DA
:103E700060191B689847443DF6E72046FFF777FA3C
:103E8000204638BDC471020810B50446FFF7E6FFAE
:103E9000204641F6FC611FF0B9FC204610BD08B574
:103EA00090F828300BB1FDF7FDFA08BD08B5054BB9
:103EB0001B682BB9044B054A0548942120F024FCCB
:103EC00008BD00BF4C46012027670208636702084F
:103ED000966702080268D0ED0E0AD26EB0EE401A64
:103EE00090ED0D0A10472DE9F34100F5EE551C3514
:103EF0000446032304F5805701A92846ADF8043091
:103F000004F5F1560AF049F84FF00108D722284687
:103F10005A21FFF7BCF82946304687F8018E05F094
:103F200081FE04F5EC5428460DF040FE18340423BD
:103F30000DEB03012046ADF804300AF02EF8D7222D
:103F400020465A21FFF7A3F8304687F8BD8D214659
:103F500005F068FE204602B0BDE8F0410DF026BE37
:103F60002DE9F04F284B87B00024049303F102138E
:103F70000746059300F5077BA24623B2019307EBA2
:103F80000A06D946002500232048039303A902F01E
:103F9000D7FDA8BB0399D6F8082306AB01F00301AF
:103FA000C9F8001003EB410106F5427831F8081C0E
:103FB000126EADF80810404602A99047019A29B246
:103FC0004046FFF764F8012286F82D23414607F5A5
:103FD000F15005F027FE1435ADB2C82D09F10409E2
:103FE00006F14406CFD10AF52A7A40F64852153434
:103FF0009245A4B20BF1280BBFD107B0BDE8F08FFA
:104000000023C9F80030E6E703000400383500203B
:104010000023C0E9BA33012380F8F03200F5F150F3
:104020000DF0C4BD2DE9F0412DED028B00F5805659
:1040300000F5EE5584B01C35B6F99C7DB6F99E8D21
:10404000B6F8BE3DADF80830044602A9284609F08E
:10405000A4FF3946424628460127FFF718F82846AC
:1040600086F8017E0DF0A2FD9FED287AD4ED817ACD
:1040700067EE877A9FED267A67EE877A9FED257A3D
:1040800087EE878A0025B0EE480A1FF04BFCF1EE60
:10409000007A20EE270A84ED830AB0EE480A1FF06A
:1040A000FDFBF9EE007A1C4B029320EE270A03F188
:1040B00002131A4884ED840A84F8147201A9039348
:1040C000019502F03DFD10B9019D05F0030504AB1B
:1040D00003EB450504F5EC54183435F8083CADF80D
:1040E00000306946204609F058FFD7225A21204661
:1040F000FEF7CDFF012386F8BD3D20460DF056FDAD
:1041000004B0BDEC028BBDE8F08100BF0000884226
:10411000C3F5484000003443030004003835002054
:10412000B2F90400B2F9083030B5B1F904400344E3
:10413000A34215DDB1F908302344834210DDB2F902
:104140000640B2F90A30B1F906502344AB4207DD0C
:10415000B1F90A002844A042D4BF0020012030BD9C
:104160000020FCE770B5044600F5F076D0F8FC328C
:10417000084A04F5CA750A21304610F0EFF92846BE
:104180000DF014FDC4F8DC612846BDE870400DF068
:104190000DBD00BF246702082DE9F84F4FF42A7BBC
:1041A0001F464FF044080BFB01F308FB02330344A6
:1041B0000446B3F82E030D461646FFF777FE0A9B1A
:1041C0000BFB07FA08FB03AAF318E91908FB03F332
:1041D0000BFB013381461C444FF0000B0A9B3D440E
:1041E000042D1E440ED8092E0CD894F82D334BB153
:1041F000B4F82E03FFF75AFE4845544402D10BF1A0
:10420000010BEBE75846BDE8F88F00002DE9F04FB1
:104210004FF42A734B431546442202FB05330344F3
:1042200091B00646B3F82E030C46FFF73FFEDFF8C9
:104230006CC10590BCE80F0008AF0FC79CE80F00E9
:1042400087E80F000DF120090DF1400AD9E9008738
:104250002A464346214600973046FFF79DFF7B42A2
:1042600000F1010B00932A46C8F1000321463046B5
:10427000FFF792FF0BEB0003022B039340F38380C5
:104280004FF42A7B44210BFB04F201FB05F0831859
:1042900033444FF0000C83F82DC300F54270D3F87F
:1042A000083310445B6930449847EB1B04933A4B46
:1042B0006FF0430003FB08FC784308EB040A00EBB3
:1042C0000C02A4EB0804EB1B442107920BFB04F245
:1042D00001FB0322CCF100031B1A3D4406930BFBA8
:1042E0000AF301FB053306EB030B012306EB02097E
:1042F0000293BAF1040F11D8092D0FD8BBF82E0381
:10430000FFF7D4FD059B984208D100218BF82D13AF
:10431000DBF808130BF5427049698847042C12D862
:10432000049B092B0FD8B9F82E03FFF7BFFD059B9F
:10433000984208D1002189F82D13D9F8081309F5FE
:10434000427049698847029B01330293049BDB1B3F
:104350000493079B9944069B9B44DDE90223934207
:10436000C244A4EB08043D44C3DCD6F8FC320399F4
:104370000A2202FB01333046C6F8FC3211B0BDE818
:10438000F04FFFF7EFBE09F10809D1457FF45EAFAA
:1043900011B0BDE8F08F00BF58FDFFFF18580208AC
:1043A0002DE9F74300F580590746B9F9243ECD1AA7
:1043B000B9F9263ED41A14F1140F4BDB682C4BDCF0
:1043C000152394FBF3F415F1130F47DBC72D47DCDE
:1043D000142395FBF3F54FF42A73634344266E438D
:1043E00003F54278B0441E443E44B9F8022ED6F894
:1043F0000833ADF80420B84401A940461B6E984725
:10440000B9F8263EB9F8241E04EB4402C2EBC202FE
:104410001A4405EB850301EB830112B209B2404651
:10442000FEF735FE012386F82D33D6F808334046D3
:104430005B699847002307F5EE5089F8013E1C3070
:104440000DF0B4FB2A462146384603B0BDE8F043E0
:10445000FFF7DCBE0024B6E70424B4E70025BAE782
:104460000925B8E790F814322DE9F0470446002BEF
:1044700045D000F58052B2F9E05DB2F9E28DB2F9B3
:10448000E41DB2F9283E002D02DD681898420DDBCC
:104490005B1AD4ED837AAB42A8BF2B46F1EE677A64
:1044A00023EAE373C4ED837AA2F8E03D04F5EE510C
:1044B00000271C3141F6902AE6194FF0000996F8C2
:1044C0002D3373B106F542722046FFF729FE40B145
:1044D000424629462046FFF763FF002384F8143242
:1044E0000DE009F10109B9F10A0F06F14406E6D120
:1044F00007F52A775745DFD1B8F1000FE8DDBDE8B1
:10450000F08700002DE9F04F364B85B00546029349
:1045100003F1021303934FF42A672E467C194FF0E0
:104520000008D4F80833B4F886201B6EADF80420D8
:1045300004F5427901A94846984794F88530B4F9C2
:104540006620B4F9641084F82D334846FEF79FFDC9
:10455000D4F8083348465B6908F101089847B8F178
:104560000A0F04F14404DCD1B7F52A77D5D105F55B
:10457000067805F510751C48019701A902F0E0FACC
:1045800068BB019C04F0030404AA02EB4401D6F8C2
:104590000833B6F9B6B531F8081CB6F9B4A51B6EE8
:1045A000ADF8001006F54279694648469847ABF1E8
:1045B000150212B251464846FEF769FD012386F8FE
:1045C0002D33D6F8083348465B69984748F8044FBE
:1045D000A84506F14406CED105B0BDE8F08F002411
:1045E000D2E700BF030004003835002090F8F03215
:1045F0002DE9F74304460BB3D0F8F432D0F8F82293
:1046000001339342C0F8F432C0F2FE80D0E9BA52CE
:104610000023042AC0F8F43200F3B5806D004FF493
:104620002A77D4F8E8320133B5EB430F01DA042DD1
:1046300075DDD4F8EC320133C4F8EC3294F814325E
:10464000D3B304F5EE551C3504F5805728460DF01C
:10465000ADFAB7F9E26DB7F9E08DD4ED836A07EEF4
:10466000906AB8EEE77AD4ED847A37EE277A07EECF
:10467000908AF8EEE77ABDEEC77A77EEA67A17EE63
:10468000103AFDEEE77A1AB217EE903A284619B2C0
:10469000FEF7FDFC28460DF089FA2046FFF7E2FE02
:1046A000B8F1F00F03D8B6B2B6F5A07F04D9002355
:1046B00084F8143287F8013E94F8E4322BB10023D9
:1046C00084F8E4322046FFF70EFC514E0025306896
:1046D0008DF8075003F02AFB002800F095804FF07A
:1046E000FF3330682A460DF1070103F0EFFA9DF819
:1046F00007304C2B53D1D4ED817A9FED467A77EE7B
:10470000C77AC4ED817A94ED817ADFED437AB4EE15
:10471000E77AF1EE10FA65DDC4ED817A69E007FB16
:1047200005464FF0000896F82D331BB3D6F8083332
:1047300006F542795B6948469847B6F90E23B6F903
:104740000C13A52A0CDD94F8F1324BB9012384F83F
:10475000F1320CF02FF803B0BDE8F043FEF7A4B936
:104760000132484612B2FEF792FCD6F808334846AA
:104770005B69984708F10108B8F10A0F06F1440691
:10478000D1D101354DE70135C0E9BA536D00042D93
:104790007FF754AF80F8F032FFF764FE4EE7522BFC
:1047A00006D1D4ED817A9FED1B7A77EE877AA8E760
:1047B000422BA8D12046FFF735FC6420FCF7ACFF64
:1047C0002046FFF725FCD4F80033D4F80423013346
:1047D0009342C4F8003396DB2046FFF793FEC4F8FB
:1047E000005390E7DFED0D7AB4EEE77AF1EE10FAC0
:1047F00092D404F5F2550C35284694ED810AFFF762
:1048000069FB28460DF0D2F903B0BDE8F08300BF84
:104810004C340020CDCC4C3E00003443000034C367
:1048200037B54FF4807200254FF6FF738284104A2B
:104830000260C0E90155C0E90355C0E90555C0E96A
:104840000755C38480F8283001A90446ADF8043028
:1048500009F0A3FB074B23602046C4E90B55C4E9CC
:104860000D55C4E90F5584F82950658503B030BD56
:104870008877020838710208F7B50446FEF7D2FDC2
:104880003B4B2360002500230522C4F80432C4F802
:104890000822C4F80C32C4F81032A4F81452354976
:1048A000C82204F5077020F064FA0223C4E9BE357B
:1048B00004F5EC560323C4E9BA5584F8E452A4F88D
:1048C000F052C4F8F452C4F80053C4F8043304F5A9
:1048D0004275183605F52A7728464435FFF7A0FFBC
:1048E000BD42F9D1AE42F5D13046FFF799FF04F54C
:1048F000EE5004F580551C30FFF792FF4FF48073A3
:104900000026A5F8443E04F5F2501B4BC5F8203EA6
:10491000C5F8246E4FF6FF73C5F8286EC5F82C6EE7
:10492000C5F8306EC5F8346EC5F8386EC5F83C6E03
:10493000C5F8406EC5F8486E01A90C30ADF80430DA
:1049400008F0C6F80D4B0E4AC5F8DC3EC5F8EC3E43
:104950000C4BC5F8E04E2046C5F8E42EC5F8E86ECD
:10496000C5F8F04EC5F8F43EC5F8F86E03B0F0BDDA
:10497000C471020838580208A8720208AC71020813
:10498000294A00082B3E000890F829302DE9F04113
:104990000446002B41D0438D828D01339BB293425C
:1049A00043853AD39B1A9DB2828E038E866BD21AB0
:1049B00012B2C38D00212846B047638EE28EE76BAA
:1049C000D21A0646E38D12B200212846B847638EFC
:1049D000C218238EF11812B209B22046FCF7B5FCBA
:1049E000A38DE18D628D0B449A4216D3002384F887
:1049F000293063850BF0DEFE214604300BF0FFFE0C
:104A0000206C50B10368DB68984730B1206C0368B4
:104A100021469B68BDE8F0411847BDE8F08108B524
:104A2000FFF7B2FF08BD0000B1F90630B22B70B538
:104A3000B1F904600C4605DD0BF0BCFEBDE870402A
:104A4000FEF732B815331DB291F829302BB90BF0AF
:104A5000B1FE214604300BF07BFF002363856368C1
:104A600023639623E385074BA686C4E90E3301230F
:104A700084F82930E36AE58613B92046FFF784FFFE
:104A800070BD00BF5F2C01082DE9F0432DED028BB6
:104A9000044683B0FEF76CFC04F5F25663230C3633
:104AA00004F58057C4F8FC322046FFF75BFB4FF05B
:104AB000000801A93046ADF8048008F0ABF9B7F85A
:104AC000723EADF8003068460FF002FEB7F8723E55
:104AD000ADF80430054601A80FF02EFE05EBD571A8
:104AE0004910C0F1FF02C1F1780112B209B230469B
:104AF000FEF7CDFAB7F8723EADF8003068460FF019
:104B0000E7FD00EBD07040F34F0007EE900AB7F8D6
:104B1000723EADF8043001A8B8EEE78A0FF00CFE43
:104B200007EE900AF8EEE77A07F64C65C5ED127AC3
:104B300085ED118A304608F017F81A4BAB65304600
:104B400008F012F804F104099FED170A3046FFF748
:104B5000C1F93146484605F065F804F5F15520469F
:104B6000FFF7FEF91E2228461421FEF790FA284688
:104B7000C721FCF7E1FB284640F26D11FCF7DEFB94
:104B80002946484687F8448E05F04CF828460DF033
:104B90000DF8012384F8E43203B0BDEC028BBDE8CC
:104BA000F08300BF0080BB45000000007047043860
:104BB0007047704710B5102104461EF027FE2046AE
:104BC00010BDA0F10400F5E700228260024A0260F5
:104BD00018324260C1607047F871020870470000E7
:104BE00010B5034B03600446FEF7C1FD204610BD1F
:104BF0002072020810B50446FFF7F2FF2046DC21C0
:104C00001EF004FE204610BD10B50446FEF7E4FD7C
:104C1000014B2360204610BD20720208FEF7A8BD9C
:104C20000022C0E9002270477047F02070474FF41F
:104C3000A07070472920FDF759B92820FDF756B913
:104C400008B5FDF727F9CA20FDF750F9C320FDF795
:104C500031F90820FDF72EF95020FDF72BF9CF2070
:104C6000FDF744F90020FDF725F9C120FDF722F9F1
:104C70003020FDF71FF9ED20FDF738F96420FDF72E
:104C800019F90320FDF716F91220FDF713F9812019
:104C9000FDF710F9E820FDF729F98520FDF70AF95D
:104CA0000020FDF707F97820FDF704F9CB20FDF788
:104CB0001DF93920FDF7FEF82C20FDF7FBF8002048
:104CC000FDF7F8F83420FDF7F5F80220FDF7F2F8CB
:104CD000F720FDF70BF92020FDF7ECF8EA20FDF7AF
:104CE00005F90020FDF7E6F80020FDF7E3F8B12014
:104CF000FDF7FCF80020FDF7DDF81B20FDF7DAF8E2
:104D0000B620FDF7F3F80A20FDF7D4F8A220FDF74E
:104D1000D1F8C020FDF7EAF81020FDF7CBF8C1204C
:104D2000FDF7E4F81020FDF7C5F8C520FDF7DEF823
:104D30004520FDF7BFF81520FDF7BCF8C720FDF7AB
:104D4000D5F89020FDF7B6F83620FDF7CFF8C8204B
:104D5000FDF7B0F8F220FDF7C9F80020FDF7AAF83A
:104D6000B020FDF7C3F8C220FDF7A4F8B620FDF788
:104D7000BDF80A20FDF79EF8A720FDF79BF8272035
:104D8000FDF798F80420FDF795F82A20FDF7AEF816
:104D90000020FDF78FF80020FDF78CF80020FDF7CC
:104DA00089F8EF20FDF786F82B20FDF79FF800200B
:104DB000FDF780F80020FDF77DF80120FDF77AF877
:104DC0003F20FDF777F8F620FDF790F80120FDF77A
:104DD00071F80020FDF76EF80620FDF76BF82C2027
:104DE000FDF784F8C820FDF7CFF82620FDF77EF800
:104DF0000120FDF75FF8E020FDF778F80F20FDF7C0
:104E000059F82920FDF756F82420FDF753F80C2017
:104E1000FDF750F80E20FDF74DF80920FDF74AF890
:104E20004E20FDF747F87820FDF744F83C20FDF7C9
:104E300041F80920FDF73EF81320FDF73BF8052067
:104E4000FDF738F81720FDF735F81120FDF732F897
:104E50000020FDF72FF8E120FDF748F80020FDF7CE
:104E600029F81620FDF726F81B20FDF723F804206B
:104E7000FDF720F81120FDF71DF80720FDF71AF8BF
:104E80003120FDF717F83320FDF714F84220FDF725
:104E900011F80520FDF70EF80C20FDF70BF80A209D
:104EA000FDF708F82820FDF705F82F20FDF702F898
:104EB0000F20FCF7FFFF1120FDF718F8C820FDF7C1
:104EC00063F82920FDF712F8BDE808402C20FDF713
:104ED0000DB808B5FCF7DEFF0321D320FDF722F85B
:104EE00080B208BD10B5C4B2022203212046FCF7EF
:104EF00087FF0A20FCF7CCFF204600220321FCF7A5
:104F00007FFFBDE810400220FCF7C2BF38B5044661
:104F1000E4B2FCF773FF00212046FCF789FF012172
:104F200005462046FCF784FF40EA052080B238BDE4
:104F300010B5C4B240212046FCF77AFF030607D51E
:104F40004C212046FCF774FF003818BF012010BD2B
:104F500001224B212046FCF753FF204600224B2123
:104F6000FCF74EFF0020F2E773B50423C4B20E46EF
:104F70001546D7210DEB03022046FCF773FF019B7A
:104F80001BBA1A0DC3F30B23328020462B8001225B
:104F90004B21FCF735FF00224B212046FCF730FF68
:104FA00002B070BD10B50A4A1378984204460DD07D
:104FB000517888420AD00BB141B90123D454FCF78F
:104FC0001DFF2046BDE81040FFF78CBF10BD00BF9D
:104FD000BC37002010B5C4B209212046FCF728FFD9
:104FE00040F00102D2B220460921BDE81040FCF792
:104FF00007BF10B5C4B209212046FCF719FF0921EB
:1050000000F0FE022046BDE81040FCF7F9BE38B5BE
:10501000C4B20D4620460A21FCF70AFF40EA050209
:10502000D2B220460A21BDE83840FCF7E9BE10B5EF
:105030000446FCF7E4FE20461F21FFF7E8FF204668
:10504000BDE81040FFF7C6BF38B5C4B20D462046D4
:105050000A21FCF7EDFE20EA0502D2B220460A2121
:10506000BDE83840FCF7CCBE10B50446FFF7C1FFE1
:1050700020461F21BDE81040FFF7E6BF10B5C0B2C3
:105080000C460B21FCF7D4FE204010BD1F21FFF77A
:10509000F5BF0A46C0B20B21FCF7B2BE1F21FFF7D5
:1050A000F8BF38B5C4B20D4620461721FCF7C0FE44
:1050B00020EA0502D2B220461721BDE83840FCF7AD
:1050C0009FBE70B5C4B2064604212046FCF7B0FE70
:1050D000042100F0FB0205462046FCF791FE304615
:1050E000F021FFF7DEFF05F0F80220460421FCF76F
:1050F00087FE492220212046FCF782FE0220FCF791
:10510000C7FE204601222121FCF77AFE20469A2282
:105110004121FCF775FE204601224A21FCF770FE72
:10512000204601224B21FCF76BFE204600224B213A
:10513000FCF766FE204601225621FCF761FE204660
:1051400001225821FCF75CFE204601224021FCF799
:1051500057FE2046FF220B21FCF752FEBDE87040AF
:105160000220FCF795BE0000054BD3F8882042F4DE
:105170007002C3F888204FF000629A60704700BF49
:1051800000ED00E008B50B4B1A6842F400721A609B
:105190001A6842F480621A601A6842F480721A60D7
:1051A000032000F02FF80020FDF77EF9FCF7FAFE4F
:1051B000002008BD003C0240034A044B11681B78E4
:1051C0000B441360704700BFC037002078000020F8
:1051D000014B1868704700BFC037002038B504463F
:1051E000FFF7F6FF631C1CBF054B1B78054618BF75
:1051F000E418FFF7EDFF431BA342FAD338BD00BF0D
:10520000780000200749CA6822F4E0620302120411
:1052100003F4E063120C134343F0BF6343F4003321
:10522000CB60704700ED00E0164B30B5DC68C4F38E
:105230000224C4F10703251D042B28BF0423062DD7
:105240004FF0FF358CBF033C002405FA03F321EA3D
:105250000303A54022EA0502A340002843EA020313
:10526000ACBF00F16040084A4FEA0313B8BF00F03A
:105270000F00DBB2AABF00F56140135480F8003381
:1052800030BD00BF00ED00E014ED00E0002807DBBA
:10529000044A4109012300F01F00834042F82130F5
:1052A000704700BF00E100E010B5044650B14379FB
:1052B00003F0FF0213B90271FCF794FE012363713E
:1052C000002010BD0120FCE710B5044620B390F883
:1052D000393003F0FF021BB980F83820FCF79AFE42
:1052E000022384F83930236861681A6822F4403256
:1052F0000A431A605A6BA16822F007020A435A63F4
:105300001A6CE1686FF30D020A431A64002001234E
:10531000E06384F8393010BD0120FCE77047704726
:10532000036870B55E681D68F207044614D5E90588
:1053300012D51A6822F480721A60C26B42F0010220
:10534000C26301229A60042380F83930002380F878
:105350003830436903B19847B20616D5AB0414D56B
:1053600023681A6822F400521A6020229A60E36BC4
:1053700043F00203E363042384F83930002384F804
:10538000383063690BB120469847300716D5290598
:1053900014D523681A6822F400621A6008229A6001
:1053A000E36B43F00403E363042384F83930002300
:1053B00084F8383063690BB12046984772070BD5E3
:1053C0006B0509D523681A6822F480621A600422EA
:1053D0009A602046FFF7A2FFB00714D5A90512D5A1
:1053E00023681A6822F400721A6002229A60E36B42
:1053F000E363012384F83930002384F838302369CB
:105400000BB120469847F20613D5EB0411D523685B
:105410001A6822F480521A6010229A60E36BE363E8
:10542000012384F83930002384F838302046FFF710
:1054300076FF70BDF0B590F83820012A03464FF092
:1054400002002BD0012283F8382083F8390003EBC7
:105450000112D2E90740556A174F44EA0040093C5F
:10546000012C9CBF05F07F4210434FEA01161A68D9
:1054700088BF40EA056091B9516A394001435162E1
:10548000012C9969916103D8596A21F07F41916299
:105490000122002083F8392083F83800F0BDD1695B
:1054A00039400143D1619919012C896911619CBF6F
:1054B00025F07F451562EBE7F0FFFC002DE9F74F83
:1054C000DFF8BC916C4A00230D6801249C4004EA7B
:1054D0000506AC4340F0B7804D68032705F0030490
:1054E0004FEA430807FA08FC671E012F6FEA0C0C0D
:1054F00034D8876807EA0C0ECF6807FA08F747EA3E
:105500000E078760476827EA060EC5F300179F401D
:1055100047EA0E074760C76807EA0C0E8F6807FA6C
:1055200008F747EA0E07022CC76019D14FEAD30AE1
:1055300000EB8A0A03F0070BDAF820704FEA8B0BB6
:105540004FF00F0E0EFA0BFE27EA0E0E0F6907FA48
:105550000BF747EA0E07CAF8207001E0032CDAD1F6
:10556000076804FA08F407EA0C073C4315F4403FC7
:10557000046068D000240194D9F8444044F4804485
:10558000C9F84440D9F8444023F0030707F18047A5
:1055900004F4804407F59C37019403F0030C019C4C
:1055A000D7F808E04FEA8C0C0F2404FA0CF42EEA2A
:1055B000040E324CA0424DD004F58064A0424BD082
:1055C00004F58064A04249D004F58064A04247D02D
:1055D00004F58064A04245D004F58064A04243D025
:1055E00004F58064A04241D004F58064A0423FD01D
:1055F00004F58064A0423DD004F58064A04214BF4D
:105600000A24092404FA0CF444EA0E04BC609468E9
:10561000F74315F4801F0CBF3C4034439460D468BA
:1056200015F4001F0CBF3C403443D460546815F49B
:10563000003F0CBF3C40344354601468ED0354BF3A
:105640003C40344314600133102B7FF43DAF03B072
:10565000BDE8F08F0024D5E70124D3E70224D1E789
:105660000324CFE70424CDE70524CBE70624C9E7CC
:105670000724C7E70824C5E7003C014000000240BA
:10568000003802400369194214BF0120002070470E
:105690000AB1816170470904FBE7436901EA03022B
:1056A00021EA030141EA02418161704701684B69C7
:1056B00013F480634FF0000210D06FF480634B61ED
:1056C0002023026380F83D3080F83E20036C80F890
:1056D0003C2043F0040303640120704718467047E0
:1056E0002DE9F84606460F4691461D464FEA114AF7
:1056F0003368BAF1010F0CBF5C699C6927EA0404A6
:10570000A4B2B4FA84F46409A14501D0002025E0D4
:105710006A1CEED0FFF75CFD089BC01AA84201D8B6
:10572000002DE5D13368BAF1010F0CBF5B699B69AD
:1057300027EA03039BB2B3FA83F35B099945D7D1F8
:1057400000232022336386F83D2086F83E30326CF9
:1057500086F83C3042F0200232640120BDE8F88631
:105760002DE9F04104460F461646984625686869BB
:1057700027EA000080B2C0B16B695A0517D52B68C3
:1057800043F400732B606FF480636B61202200236D
:10579000236384F83D2084F83E30236C43F00403F7
:1057A0002364002384F83C300120BDE8F081731CA1
:1057B000DDD0FFF70DFDA0EB0800B04201D8002EB0
:1057C000D4D123685A6927EA020292B2002ACDD0C6
:1057D00000232022236384F83D2084F83E30236C8C
:1057E0001343DDE770B504460D46164623685B6932
:1057F0001B0601D500201EE02046FFF757FFC8B961
:105800006A1CF3D0FFF7E4FC801BA84201D8002DEE
:10581000ECD123685B6913F08003E7D12022236376
:1058200084F83D2084F83E30226C84F83C3042F00D
:1058300020022264012070BD2DE9F0431546026864
:1058400085B0DDE90C789946136843F480731360E2
:105850000E463B46CDF8008000224FF00111044671
:10586000FFF73EFF236838B11B68DB0502D54FF414
:1058700000732364032620E006F0FE061E611A4929
:1058800043463A462046FFF76BFFA8B923680390CA
:105890005A6903929B690393424639462046039B0B
:1058A000FFF7A0FF064660B1236C042B01BF2268FE
:1058B000136843F4007313600126304605B0BDE859
:1058C000F083B9F1010F236802D1EDB21D61F4E755
:1058D0002A0A1A61394642462046FFF783FF00280C
:1058E000E2D12368F1E700BF020001002DE9FF4784
:1058F0009A46036815461A6842F480621A601A686C
:10590000DDE90C7842F480721A600E463B46CDF811
:10591000008000224FF001110446FFF7E1FE2368EA
:1059200038B11B68DB0544BF4FF4007323640320C8
:1059300021E05FFA86F906F0FE061E612B49434618
:105940003A462046FFF70CFFA0B9236803905A6936
:1059500003929B690393424639462046039BFFF717
:1059600041FF58B1236C042B01BF2268136843F434
:1059700000731360012004B0BDE8F087BAF1010F95
:1059800023681AD1EDB242461D6139462046FFF721
:1059900029FF02460028E5D121680B6843F4807393
:1059A0000B602046CDF800803B464FF00111FFF719
:1059B00097FE226860B11368B4E72A0A1A61394673
:1059C00042462046FFF70EFF0028CBD12368D9E7D7
:1059D00049F001031361054943463A462046FFF763
:1059E000BFFE003818BF0120C5E700BF020001005C
:1059F00070B504460D46164623685B695B0701D502
:105A000000201EE02046FFF751FEC8B96A1CF3D003
:105A1000FFF7DEFB801BA84201D8002DECD12368E4
:105A20005B6913F00403E7D12022236384F83D204F
:105A300084F83E30226C84F83C3042F0200222642C
:105A4000012070BD70B504460D46164621684B69AD
:105A500013F0400301D0002011E04A69D2060FD5AF
:105A60006FF010024A612022236384F83D2084F8FD
:105A70003E30236C2364002384F83C30012070BD49
:105A8000FFF7A6FB801BA84201D8002DDED12368BA
:105A90005B6913F04003D9D12022236384F83D20B1
:105AA00084F83E30236C1343E4E7000070B50446ED
:105AB00008B9012070BD90F83D3003F0FF021BB91A
:105AC00080F83C20FCF7C8FA242384F83D30236892
:105AD0001A6822F001021A601A6842F400421A6041
