:020000040800F2
:10000000000003205D060008492400084B24000876
:100010004D2400084F24000851240008000000006F
:10002000000000000000000000000000917C0008BB
:100030005324000800000000217D0008A37500087B
:10004000AD060008AD060008AD060008AD060008C4
:10005000AD060008AD060008AD060008AD060008B4
:10006000AD060008AD060008AD060008AD060008A4
:10007000AD060008AD060008AD060008AD06000894
:10008000AD060008AD060008AD060008AD06000884
:10009000AD060008AD060008AD060008AD06000874
:1000A000AD060008AD060008AD060008AD06000864
:1000B000AD060008AD060008AD060008AD06000854
:1000C000AD060008AD060008AD060008AD06000844
:1000D000AD060008AD060008AD060008AD06000834
:1000E000AD060008AD060008AD060008AD06000824
:1000F000AD060008AD060008AD060008AD06000814
:10010000AD060008AD060008AD060008AD06000803
:10011000AD060008AD06000855240008AD0600082D
:10012000AD060008AD060008AD060008AD060008E3
:10013000AD060008AD060008AD060008AD060008D3
:10014000AD060008AD060008AD060008AD060008C3
:10015000AD060008AD060008AD060008AD060008B3
:10016000AD060008AD060008AD060008AD060008A3
:10017000AD060008AD060008AD060008000000004E
:10018000AD060008AD060008AD060008AD06000883
:10019000AD060008AD060008AD060008AD06000873
:0C01A00061240008AD0600086D24000872
:1001B00010B5054C237833B9044B13B10448AFF3A1
:1001C00000800123237010BD800300200000000088
:1001D000F44C020808B5034B1BB103490348AFF3C5
:1001E000008008BD0000000084030020F44C0208D9
:1001F00001F0FF01102A2BDB10F0070F08D010F8D8
:10020000013B013A8B422DD010F0070F42B3F6D1DB
:10021000F0B441EA012141EA014122F007047FF0F4
:1002200000070023F0E80256083C85EA010586EA4B
:10023000010685FA47F5A3FA87F586FA47F6A5FA87
:1002400087F68EB9EED1F0BC01F0FF0102F0070293
:1002500032B110F8013B013A83EA010313B1F8D13E
:100260000020704701387047002D06BF354603381F
:10027000073815F0010F07D1013015F4807F02BF58
:10028000013015F4C03F0130F0BC0138704700BFA9
:100290007BB972B90029BEBF00204FF0004106E0D3
:1002A00008BF00281CBF6FF000414FF0FF3000F086
:1002B000D3B9ADF1080C6DE904CE002909DB002BA0
:1002C0001ADB00F04DF8DDF804E0DDE9022304B0AC
:1002D0007047404261EB4101002B1BDB00F040F80E
:1002E000DDF804E0DDE9022304B0404261EB4101A6
:1002F000524263EB43037047524263EB430300F007
:100300002FF8DDF804E0DDE9022304B0404261EBA0
:1003100041017047524263EB430300F021F8DDF8DE
:1003200004E0DDE9022304B0524263EB430370476B
:1003300053B94AB9002908BF00281CBF4FF0FF314C
:100340004FF0FF3000F088B9ADF1080C6DE904CE34
:1003500000F006F8DDF804E0DDE9022304B07047A0
:100360002DE9F047089D8E4604468846002B4AD169
:100370008A42174662D9B2FA82F64EB1C6F120031C
:1003800001FA06F820FA03F3B74043EA0808B4403C
:100390004FEA174E1FFA87FCB8FBFEF1230C0EFB49
:1003A000118843EA084301FB0CF29A4209D9FB1871
:1003B00001F1FF3080F0EA809A4240F2E780023992
:1003C0003B449A1AA3B2B2FBFEF00EFB102243EAA2
:1003D000024300FB0CFC9C4509D9FB1800F1FF32DD
:1003E00080F0D6809C4540F2D3803B44023840EAFE
:1003F0000140A3EB0C0300211DB1F3400022C5E92D
:100400000032BDE8F0878B4205D90DB1C5E9000186
:1004100000210846F5E7B3FA83F1002946D1734578
:1004200002D3824200F20581841A6EEB030201209E
:100430009046002DE5D0C5E90048E2E7002A00F02B
:100440009080B2FA82F6002E40F0A4808A1A030C43
:100450004FEA174E80B2BCB20121B2FBFEFC0EFB8C
:100460001C2243EA024304FB0CF29A4207D9FB1810
:100470000CF1FF3802D29A4200F2E080C4469B1A87
:10048000B3FBFEF20EFB123340EA034302FB04F41B
:100490009C4207D9FB1802F1FF3002D29C4200F2C5
:1004A000CA8002461B1B42EA0C40A5E7C1F12006A8
:1004B0008B4022FA06F71F430EFA01F420FA06F3E6
:1004C0002EFA06FE4FEA1749234300FA01F81FFAF5
:1004D00087FCBEFBF9F01C0C09FB10EE44EA0E444D
:1004E00000FB0CFEA64502FA01F209D93C1900F105
:1004F000FF3A80F09C80A64540F2998002383C4447
:10050000A4EB0E041FFA83FEB4FBF9F309FB1344BA
:100510004EEA044403FB0CFCA44508D93C1903F142
:10052000FF3E80F08280A4457FD9023B3C4443EAF1
:100530000040A4EB0C04A0FB02EC64457346E146CA
:1005400062D35FD05DB1B8EB030264EB090404FA37
:1005500006F622FA01F31E43CC40C5E900640021EF
:100560004FE7B1FBF2FC010C41EA0E4180B240EAD8
:1005700001423B4638463C46B846BE462026B1FBC3
:10058000F7F1A2EB080241EA0C4166E7014618E7E1
:1005900010462CE7C6F120022EFA02F3B740B14014
:1005A00020FA02F24FEA174E0A43B3FBFEF8BCB240
:1005B0000EFB1833110C41EA034108FB04F9B0406B
:1005C00089454FEA104380B23ED9791808F1FF3CC3
:1005D00001D289451FD8A1EB0901B1FBFEF909FB46
:1005E00004F80EFB191192B242EA0142424529D2A7
:1005F000BA1809F1FF31C4D24245C2D2A9F10201B1
:100600003A44BEE7F0459DD2BEEB02036CEB070C0B
:100610000138E14696E7A7EB09094944A8F1020C25
:10062000B1FBFEF909FB04F8DBE773467FE75046B0
:1006300066E70846FDE63B44023A33E7ACF1020CBC
:100640003B441CE749469CE7A1EB0901C446B1FBCA
:10065000FEF909FB04F8C4E7704700BFDFF834D0A7
:10066000002103E00C4B5B58435004310B480C4B0A
:1006700042189A42F6D30B4A02E0002342F8043BA8
:10068000094B9A42F9D304F0C3FB23F0C5FD01F0F6
:10069000EFF8704700000320684C0D0800000020B0
:1006A00064010020800300206C530120FEE77047A6
:1006B00008B500F0BDFDBDE8084000F03FBD00F00A
:1006C000B9BD704710B50421044622F019FB20463D
:1006D00010BD000038B50C4B0C4C18800C4B822020
:1006E00019806368984740F6110398420AD1094D72
:1006F00023682C60822098472B688220DB6898470B
:10070000002038BD0120FCE7A60300204C0000209B
:10071000A4030020A80300204FF4A071F020FFF7ED
:10072000D9BF0000F7B5394D2B6804461B698220FC
:100730009847208000284ED02B680DF106025B6997
:1007400001A982209847324B1B78002B4BD0BDF873
:10075000062040F674639A423FD9ADF80630BDF8E2
:1007600006209B1A9BB20A2B42D90B22B3FBF2F351
:10077000284A1288934201D9013A93B2BDF8042065
:10078000254840F6B8318A4234D8C2F571620E323B
:10079000016892B20F25B2FBF5F2204D2D88AA42D6
:1007A00084BF05F1FF35AAB28A4215468EB22AD916
:1007B000921B91B21A4E3768BB42BAB28CBF9A1ADA
:1007C000D21A92B211440529C4BF05603360036890
:1007D00063803368A38003B0F0BDB32A9CBFB4220A
:1007E000ADF80620BBE7BDF80630A3F5B473B9E752
:1007F0000023C3E7C2F56D62083292B20E2A016887
:10080000C8D800252A46891A89B2D3E7A803002050
:10081000D4340020A4030020A0030020A60300205D
:100820009C03002037B568460D461446FFF77AFF53
:10083000BDF8000030B1BDF802302B60BDF80430C7
:100840002360012003B030BD032821D8DFE800F089
:10085000020B12190F4B1A68B2FA82F252090421E4
:100860000D4804F069BD0B4B5A68B2FA82F2520986
:100870000821F5E7074B9A68B2FA82F25209102173
:10088000EEE7044BDA68B2FA82F252092021E7E778
:10089000704700BFAC03002000100240032821D89D
:1008A000DFE800F0020B12190F4B1A68003A18BF6C
:1008B000012204210D4804F03FBD0B4B5A68003A59
:1008C00018BF01220821F5E7074B9A68003A18BFC4
:1008D00001221021EEE7044BDA68003A18BF01222A
:1008E0002021E7E7704700BFAC0300200010024062
:1008F00003280DD8DFE800F00206080A04210548A5
:1009000004F01FBD0821FAE71021F8E72021F6E7DF
:10091000704700BF0010024008B5032811D8DFE877
:1009200000F0020A0C0E0421074804F0FFFC431EED
:100930005842584108BD0821F6E71021F4E720216C
:10094000F2E70020F3E700BF0010024070B5084D49
:1009500000240126E0B2FFF7DFFF18B12B68012B5E
:1009600018BF2E600134052C05F10405F2D170BDCD
:10097000AC030020012380F8781080F879307047AC
:100980007047002070470000034B4164003918BFD6
:1009900001211970704700BF2B46012070470020CD
:1009A0007047836B0BB10846184770474FF6FF70CE
:1009B0007047406803689B691847704770477047E5
:1009C0007047704710B5044600F04AFD236803499C
:1009D000D3F890302046BDE810401847000000D002
:1009E00008B503680446D3F8843098472368204646
:1009F000DB6F984700F0ECF8236820465B6F984760
:100A0000292001F00BFA00F0E3F8236820465B6F21
:100A10009847F8E710B5044609F074FF23682046AC
:100A2000D3F8BC30BDE81040184700F0FDBC00F022
:100A300001BD00F033BD00F0D3BC00F043BD00F0B9
:100A40004BBD00F0D7BC09F08BB910B5842104462A
:100A500022F056F9204610BD10B590F8341090F8E9
:100A600078400C4B8C421A7809D03AB90A4A0B49A3
:100A70001488088810800C8001221A7010BD002A8A
:100A8000FCD0054A05491488088810800C80002293
:100A9000F3E700BF24460120204601202246012022
:100AA00070B50D46194635B9094B0A4A0A4840F255
:100AB000FF2123F0A3F8C0E90F52084B003A18BFFA
:100AC00001221A700368BDE87040D3F890301847CF
:100AD0004C4E0208844E0208D24E02082A460120DB
:100AE00008B5094B1B888B4203D8084B1B889342DF
:100AF00005D9074B074A0848A32123F07FF8074B85
:100B00001980074B1A8008BD20460120224601208B
:100B1000174F02087A4F0208D24E020826460120DB
:100B200028460120034690F87A0018B158680368F7
:100B30001B68184770470000012108B500220846CD
:100B400006F0B8FD0A4B186028B90A4B0A4A28215A
:100B50000A4823F053F800220421012006F052FE37
:100B6000074B186018B9074B034A2C21F0E708BD62
:100B7000C0030020BD4F020806500208355002088D
:100B8000BC03002085500208024B4FF0FF3118686B
:100B900006F0DABDC0030020014B186806F000BE65
:100BA000C0030020024B0021186806F0CDBD00BF35
:100BB000C0030020FFF7F0BF03480449006800238A
:100BC0001A4606F05ABE00BFBC03002004000020F5
:100BD00013B5084C00231A4601A9206806F07EFED2
:100BE00020684FF0FF33002201A906F077FE02B023
:100BF00010BD00BFBC03002003685B6C18470120D8
:100C0000704703689B6A1847FEE740F2EF30704771
:100C1000054B0360054B4FF08062C3F88820BFF39B
:100C20004F8FBFF36F8F7047305D020800E100E027
:100C300010B504464FF45A61FFF7EAFF204622F050
:100C40005FF8204610BD000082B0002301930E4BD8
:100C50001A6B42F400021A631A6B02F4000201924A
:100C6000019A1A6942F400021A611A6922F4000218
:100C70001A61064B064A1A61064A5A61064B4FF042
:100C800080629A6002B0704700380240B43600209B
:100C9000E90E0008090C000800E100E008B50A2888
:100CA00009D8DFE800F006100E0808080810101038
:100CB0001000022008BD054B054A0648902122F08D
:100CC0009DFF0020F6E70120F4E700BFC7500208AF
:100CD000E25002082D51020838B50C46887FFFF714
:100CE000DDFFA58AE28A164B2169586342EA054274
:100CF0005A64628BD963521B1A642568082D0ED181
:100D00009A611A615862207F0E4A42EA0062DA61F3
:100D1000E2681A620C4A5961D9601A6038BD002233
:100D2000D8611A61E1680A0A480902F4784200F4BD
:100D3000FC600243C1F3C4010A439A63034AECE72F
:100D400000B002400900010001230200012303005A
:100D500008B50B280BD8DFE800F00612100A0A0AC3
:100D60000A0808080808022008BD0520FCE7054B12
:100D7000054A06486F2122F041FF0020F4E70120D8
:100D8000F2E700BFC75002087B5102082D5102084C
:100D90002DE9F04191F81D800C464046FFF7D8FF41
:100DA000A77F05463846FFF7D3FF06463846FFF7CC
:100DB00075FFA18A628B444B521A1A649A61228B86
:100DC000521A1A61E28A586342EA01425A6421695E
:100DD0006268D963DA602068802828D0227F0FD823
:100DE000202867D0402865D004281AD0364B45EA21
:100DF000026545F40035B845DD6161D0334A44E011
:100E0000B0F5807F04D0B0F5007FEFD1304800E02E
:100E1000304840EA0262DA61E2681A625E62596151
:100E200032E045EA026242F40032DA61F6E7A06895
:100E3000021DDA62227F45EA026545F40035DD6174
:100E40005E625961017841B1012921D0224B234AC8
:100E500023484FF48D7122F0D1FEDA69418822F4E3
:100E60007F42013922F0100242EA0122DA610121B7
:100E7000154BDA6942F02002DA61DA699206FCD495
:100E800010229A600029B9D0164A1A60BDE8F08194
:100E9000B2F1FF01DA69408822F47F4200F1FF30AD
:100EA00022F0100242EA002242F0100218BF012193
:100EB000DA61DDE745EA0262034B42F40032B4E74F
:100EC00042F20132E1E700BF00B00240012301001D
:100ED000090002000A000200C5510208DF510208A1
:100EE0002D51020801230200024B1B685868036859
:100EF0005B6918472C46012070B5044625460A4B0D
:100F00000C30002660602672667245F8203B602235
:100F1000294609F04DFE04F55A63EE6024359D42E2
:100F2000FBD1204670BD00BF305D0208034B1A683C
:100F3000D207FCD423229A60704700BF00B0024061
:100F40007047000030B50F4C2568ED07FCD4232511
:100F50000904A56041F001010225FF2B656361646E
:100F6000E0630AD00849656241EA0363E361074B25
:100F700022626061E060236030BDE561039BA36392
:100F8000034BF8E700B00240090001000100020035
:100F90000100030030B50E4C2568ED07FCD4232575
:100FA0001204A56042F001020225FF2B6563626412
:100FB000E063E16008D01B0643F00213E361054BD8
:100FC00065626061236030BD034BE3610123F9E793
:100FD00000B0024001000200020002FF30B50B4CDD
:100FE0002568ED07FCD4232512041B06A56043F4F5
:100FF0000033022542F0010265636264E063E16050
:10100000E361034B65626061236030BD00B0024064
:1010100001000200012070474020704700EB811062
:101020000830704700EB811008307047012070478E
:1010300041F68870704741F6887303FB0100083061
:10104000704741F6887303FB0100083070470120A8
:1010500070471020704700EB01100830704700EB1C
:10106000011008307047084601F090BC10B5034BE2
:101070000360044608F0C9FB204610BDE85D020885
:1010800010B50446FFF7F2FF2046482121F038FE54
:10109000204610BD10B5034B0360044608F0B5FBB5
:1010A000204610BDB45D020810B50446FFF7F2FFFC
:1010B000204641F6907121F023FE204610BD00002D
:1010C00010B5034B0360044608F09FFB204610BD9B
:1010D000805D020810B50446FFF7F2FF2046182194
:1010E00021F00EFE204610BD10B5094B03600446EA
:1010F00000F5FD501C30FFF7B9FF04F12C00FFF79D
:10110000C9FF04F11400FFF7DBFF204610BD00BF4C
:101110001C5E020808B50248FFF7E6FF08BD00BFE5
:101120009C12002010B50446FFF7DEFF204642F275
:10113000641121F0E5FD204610BD00002DE9F341CA
:1011400001F00EFA054601F00FFA0024014623468D
:1011500028462246009412F021FD274B274A1A60A8
:10116000204602F075FC264D264B274A27489A60F8
:1011700012F07CFC2B68BFF35B8FDB0736D428466C
:1011800021F0C0FD90B3224C224F234B236007F186
:101190004C0604F1140004F12C086060C4F80880C7
:1011A000E760266108F032FB1C4B6361404608F0A3
:1011B0002DFB1B4BE362384608F028FB04F58053F7
:1011C000184AC3F8BC2F07F1480003F07DFB224604
:1011D00007F14801304602F0B9FC304601F0D6FB79
:1011E000114822F029FD284621F098FD0F4802B051
:1011F000BDE8F041FFF7E6BB90460120480400201F
:1012000098120020680400204C04002008000020F0
:101210009C120020583200201C5E0208805D0208EB
:10122000B45D0208E85D020815110008C40300203F
:10123000704700000148FFF7D3BB00BFC403002084
:1012400070B5264E264C274D274B23603046FFF7BE
:1012500053FE284617F0A8FD244810F053FB244BFA
:101260002448DC6000224FF48071C3E91212224945
:101270001A86C3E91A12214983F85820C3E91E01CE
:101280001F49C3F880101F491F480B60F021C3E9B4
:101290000422C3E90622C3E90822C3E90A22C3E9FA
:1012A0000E22C3E91022C3E91422C3E917225A66A9
:1012B00083F870205A67C3E90165018013480180F3
:1012C00013484FF4A07101801248018012490A703E
:1012D000012283F83420114A1A6070BDF404002002
:1012E00094120020680400203C4E02084C040020A8
:1012F000C4030020000001010100000100045000AF
:101300001A0014002C460120204601202646012008
:10131000224601202846012024460120445C020880
:101320000148FFF775BC00BFF4040020002070479F
:1013300081807047C180704701817047418170474B
:101340007047704770477047704710B4C48803688F
:10135000121B84885B6D091B12B25DF8044B09B245
:1013600018474FF6FF7383814FF0FF330362136812
:10137000C36110607047002070478B888380012014
:101380007047704780F82610704790F82600704725
:1013900010B50022B1F90840B1F90A10028042806C
:1013A0008480C18010BD0022028042808280C28081
:1013B00070470177704780ED080A704780F8241065
:1013C000704780F8251070470120704798307047AB
:1013D0008C3070478430704770477047704700000A
:1013E000034B902283F85A2383F85823704700BF99
:1013F00000E100E0094A0A49D3680A48C3F30A0336
:10140000013B9BB20B801169C1F30A0101390180D4
:101410001364536B43F0010353637047006801404A
:101420000234002000340020014BD3F8AC00704798
:1014300000680140024B0122C3F8AC105A627047A9
:101440000068014010B52C21044621F059FC2046CB
:1014500010BD10B5BC21044621F052FC204610BD41
:1014600070B5044608F0D1FC23689D6E0EF098FF1D
:1014700001462046A8472368054AD3F88C502046E9
:10148000AC460023BDE87040A2F51631604700BFAE
:1014900000B004D008F0A0BC08F0AABC08F066BCFC
:1014A00008F0D5BD90F8252012B103685B69184794
:1014B000704790F825201AB190F8242002B11860E6
:1014C00070470000034B4FF080629A604FF08072CB
:1014D0009A60704700E100E0084B4FF08062C3F86B
:1014E0008820BFF34F8FBFF36F8F4FF08072C3F828
:1014F0008820BFF34F8FBFF36F8F704700E100E08C
:1015000070B50023124E8380124B0360336893F84A
:10151000582005460AB1D86C00B998680368DB6AA0
:1015200098473368B0FA80F4D86C640930B1036826
:10153000DB6A9847002808BF44F001042CB9064B29
:10154000064A07482C2122F059FB284670BD00BFEF
:101550002C460120305E02081D5202087B52020810
:10156000B452020870B5254E3568BFF35B8F15F095
:10157000010540D1304621F0C5FB00283BD0204C6E
:10158000204B256104F13400C4E90035C4E902555B
:10159000E584A562A58510F09AFC04F158000AF0D4
:1015A000BBFF194BA3652046184B40F8843BFFF75F
:1015B000A7FF174BC4F884302433C4F88C304FF4A1
:1015C000C803C4E928350023C4F8AC30C4F8B030EF
:1015D000C4F8B430C4F8B8300E480F4BC4F890507B
:1015E000C4F89C50C4F8A850C4F8983022F024FBEA
:1015F000304621F093FB024870BD00BF0434002048
:101600000834002044670208505E0208C85E0208E1
:10161000F8660208DD130008D866020838B5184CD1
:1016200023685BB3174B184A1B6C11888B4216D189
:10163000164B198804F088FC236893F86A2000256B
:10164000013283F86A2083F87C50FFF7B5FA2068EE
:1016500009F058F92846BDE83840FFF7F5B804F01E
:1016600073FC2468236820461B6A9847012384F88A
:101670007C300020BDE83840FFF710B938BD00BF0E
:101680002C46012000680140023400200034002074
:1016900007B5064BADF806001B68054801220DF1A1
:1016A000060105F001FA03B05DF804FB0C00002010
:1016B00060350020F7B50D4E0D4F01250421304651
:1016C00003F034FE044658B9012D09D153238DF897
:1016D0000730024603460DF10701386806F0CDF8E1
:1016E0001E2005F0DBFF2546E8E700BF001802409A
:1016F000CC34002007B50D238DF804008DF805309B
:1017000003220A2301A904488DF8063005F063FE80
:1017100003B05DF804FB00BF183500202DE9F74F3A
:101720000127DFF8A8A0DFF8A880B946BB46102142
:10173000504603F0FBFD20210446504603F0F6FD21
:1017400004210546204803F0F1FD06468CB9BBF1A3
:10175000010F0ED14FF04C0BD8F800008DF807B0F8
:10176000234622460DF1070106F087F85846FFF799
:10177000C1FF8DB9B9F1010F0ED14FF05209D8F860
:1017800000008DF807902B462A460DF1070106F060
:1017900074F84846FFF7AEFF7EB9012F0DD14227FE
:1017A000D8F800008DF80770334632460DF1070176
:1017B00006F063F83846FFF79DFF1E2005F06EFF28
:1017C0003746A946A346B2E700000240000802409F
:1017D000CC34002030B595B0102200210AA822F0A8
:1017E00014FC1422002103A822F00FFC00241E4B3D
:1017F00001941A6C42F080521A641B6C03F08053FF
:101800000193019B194B02941A6842F440421A60FA
:101810001B6803F4404302930122029B4FF4803380
:10182000CDE9082302254FF480030821CDE90E53AA
:101830004FF4B473CDE9101308A804231393129541
:1018400004F0DAFB04F09EFB0F23CDE903354FF4DF
:10185000A0504FF48053CDE90603052103A8059459
:1018600004F0A6FD15B030BD003802400070004005
:1018700080B59AB003F0DAFAFFF7ACFF142200212A
:101880000DA822F0C2FB0024C74B00941A6BC74876
:10189000DFF85483DFF8549342F010021A631A6B96
:1018A00002F010020092009A01941A6B42F020029A
:1018B0001A631A6B02F020020192019A02941A6BC9
:1018C00042F080021A631A6B02F080020292029ABE
:1018D00003941A6B42F004021A631A6B02F00402BA
:1018E0000392039A04941A6B42F001021A631A6B72
:1018F00002F001020492049A05941A6B42F002026B
:101900001A631A6B02F002020592059A06941A6B8A
:1019100042F040021A631A6B02F040020692069AE5
:1019200007941A6B42F008021A631B6B03F008035A
:10193000224607933C21079B03F0FEFC9C480122B2
:10194000022103F0F9FC22469948042103F0F4FC3B
:1019500098480122802103F0EFFC224696484FF47C
:10196000405103F0E9FC01263C23CDE90D368F48B8
:101970000F9403230DA90227109303F0F3FB8C4867
:101980000DA9CDE90D760425CDE90F4403F0EAFB5E
:1019900087480DA9CDE90D56CDE90F4703F0E2FBCD
:1019A000242384480F960DA9CDE90D3403F0DAFB0A
:1019B000802380480DA9CDE90D36CDE90F4403F011
:1019C000D1FB30237A480F960DA9CDE90D3403F0F1
:1019D000C9FB4FF4405378480DA9CDE90D36CDE948
:1019E0000F4703F0BFFB0DA974480F96CDE90D54C6
:1019F00003F0B8FB7248734B734D036003F0A8FA11
:101A0000724B2C62C5E9008328464FF48043C5E938
:101A10000434C5E90244C5E9064403F09BFE1021E5
:101A2000284604F0DFF821462846694D04F0F9F80D
:101A30004FF48273C5E900934FF4007A1823C5E987
:101A400006A328460A23C5E90244C5E90444C5E9BA
:101A50000844AC62EB6204F0CBFF8F232246394688
:101A600053488DF824308DF8344003F065FC32463D
:101A70004FF47A7309A9284605F016F84FF47A73E3
:101A800032460DA9284605F0BBF93246394648488A
:101A9000504D03F051FC9DF83430D32B04BF4E4B16
:101AA0001E704E4B0126C5E900361022402300244B
:101AB000C5E904234FF4C073C5E906344FF400634D
:101AC000C5E908344FF4005302274FF00409AB6214
:101AD0004FF0030A07230DA92846CDE90D73CDE980
:101AE0000F934FF00808C5E90249CDE911A71397F4
:101AF00004F062FE4FF6FF7209A92846CDE90A8676
:101B0000089409960C9404F077FE304603F0BAF975
:101B10004FF6FF7209A92846CDE90978CDE90B6493
:101B200004F06AFE4FF6FF7209A92846CDE909A81C
:101B3000CDE90B9404F060FE4FF40C730893089BFE
:101B40000C934FF6FF7209A92846CDE909980B9628
:101B500004F052FE40F26A51284604F06BFE342233
:101B60000DEB0200214622F050FA1D4D1D4B2C6159
:101B7000C5E900340923C5E905361D23C5E9073A3F
:101B800040F20D1140F24313C5E9091340F217105A
:101B900040F24713C5E90B032846C5E90244AC8669
:101BA00085F8364024E000BF0038024000100240B3
:101BB0000008024000000240000C024000180240F1
:101BC000F43600200030024060360020A08601007C
:101BD00060350020E4340020D4340020400100A00F
:101BE000B835002000680140005C00400050014012
:101BF00004F0B2F8FF214FF4806CF022CDE912140A
:101C00000521CDE914C14FF4A0730DA9CDE90E242F
:101C1000CDE9164228462246324D1893CDE91037B9
:101C20000D94ADF864408DF8664004F060F92E4BD9
:101C30002B601B6898472B682C4DDB6898472C4B12
:101C40002846C5E90034C5E90274C5E90A47C5E973
:101C50000C4403F08DF93146284603F03FFADFF8D3
:101C6000C8E024484FF4E133C0E900E30C23C0E9A5
:101C70000534C0E902440461C46105F07DFBFEF750
:101C800017FDFEF714FD05F099FC22463946304653
:101C900005F0B8FD184B2246186031460A2005F0C1
:101CA000B1FD164B224618603146404605F0AAFDAC
:101CB000134B144A18602146134805F0ABFC134B34
:101CC000134A18602146134805F0A4FC124B134A2E
:101CD00018602146124805F09DFC124B186005F073
:101CE0007FFCFEE7C434002014000020B43600203E
:101CF00000B0024018350020D0340020CC34002041
:101D0000C8340020545F02081D170008E03400208A
:101D1000305F0208BF060008DC3400200C5F0208B8
:101D2000B5160008D83400200010014070477047F5
:101D30007FB5094B8DF817201B6802930DF1170230
:101D40000123009201930A460146044803F0AAFDCC
:101D500007B05DF804FB00BF1000002060360020D3
:101D60007FB500238DF81730084B1B6802930A4695
:101D700001230DF11701009101930146044803F07E
:101D800021FE9DF8170007B05DF804FB100000204D
:101D9000603600201FB5084C24680092CDE901345C
:101DA0000A4601230146054803F00CFE003818BF1F
:101DB000012004B010BD00BF1000002060360020DC
:101DC00003F060B810B5064C00222046042103F051
:101DD000B3FA20460122BDE81040042103F0ACBA5A
:101DE0000008024038B50B4D044601220A484FF462
:101DF000005103F0A1FA00220421284603F09CFAC6
:101E00002046FFF745FC28460122BDE83840042162
:101E100003F092BA00080240000C024038B50B4DA6
:101E2000044600220A484FF4005103F085FA0022CC
:101E30000421284603F080FA2046FFF729FC2846B3
:101E40000122BDE83840042103F076BA00080240C0
:101E5000000C0240F7B5144E144F05460C463046B0
:101E60000022042103F068FA00224FF400513846A2
:101E700003F062FA2846FFF70BFC0D4B0D481B6878
:101E8000224601A904F0BCFF384601224FF400515C
:101E9000019C03F051FA30460122042103F04CFA70
:101EA000204603B0F0BD00BF00080240000C024015
:101EB0000C0000206035002002F0E4BF0268034BF4
:101EC0009A4201D102F0CCBF704700BF0010004021
:101ED0007047000082B00E4B00220092596C41F412
:101EE00080415964596C01F480410091009901923C
:101EF000196C41F0805119641B6C03F080530193FD
:101F0000019B0F216FF0010002B002F0E1BF00BFA2
:101F1000003802400268094B9A4282B00BD100237C
:101F20000193074B1A6B42F480521A631B6B03F444
:101F300080530193019B02B0704700BF0030024004
:101F40000038024007B50F4B02689A4216D10022B2
:101F5000A3F5F0430192196B41F4000119631B6B67
:101F600003F40003019305215A20019B02F0B0FF06
:101F70005A2003B05DF804EB02F0DCBF03B05DF85B
:101F800004FB00BF00B002402DE9F043044689B0D5
:101F90001422002103A822F038F82268244B9A4228
:101FA00043D1244C244800250095236B43F00403BF
:101FB0002363236B03F004030093009B0195236BC1
:101FC00043F001032363236B03F001030193019B9F
:101FD0004FF012094FF400734FF001080327042655
:101FE00003A9CDE90339CDE90587079603F0BAF8CF
:101FF0004FF480731148079603A9CDE90339CDE961
:10200000058703F0AFF80295236C43F400032364C3
:10201000236C03F400030293029B236A43F400033E
:102020002362236A23F40003236209B0BDE8F0832E
:10203000005C0040003802400008024000000240FE
:10204000F0B599B004461422002107A821F0DDFF65
:1020500030220DEB0200002121F0D7FF22685E4BF9
:102060009A4240F0B78008230C93C02310930423B6
:1020700012930CA84FF40033159304F071FA08B1D1
:10208000FFF726FF554B5648002400945A6C42F047
:1020900080625A645A6C02F080620092009A019445
:1020A0001A6B42F020021A631A6B02F020020192AE
:1020B000019A02941A6B42F001021A631A6B02F041
:1020C00001020292029A03941A6B42F002021A630E
:1020D0001A6B02F002020392039A04941A6B42F004
:1020E00040021A631A6B02F040020492049A0594AB
:1020F0001A6B42F004021A631A6B02F00402059292
:10210000059A06941A6B42F008021A631B6B03F0DF
:102110000803069302250E26069B0B964FF4806358
:1021200007A9CDE90735CDE9094503F01BF841F6CC
:1021300058032C480B9607A9CDE907350927CDE9A7
:10214000094503F00FF8032327480B9707A9CDE9AA
:102150000735CDE9094503F005F84FF470632248CF
:102160000B9607A9CDE90735CDE9094502F0FAFF3D
:102170004FF40C631D480B9607A9CDE90735CDE94F
:10218000094502F0EFFFC02319480B9607A9CDE9D6
:102190000735CDE9094502F0E5FF082315480B9600
:1021A00007A9CDE90735CDE9094502F0DBFF4FF47A
:1021B000A0530E480B9707A9CDE90735CDE909458E
:1021C00002F0D0FF58202246052102F081FE58205F
:1021D00002F0B0FE19B0F0BD0068014000380240C6
:1021E00000140240000002400004024000180240B7
:1021F00000080240000C024010B5044688B01422CA
:10220000002103A821F001FF2268144B9A4223D138
:1022100003F56843002101915A6C114842F4801281
:102220005A645A6C02F480120192019A02911A6B5C
:1022300042F020021A631B6B03F020030293029BFF
:102240004FF4607202230321CDE903230523CDE976
:10225000061303A902F086FF08B010BD005001402C
:102260000014024010B5044688B01422002103A8CF
:1022700021F0CBFE2268144B9A4223D103F594330C
:10228000002101915A6C114842F010025A645A6CB4
:1022900002F010020192019A02911A6B42F00102BF
:1022A0001A631B6B03F001030293029B4FF4C0629D
:1022B00002230321CDE903230723CDE9061303A954
:1022C00002F050FF08B010BD0010014000000240B5
:1022D0002DE9F04186B0002303932B4B1C68002CA2
:1022E0004FD14FF00108C3F80080284B00949A6B3F
:1022F000274842EA08029A639B6B03EA08030093AB
:10230000022703260C25009B01A94FF63F03CDE9C8
:102310000137CDE9046502F025FF1E48059501A9A6
:10232000CDE90187CDE9034602F01CFF48F23313E3
:102330001948059501A9CDE90137CDE9034602F019
:1023400011FF4FF683731548059501A9CDE90137B3
:10235000CDE9034602F006FF4CF2037310480595E1
:1023600001A9CDE90137CDE9034602F0FBFE602368
:102370000C48059501A9CDE90137CDE9034602F0E6
:10238000F1FE06B0BDE8F081FC36002000380240C6
:1023900000140240000802400018024000100240F1
:1023A000000C02400004024070B588B00023029384
:1023B000204B1A6C42F010021A641B6C03F01003DD
:1023C0000293054601A903A8029B04F0ABF8069B03
:1023D0004BBB04F087F8184E184B336040F2E733DC
:1023E000F360174BB0FBF3F3013B736030460023FF
:1023F0003361B360B36104F0D3FE044680B9304664
:1024000004F0A4FD044658B9362002F093FD0F2DC8
:102410000DD822462946362002F05AFD094B1D6090
:10242000204608B070BD04F05DF84000D3E70124F9
:10243000F6E700BF003802400037002000100040DF
:1024400040420F007C0000207047FEE7FEE7FEE7F9
:10245000FEE77047014804F0B7BD00BF0037002019
:10246000014803F0E7BC00BFB8350020014802F086
:10247000ABBD00BFB43600200120704708B521F085
:10248000C5FE162303604FF0FF3008BD08B521F0EC
:10249000BDFE16230360FEE770B50D4614460E46DA
:1024A000731B9C4201DC204670BDAFF3008006F830
:1024B000010BF5E770B50D4614460E46731B9C42A2
:1024C00001DC204670BD16F8010BAFF30080F5E784
:1024D0004FF0FF3070474FF400534B6000207047BF
:1024E00001207047002070470A4A116808B503466A
:1024F00009B9094911601068694603448B4206D93D
:1025000021F084FE0C2303604FF0FF3008BD136000
:10251000FCE700BF4837002070530120704710B51A
:102520000421044620F0ECFB204610BD08B5032929
:1025300013D8DFE801F002060A0E01F0D5FA0068B0
:1025400008BD01F0D1FA4068FAE701F0CDFA8068E1
:10255000F6E701F0C9FAC068F2E70020F0E70000F2
:10256000004870478C5F02081520704713B500249F
:1025700051B1036801948DF8034001AA9C680DF1E4
:102580000303A04702B010BD0846FBE7C0897047AF
:10259000008A7047C088704780887047807A00F052
:1025A0007F007047807AC0097047002070470000A4
:1025B0009FED010A704700BF00000000704710B592
:1025C0000821044620F09CFB204610BD7047704750
:1025D00000F598730868496803C3704770477047EF
:1025E0004160704770477047064BC0F84C3100237C
:1025F000C0F8503100F5A273C0F84801C0F840316E
:10260000704700BF8127000801230372704770479D
:10261000704710B4C26841685410034601EB620071
:10262000D20748BF0A599B685DF8044B48BFD3588E
:1026300018470346406830B19A681AB9D86800F064
:10264000010070470120704710B50C21044620F0AE
:1026500057FB204610BD10B51021044620F050FB5A
:10266000204610BD10B54FF4AE71044620F048FB73
:10267000204610BD10B54021044620F041FB204605
:1026800010BD10B50DF08CFE0368BDE81040DB6B8B
:1026900018470000054B1B7801462BB1406818B164
:1026A00003680C315B6E1847704700BF2B46012052
:1026B000037A70B50546BBB940680368DB69984783
:1026C00004463CB96868036805F10C011B6EBDE85F
:1026D00070401847E1886B8FC91A236820465B6BEE
:1026E00009B29847A469ECE770BD10B50446D0F86C
:1026F000400158B10368DB68984738B1D4F840010D
:1027000003689B6898470023C4F8403110BD70B53A
:10271000044690F8390094F838300130C0B298423D
:1027200084F8390005D901232372002384F8393055
:1027300070BDB4F93A20002110F054F8C30706D553
:1027400000284FF6FF73C8BF0123184400B2638A04
:10275000C01AA08760680368DB69984705462DB9F1
:1027600060680368BDE870405B691847E988A38F1B
:1027700019442B6828465B6B09B29847AD69EEE7B0
:102780002DE9F14FD0E9556A0746B06803681B6A26
:102790009847B0F5D07F05D2444B454AA321454820
:1027A00021F02CFA706803681B6A98470F2803D839
:1027B000414B3F4AA421F2E7F06803681B6A98473F
:1027C0000B2803D83D4B3A4AA521E8E70DF0E8FD78
:1027D000DFF8F09004300DF021FED9F8000010B1C0
:1027E0000368DB689847D9F8000010B103681B68DC
:1027F0009847DFF8D480D8F8000010B103685B690F
:102800009847D7F83C0110B103685B689847D8F83F
:10281000000010B103681B689847D7F83C0110B15D
:1028200003689B689847F068036800215B6A9847D3
:102830004FF0000B224BC0F804B0044680F808B0FB
:102840000360B068036859465B6A9847054601F023
:10285000B7F97068036859465B6A98472946064687
:1028600001F08CF9331DC7F83C61C9F80040C8F885
:102870000050CAF800302B68C6F808A02846DB686C
:10288000EE639847336830461B68984721462846D0
:102890000FF0A2FF236820461B69984723685B69F5
:1028A000204601B0BDE8F04F184700BF5A53020858
:1028B000E8530208C85402080F550208B25502082E
:1028C000B46102087446012070460120044B1B6865
:1028D00093F858200AB1D86C00B99868704700BFC7
:1028E0002C460120F8B5174604460E460DF064FE4E
:1028F000124B1C60124B2360124B0025C4E951356A
:10290000114BC4E953551868036801219B68C4E959
:102910004F55C4E955769847284601F099F8FFF7D6
:10292000D5FF18F0EAF8FFF7D1FF18F061F9FFF7CB
:10293000CDFF18F069F92046F8BD00BF80460120A0
:1029400060610208486102082C460120064BC0F86D
:102950004C310023C0F8503100F5A273C0F8480193
:10296000C0F84031704700BFBD2C0008064BC0F8CE
:102970004C310023C0F8503100F5A273C0F8480173
:10298000C0F84031704700BF812B0008064BC0F8EB
:102990004C310023C0F8503100F5A273C0F8480153
:1029A000C0F84031704700BF81270008064BC0F8CF
:1029B0004C310023C0F8503100F5A273C0F8480133
:1029C000C0F84031704700BF492A000803685B6ABD
:1029D000184700002DE9F04105460026164B4660D9
:1029E000067245F80C3B044628460F460AF09EFB4B
:1029F000124B84F838701B7884F83960A68723B9A5
:102A0000012323722046BDE8F0810D4AE3680D4F93
:102A1000B2F900109B6B26612846B7F900809847F1
:102A2000E3684146DB6B2846984728460AF0F9FAE6
:102A30003B886387E6E700BFD86102082B46012088
:102A400020460120224601202DE9F047D0E9556AB1
:102A50000746B06803681B6A9847B0F5D07F05D277
:102A6000404B414AA321414821F0C8F870680368EF
:102A70001B6A98470F2803D83D4B3B4AA421F2E735
:102A8000F06803681B6A98473F2803D8394B364AD9
:102A9000A521E8E70DF084FCDFF8DC9004300DF0B0
:102AA000BDFCD9F8000010B10368DB689847D9F87D
:102AB000000010B103681B689847DFF8C080D8F8A1
:102AC000000010B103685B699847D7F83C0110B16A
:102AD00003685B689847D8F8000010B103681B686A
:102AE0009847D7F83C0110B103689B689847F06895
:102AF0000021FFF76BFF14210446FFF76BFFB0685E
:102B0000036800215B6A9847054601F059F8706830
:102B1000036800215B6A98472946064601F02EF8B3
:102B2000331DC7F83C61C9F80040C8F80050CAF826
:102B300000302B68C6F808A02846DB68EE6398478B
:102B4000336830461B689847214628460FF044FEFC
:102B5000236820461B699847236820465B69BDE8C7
:102B6000F04718475A53020855560208C85402083D
:102B70000F550208B2550208744601207046012024
:102B80002DE9F047D0E9556A0746B06803681B6A2B
:102B9000984741F68773984205D8414B414AA32193
:102BA000414821F02BF8706803681B6A98470F288A
:102BB00003D83E4B3B4AA421F2E7F06803681B6A46
:102BC00098473F2803D83A4B364AA521E8E70DF04D
:102BD000E7FBDFF8E09004300DF020FCD9F80000AE
:102BE00010B10368DB689847D9F8000010B103689A
:102BF0001B689847DFF8C080D8F8000010B1036860
:102C00005B699847D7F83C0110B103685B68984747
:102C1000D8F8000010B103681B689847D7F83C014A
:102C200010B103689B689847F0680021FFF7CEFE5B
:102C300014210446FFF7CEFEB068036800215B6AEA
:102C40009847054601F07AFC7068036800215B6ACA
:102C500098472946064600F0CDFF331DC7F83C6172
:102C6000C9F80040C8F80050CAF800302B68C6F810
:102C700008A02846DB68EE639847336830461B6837
:102C80009847214628460FF0A7FD236820461B6978
:102C90009847236820465B69BDE8F047184700BFA6
:102CA0005A53020849570208C85402080F5502082F
:102CB000B255020874460120704601202DE9F04704
:102CC000D0E9556A0746B06803681B6A9847DB2855
:102CD00005D8414B414AA321414820F08FFF70683D
:102CE00003681B6A98470F2803D83E4B3B4AA42130
:102CF000F2E7F06803681B6A98473F2803D83A4B0D
:102D0000364AA521E8E70DF04BFBDFF8E0900430F0
:102D10000DF084FBD9F8000010B10368DB68984718
:102D2000D9F8000010B103681B689847DFF8C0802D
:102D3000D8F8000010B103685B699847D7F83C01E8
:102D400010B103685B689847D8F8000010B10368B9
:102D50001B689847D7F83C0110B103689B689847F7
:102D6000F0680021FFF732FE14210446FFF732FE1F
:102D7000B068036800215B6A9847054601F098FD3A
:102D80007068036800215B6A98472946064601F08F
:102D90006FFD331DC7F83C61C9F80040C8F800500A
:102DA000CAF800302B68C6F808A02846DB68EE6336
:102DB0009847336830461B689847214628460FF0ED
:102DC0000BFD236820461B699847236820465B69F2
:102DD000BDE8F047184700BF5A5302083D580208A3
:102DE000C85402080F550208B25502087446012063
:102DF00070460120704770477047704770477047B2
:102E00007047704730B4C26844685510034604EBFD
:102E10006200D20748BF62599B6830BC48BFD35894
:102E200018470346406830B19A681AB9D86800F06C
:102E3000010070470120704710B5102104461FF0B3
:102E40005FFF204610BD10B54FF4D07104461FF04F
:102E500057FF204610BD38B500F1E0039942044603
:102E60000D4603D10DF09CFAFFF780FD04F58A743E
:102E7000A54205D10DF094FABDE83840FFF766BDD4
:102E800038BD70B5036804461B6B15469847236828
:102E9000294620465B6BBDE8704018470022C0E918
:102EA0000122C0E90322C0E90522C0E907224FF44C
:102EB00080728284014A0260704700BFFC61020890
:102EC00010B526220446002121F09FF82046FFF786
:102ED000E5FF0A4B23600A4BA3624FF6FF73A385FD
:102EE0004FF47F020023C4E90C3223874FF0FF32F6
:102EF000C4E91023E363204610BD00BF8C690208BB
:102F00003861020810B526220446002121F07DF820
:102F10002046FFF7C3FF0023A36284F82C3001236F
:102F200084F82430044B23604FF6FF7384F832306A
:102F3000E3852386204610BD846A02082DE9F04F00
:102F400004468BB0264600250FF09AFA714BE563D4
:102F500046F8403B26273A462946304621F055F8A8
:102F60003046FFF79BFF04F16C084FF0FF396A4BC6
:102F700023643A464FF6FF73294684F86690A566A7
:102F80004046ADF8203021F040F84046FFF786FF7C
:102F9000624BE366BDF82030A4F8923008A904F132
:102FA000980A84F8949040460AF0EDFD04F1E00B95
:102FB0005046FFF785FF5846FFF7A4FF04F58A73D4
:102FC00004F5A47918460193FFF79CFF4846FFF7E4
:102FD00077FF534BC4E96434524B2A46C4E9663543
:102FE00029463046FFF74DFF3046F021FEF7A4F9A1
:102FF00030464FF4A071FEF7A1F9271D4FF07F4333
:10300000A3663146384606F015FC2A462946404656
:10301000FFF737FF072308A94046ADF820300AF034
:10302000B2FD4146384606F005FC02AEDFF8FC80F2
:103030007F2250468921FFF724FFA4F8CC50514647
:103040003046C4F8C8800AF0CBF996E8070004F1CE
:10305000D40383E80700344B089308A95046ADF821
:1030600024500AF065FC5146384606F0E3FB58460A
:10307000FF222821FFF705FF0D22ADF81C200E22AC
:10308000ADF8202007A908AA584604F5C87A0AF026
:10309000ADFC59463846C4F808A106F0CBFB0198B0
:1030A000BE222821FFF7EDFE0822ADF81C200922E0
:1030B0000198ADF8202007A908AA0AF097FC019909
:1030C000C4F83CA1384606F0B5FB5D22484689218C
:1030D000FFF7D7FEA4F87C5149463046C4F8788102
:1030E0000AF07EF996E807000F4B089304F5C275C5
:1030F00085E80700012308A94846ADF824300AF006
:1031000017FC3846494606F095FB20460BB0BDE853
:10311000F08F00BF7C6202081C6A0208F86A02088D
:1031200064620208572E0008386102080000FFFFA1
:1031300070477047704730B4C26844685510034602
:1031400004EB6200D20748BF62599B6830BC48BF9D
:10315000D35818470346406830B19A681AB9D868FE
:1031600000F0010070470120704710B5102104469F
:103170001FF0C6FD204610BD10B54FF42771044660
:103180001FF0BEFD204610BD38B500F5BA73994258
:1031900004460D4603D10DF003F9FFF7D7FB04F504
:1031A000EE74A54205D10DF0FBF8BDE83840FFF7FD
:1031B000FDBB38BD38B5262204460D46002120F05F
:1031C00024FF2046FFF76AFE064B23602B88E3842A
:1031D000FF23204684F8283029460AF0D4FC2046F4
:1031E00038BD00BFF86A02082DE9F04F044691B0DF
:1031F000274600250FF044F9BB4BE56347F8403BF9
:1032000026222946384620F000FF3846FFF746FEC2
:10321000B64B236404F16C0BFF234FF6FF7684F862
:10322000663004F1980AA5660EA9584604F1C4094F
:10323000ADF83860FFF7BEFF0EA95046ADF8386014
:10324000FFF7B8FF0EA94846ADF83860FFF7B2FFA8
:1032500004F1F0030EA918460193ADF83860FFF7AA
:10326000A9FF04F58E730EA918460293ADF83860D5
:10327000FFF7A0FF04F5A4730EA918460393ADF859
:103280003860FFF797FF04F5BA7318460493FFF709
:1032900039FE04F5D47318460593FFF733FE04F5A1
:1032A000EE7318460693FFF72DFE04F5047304F53C
:1032B000117818460793FFF725FE29462622404637
:1032C00020F0A3FE4046FFF7E9FD894B894AC4F888
:1032D0004432894BC4F86C32C4E9A3244FF47F0311
:1032E000864AC4F878324FF0FF33C4E9A135C4E907
:1032F000A525A4F870622A46C4F87452A4F87C523A
:10330000C4F8805229463846FFF7BBFD3846F02105
:10331000FEF712F838464FF4A071261DFEF70EF89E
:103320004FF07F42A2663946304606F083FA2A46BD
:1033300029465846FFF7A5FD02270EA95846ADF8C5
:1033400038700AF020FC5946304606F073FA5046B1
:10335000D7221421FFF795FD10220EA95046ADF893
:1033600038200AF010FC5146304606F063FA484611
:10337000F5226E21FFF785FD03220EA94846ADF820
:1033800038200AF000FC4946304606F053FA01980E
:1033900040F213123C21FFF774FD04220198ADF8AE
:1033A00038200EA90AF0EFFB0199304606F042FAE8
:1033B000029840F213123C21FFF763FD05220298A8
:1033C000ADF838200EA90AF0DEFB0299304606F06F
:1033D00031FA039840F213123C21FFF752FD062206
:1033E0000398ADF838200EA90AF0CDFB03993046BA
:1033F00006F020FA04982A46C221FFF742FD0A226D
:103400000498ADF83420ADF838200DA90EAA04F5C3
:1034100023790AF0EBFA0499C4F89C91304606F03F
:1034200009FA05980122A921FFF72BFD0B22ADF81F
:1034300034200C220598ADF838200DA90EAA0AF008
:10344000D5FA0599304606F0F5F90698012285214E
:10345000FFF717FD0F220698ADF83420ADF838209D
:103460000DA90EAA0AF0C2FA0699C4F804923046D1
:1034700006F0E0F907982A466C21FFF702FD1422B6
:10348000ADF8342013220798ADF838200DA90EAA04
:103490000AF0ACFA0799304606F0CCF9082240460B
:1034A0001C21FFF7EEFC4FF0FF33A4F8785208AD73
:1034B000C4F874324146284609F092FF95E80700A7
:1034C00004F5207383E807000B4B0E930EA94046CA
:1034D000ADF83C700AF02CFA3046414606F0AAF9E5
:1034E000204611B0BDE8F08FC86202081C6A0208CD
:1034F0008C690208B062020838610208893100084C
:10350000406A7047806A704770478A880B8810B598
:10351000D20A4C88C1699BB251F8220043EA0443A5
:10352000184410BD10B50446BAB1107B68B1537B86
:10353000D27A1B0203F4E0631A43236A03EB82038B
:103540001A888A4202D193F9020010BD05D80138C9
:1035500080B204330028F3D1F7E70020F5E710B577
:103560002C2104461FF0CCFB204610BD30B58BB09B
:103570000446BDF860500895BDF85C5007959DF86D
:10358000505006959DF84C5005959DF8485004956F
:103590009DF8445003959DF8405002959DF83C508D
:1035A0000195BDF8385000950EF04EFD064B236096
:1035B000159BE361169B2362199B63621A9BA362AE
:1035C00020460BB030BD00BFFC6202087047704758
:1035D000704730B4C26844685510034604EB62007B
:1035E000D20748BF62599B6830BC48BFD3581847C0
:1035F0000346406830B19A681AB9D86800F00100F3
:1036000070470120704710B5102104461FF078FB69
:10361000204610BD10B5DC2104461FF071FB20468A
:1036200010BD9830884208B505D10CF0B9FEBDE850
:103630000840FFF79BB908BD2DE9F347044626462D
:1036400000250EF01DFF494BE56346F8403B4FF067
:10365000260A52462946304620F0D7FC3046FFF76E
:103660001DFC04F16C07424B23644FF0FF084FF63A
:10367000FF795246294684F86680A5663846ADF83B
:10368000049020F0C2FC3846FFF708FC394BE36693
:10369000BDF80430A4F8923084F8948001A904F1B4
:1036A000980838460AF06FFA52462946404620F0FC
:1036B000ACFC4046FFF7F2FB2F4BC4F898302F4B81
:1036C000A4F8C690C4E933342D4BA4F8C8904FF049
:1036D000010A2A46C4E9353584F8CA90294630469D
:1036E000C4F8C05084F8C45084F8BCA0FFF7C9FBEC
:1036F0003046F021FDF720FE30464FF4A071FDF773
:103700001DFE04F104094FF07F43A366314648468D
:1037100006F090F82A4629463846FFF7B2FB01A981
:103720003846ADF804A00AF02EFA3946484606F0AD
:1037300081F8404692224621FFF7A3FB1123ADF802
:10374000003001AA122369464046ADF804300AF061
:103750004DF904F1CC034846C4F8C030414606F0A8
:1037600069F8204602B0BDE8F08700BF7C6302081C
:103770001C6A0208F86A0208846A02086463020884
:10378000233600087047000030B5164D2C6814F041
:1037900001048FB0BFF35B8F20D128461FF0B2FA2F
:1037A000E0B13F230993104B0893104B1049114887
:1037B0000A940122CDE906430423CDE903320A230A
:1037C0000093CDE90B44CDE901440594FFF7CEFE0B
:1037D000094820F031FA28461FF0A0FA05480FB03A
:1037E00030BD00BF4C370020807902089079020874
:1037F000A87802085037002085370008704700007D
:1038000030B5164D2C6814F001048FB0BFF35B8FF8
:1038100021D128461FF076FAE8B13F230993104BD7
:103820000893104B104911480A94CDE90643012230
:103830000423CDE90332122300930822CDE90B447F
:10384000CDE901440594FFF791FE094820F0F4F911
:1038500028461FF063FA05480FB030BD7C370020C2
:103860008479020894790208B87802088037002029
:10387000FD3700087047000030B5164D2C6814F075
:1038800001048FB0BFF35B8F21D128461FF03AFAB5
:10389000E8B13F230993104B0893104B104911488E
:1038A0000A94CDE9064301220423CDE9033219230A
:1038B00000930522CDE90B44CDE901440594FFF7BF
:1038C00055FE094820F0B8F928461FF027FA0548A8
:1038D0000FB030BDAC370020887902089879020813
:1038E00028790208B03700207538000870470000BA
:1038F00030B5164D2C6814F001048FB0BFF35B8F08
:1039000020D128461FF0FEF9E0B13F230993104B68
:103910000893104B104911480A940122CDE906433F
:103920000423CDE9033228230093CDE90B44CDE9EC
:1039300001440594FFF71AFE094820F07DF9284656
:103940001FF0ECF905480FB030BD00BFDC37002098
:103950008C7902089C79020870790208E03700200F
:10396000ED38000800207047002070470EB403B502
:1039700003AB002153F8042B01930DF0E3FD02B0DB
:103980005DF804EB03B070470CB407B504AB53F813
:10399000042B01930DF0D6FD03B05DF804EB02B0EB
:1039A00070470000436C10B5044673B3038F2BB906
:1039B000184B194AC521194820F020F9C38E00EB95
:1039C00043035B8C0BB30FF0C0FC238F012B03D898
:1039D000134B144ACB21EEE7E28E531C9BB2092B0A
:1039E000194688BFA3F10A0104EB410140F63F10DC
:1039F000498C814209D10A2B04EB420228BF0023E3
:103A000004EB4303508C588451842046BDE8104099
:103A10000FF09EBB2959020832590208DD590208ED
:103A2000275A0208355A02080FF059BB10B586B064
:103A300002AC84E806001A460AAB05930193099B81
:103A400000932146089B0CF02DF806B010BD000035
:103A500038B518BB124B13481C681349B4B122681F
:103A600022440260626822440A60A26814440F4B38
:103A700000221A8000F038F8054600F033F80C4BAD
:103A80001C600C4B1D600C4B188007E00B4B036057
:103A90000B4B0B600B4B1C68002CE8D138BD00BFF2
:103AA00018380020103800200C380020143800206E
:103AB000844601208C46012088460120AC7902080A
:103AC000A0790208CC790208044B1B6853F8210046
:103AD000034B1B6803EB4000704700BF0C3800200D
:103AE0001038002003207047004870471C38002021
:103AF00010B5FFF785FE064C2060FFF7F9FE606009
:103B0000FFF742FEA060FFF7B7FEE06010BD00BF08
:103B10001C38002010B5002404600C6014601C6088
:103B200010BD704710B54FF4AE7104461FF0E8F8B1
:103B3000204610BD10B50446D0F8580100F0C7FE6D
:103B40002046BDE810400CF0C7BC000010B504468C
:103B5000FEF7C8FE014B2360204610BDB06302088B
:103B6000704704387047704710B5102104461FF0A5
:103B7000C7F8204610BDA0F10400F5E700228260DE
:103B8000024A026018324260C16070470464020851
:103B90007047000010B5034B03600446FFF730F98F
:103BA000204610BD2C64020810B50446FFF7F2FF52
:103BB00020464FF4D0711FF0A3F8204610BD00003E
:103BC00010B50446FFF7BAF9014B2360204610BD3B
:103BD0002C640208FFF715B9704704387047704726
:103BE00010B5102104461FF08BF8204610BDA0F13F
:103BF0000400F5E700228260024A02601832426047
:103C0000C16070476064020870477047704730B405
:103C1000C26844685510034604EB6200D20748BFEF
:103C200062599B6830BC48BFD35818470346406868
:103C300030B19A681AB9D86800F0010070470120C5
:103C4000704781857047808D704700F58053002252
:103C500000F5F35083F88D2E08300DF09DBD10B5A2
:103C6000442104461FF04CF8204610BD10B5102129
:103C700004461FF045F8204610BD000038B5094B3A
:103C8000036004464FF4EF55B5F5547F05D06359F2
:103C900060191B689847443DF6E72046FFF749FA4C
:103CA000204638BD1465020810B50446FFF7E6FF4C
:103CB000204641F688711FF023F8204610BD08B554
:103CC00090F828300BB1FDF7EDFB08BD08B5054BAA
:103CD0001B682BB9044B054A054894211FF08EFF41
:103CE00008BD00BFBC460120075B0208435B020819
:103CF000765B02080268D0ED0E0AD26EB0EE401A72
:103D000090ED0D0A10472DE9F34100F5F355083504
:103D10000446032304F5805701A9284604F5F55607
:103D2000ADF804304FF0010809F02DFF0C36D72212
:103D300028465A21FFF7A5F82946304687F88D8E88
:103D400005F078FD04F5F15428460DF025FD043406
:103D500004230DEB03012046ADF8043009F013FFF6
:103D6000D72220465A21FFF78CF8304687F8498E33
:103D7000214605F05FFD204602B0BDE8F0410DF0A0
:103D80000BBD00002DE9F04F234B87B000250493B5
:103D900000F5F55A03F102130746059300F52B7958
:103DA000A8460AF10C0A2BB2009307EB08064B4613
:103DB000002453F8041F019306AB03EB4101D6F82E
:103DC000942331F8081C126EADF80C1006F5657BD3
:103DD00003A95846904721B2009A5846FFF751F878
:103DE00014344FF0010386F8B93359465046A4B253
:103DF00005F020FDC82C019B06F14406D9D108F539
:103E00002A7840F648531535984509F12809ADB28E
:103E1000C9D107B0BDE8F08F030004002DE9F041DF
:103E20002DED028B00F5805500F5F35684B0B5F901
:103E3000287EB5F92A8EB5F84A3EADF80830083626
:103E4000044602A9304609F09EFE424639463046F5
:103E50000127FFF716F8304685F88D7E0DF09CFCA3
:103E6000D4EDA77A9FED297A67EE877A9FED287ABD
:103E700067EE877A9FED277A87EE878AB0EE480A49
:103E80001EF0CAFFF1EE007A20EE270A84EDA80AA0
:103E9000B0EE480A1EF07CFF1F4B029303F10213A1
:103EA00003931E4AD4F8AC3284F8A87252F8232047
:103EB0003B445942F9EE007A01F0070120EE270A4F
:103EC00003F0070358BF4B42C4F8AC3204AB84ED97
:103ED000A90A03EB420304F5F154043433F8083C17
:103EE000ADF8043001A9204609F04DFE2046D72246
:103EF0005A21FEF7C6FF204685F8497E04B0BDEC86
:103F0000028BBDE8F0410DF047BC00BF00008A42C3
:103F1000C3F5484000003443030004004065020834
:103F2000B2F90400B2F9083030B5B1F904400344E5
:103F3000A34215DDB1F908302344834210DDB2F904
:103F40000640B2F90A30B1F906502344AB4207DD0E
:103F5000B1F90A002844A042D4BF0020012030BD9E
:103F60000020FCE72DE9F84F4FF42A7B1F464FF065
:103F700044080BFB01F308FB023303440446B3F887
:103F8000BA030D461646FFF7A1FE0A9B0BFB07FA84
:103F900008FB03AAF318E91908FB03F30BFB013331
:103FA00081461C444FF0000B0A9B3D44042D1E44E7
:103FB0000ED8092E0CD894F8B9334BB1B4F8BA0323
:103FC000FFF784FE4845544402D10BF1010BEBE7A7
:103FD0005846BDE8F88F00002DE9F04F4FF42A73E2
:103FE0004B431546442202FB0533034491B0064679
:103FF000B3F8BA030C46FFF769FEDFF860C105901D
:10400000BCE80F0008AF0FC79CE80F0087E80F005F
:104010000DF120090DF1400AD9E900872A464346EF
:10402000214600973046FFF79DFF7B4200F1010BD0
:1040300000932A46C8F1000321463046FFF792FF5D
:104040000BEB0003022B03937FDD4FF42A7B44210B
:104050000BFB04F201FB05F0831833444FF0000C16
:1040600083F8B9C300F56570D3F8943310445B69E5
:1040700030449847EB1B0493374B6FF0430003FB2E
:1040800008FC784308EB040A00EB0C02A4EB0804DC
:10409000EB1B442107920BFB04F201FB0322CCF142
:1040A00000031B1A3D4406930BFB0AF301FB053387
:1040B00006EB030B012306EB02090293BAF1040F8E
:1040C00011D8092D0FD8BBF8BA03FFF7FFFD059BE8
:1040D000984208D100218BF8B913DBF894130BF543
:1040E000657049698847042C12D8049B092B0FD8A6
:1040F000B9F8BA03FFF7EAFD059B984208D1002101
:1041000089F8B913D9F8941309F565704969884796
:10411000029B01330293049BDB1B0493079B99448E
:10412000069B9B44DDE902239342C244A4EB0804AE
:104130003D44C3DCD6F8903303990A2202FB0133D5
:10414000C6F8903311B0BDE8F08F09F10809D145E8
:104150007FF462AFF6E700BF58FDFFFF0C4D020889
:104160002DE9F74300F580590746B9F9B03ECD1A5D
:10417000B9F9B23ED41A14F1140F4BDB682C4BDCA6
:10418000152394FBF3F415F1130F47DBC72D47DC20
:10419000142395FBF3F54FF42A73634344266E43CF
:1041A00003F56578B0441E443E44B9F88E2ED6F827
:1041B0009433ADF80420B84401A940461B6E9847DB
:1041C000B9F8B23EB9F8B01E04EB4402C2EBC20229
:1041D0001A4405EB850301EB830112B209B2404694
:1041E000FEF74FFE012386F8B933D6F894334046E4
:1041F0005B699847002307F5F35089F88D3E083036
:104200000DF0CAFA2A462146384603B0BDE8F0430D
:10421000FFF7E2BE0024B6E70424B4E70025BAE7BE
:104220000925B8E790F8A8322DE9F0470446002B9D
:1042300045D000F58052B2F96C5EB2F96E8EB2F9DB
:10424000701EB2F9B43E002D02DD681898420DDBF5
:104250005B1AD4EDA87AAB42A8BF2B46F1EE677A81
:1042600023EAE373C4EDA87AA2F86C3E04F5F35197
:104270000027083140F6485AE6194FF0000996F831
:10428000B93373B106F565722046FFF749FE40B1B8
:10429000424629462046FFF763FF002384F8A832F0
:1042A0000DE009F10109B9F10A0F06F14406E6D162
:1042B00007F52A775745DFD1B8F1000FE8DDBDE8F3
:1042C000F087000090F884332DE9F74304460BB3E0
:1042D000D0F88833D0F88C2301339342C0F8883368
:1042E000C0F2F580D0E9DF520023042AC0F88833F9
:1042F00000F3B5806D004FF42A77D4F87C33013396
:10430000B5EB430F01DA042D75DDD4F880330133AA
:10431000C4F8803394F8A832D3B304F5F3550835C4
:1043200004F5805728460DF037FAB7F96E6EB7F9E5
:104330006C8ED4EDA86A07EE906AB8EEE77AD4EDF9
:10434000A97A37EE277A07EE908AF8EEE77ABDEE83
:10435000C77A77EEA67A17EE103AFDEEE77A1AB230
:1043600017EE903A284619B2FEF78BFD28460DF05D
:1043700013FA2046FFF756FFB8F1F00F03D8B6B294
:10438000B6F5A07F04D9002384F8A83287F88D3EC3
:1043900094F878332BB1002384F878332046FFF764
:1043A000B2FC4C4D002628688DF8076003F0C6FA71
:1043B000002800F08C804FF0FF33286832460DF162
:1043C000070103F08BFA9DF807304C2B53D1D4ED45
:1043D000A77A9FED417A77EEC77AC4EDA77A94ED7C
:1043E000A77ADFED3E7AB4EEE77AF1EE10FA5CDD03
:1043F000C4EDA77A60E007FB05464FF0000896F889
:10440000B9331BB3D6F8943306F565795B69484632
:104410009847B6F99A23B6F99813A52A0CDD94F8B3
:1044200085334BB9012384F885330BF0B9FF03B012
:10443000BDE8F043FEF7BABA0132484612B2FEF7C1
:1044400020FDD6F8943348465B69984708F1010887
:10445000B8F10A0F06F14406D1D101354DE7013517
:10446000C0E9DF536D00042D7FF754AF80F884332B
:10447000FFF7D8FE4EE7522B06D1D4EDA77A9FED79
:10448000167A77EE877AA8E7422BA8D12046FFF765
:10449000C5FC94F8A932002BA1D10122C4E9DF3375
:1044A00084F8842384F8A93299E7DFED0D7AB4EE1D
:1044B000E77AF1EE10FA9BD404F5F6551835284644
:1044C00094EDA70AFFF716FC28460DF065F903B036
:1044D000BDE8F083CC340020CDCC4C3E000034430A
:1044E000000034C337B54FF4807200254FF6FF73D8
:1044F0008284104A0260C0E90155C0E90355C0E951
:104500000555C0E90755C38480F8283001A9044641
:10451000ADF8043009F037FB074B23602046C4E9AF
:104520000B55C4E90D55C4E90F5584F8295065852C
:1045300003B030BDF86A020888640208F7B5044683
:10454000FEF752FE374B236000250023C4F89C324F
:10455000C4F8A032C4F8A432A4F8A8523249C82240
:1045600004F52C701FF07FFE04F5F1560223C4E918
:10457000DF55C4E9E33584F87853A4F88453C4F8CC
:104580008853043604F5657505F52A7728464435C1
:10459000FFF7A8FFBD42F9D1AE42F5D13046FFF793
:1045A000A1FF04F5F35004F580550830FFF79AFF9A
:1045B0004FF480730026A5F8D03E04F5F6501B4B4F
:1045C000C5F8AC3EC5F8B06E4FF6FF73C5F8B46ED3
:1045D000C5F8B86EC5F8BC6EC5F8C06EC5F8C46E37
:1045E000C5F8C86EC5F8CC6EC5F8D46E01A91830F0
:1045F000ADF8043008F074F80D4B0E4AC5F8683F6A
:10460000C5F8783F0C4BC5F86C4F2046C5F8702FA5
:10461000C5F8746FC5F87C4FC5F8803FC5F8846F46
:1046200003B0F0BD146502082C4D0208186602089C
:10463000FC640208DD4600084B3C000890F8293075
:104640002DE9F0410446002B41D0438D828D01338A
:104650009BB2934243853AD39B1A9DB2828E038EBE
:10466000866BD21A12B2C38D00212846B047638EE2
:10467000E28EE76BD21A0646E38D12B2002128467D
:10468000B847638EC218238EF11812B209B22046C1
:10469000FCF75BFEA38DE18D628D0B449A4216D32D
:1046A000002384F8293063850BF07AFE214604301C
:1046B0000BF09BFE206C50B10368DB68984730B16B
:1046C000206C036821469B68BDE8F0411847BDE8AF
:1046D000F08108B5FFF7B2FF08BD0000B1F9063060
:1046E000B22B70B5B1F904600C4605DD0BF058FE35
:1046F000BDE87040FEF75AB915331DB291F8293064
:104700002BB90BF04DFE214604300BF017FF0023B0
:104710006385636823639623E385074BA686C4E914
:104720000E33012384F82930E36AE58613B9204665
:10473000FFF784FF70BD00BF4B2801082DE9F0434F
:104740002DED028B054605F5F65683B0183605F5B6
:104750008057FEF7EFFC4FF0000801A93046ADF896
:10476000048008F05FF9B7F8FE3EADF80030684607
:104770000FF028FAB7F8FE3EADF80430044601A861
:104780000FF054FA04EBD4714910C0F1FF02C1F1EB
:10479000780112B209B23046FEF773FBB7F8FE3E5D
:1047A000ADF8003068460FF00DFA00EBD07040F322
:1047B0004F0007EE900AB7F8FE3EADF8043001A8AE
:1047C000B8EEE78A0FF032FA07EE900AF8EEE77AD1
:1047D00007F6D864C4ED127A84ED118A304607F0EA
:1047E000CBFF1A4BA365304607F0C6FF05F104095D
:1047F0009FED170A3046FFF77DFA05F5F55431466F
:10480000484605F017F80C342846FFF7BBFA1E227D
:1048100020461421FEF735FB2046C721FCF78CFD0E
:10482000204640F26D11FCF789FD2146484687F885
:10483000D08E04F0FFFF20460CF0AEFF012385F878
:10484000783303B0BDEC028BBDE8F0830080BB453C
:1048500000000000704704387047704710B5102101
:1048600004461EF04DFA204610BDA0F10400F5E705
:1048700000228260024A026018324260C1607047C2
:10488000686502087047000010B5034B03600446DA
:10489000FEF79DFE204610BD9065020810B5044647
:1048A000FFF7F2FF2046DC211EF02AFA204610BD59
:1048B00010B50446FEF7C0FE014B2360204610BD34
:1048C00090650208FEF784BE0022026070477047C0
:1048D000F02070474FF4A07070472920FDF79EBA72
:1048E0002820FDF79BBA08B5FDF76CFACA20FDF742
:1048F00095FAC320FDF776FA0820FDF773FA5020E9
:10490000FDF770FACF20FDF789FA0020FDF76AFA6B
:10491000C120FDF767FA3020FDF764FAED20FDF7BE
:104920007DFA6420FDF75EFA0320FDF75BFA1220A2
:10493000FDF758FA8120FDF755FAE820FDF76EFAE9
:104940008520FDF74FFA0020FDF74CFA7820FDF79F
:1049500049FACB20FDF762FA3920FDF743FA2C2003
:10496000FDF740FA0020FDF73DFA3420FDF73AFA52
:104970000220FDF737FAF720FDF750FA2020FDF767
:1049800031FAEA20FDF74AFA0020FDF72BFA002061
:10499000FDF728FAB120FDF741FA0020FDF722FAD1
:1049A0001B20FDF71FFAB620FDF738FA0A20FDF7A5
:1049B00019FAA220FDF716FAC020FDF72FFA1020F1
:1049C000FDF710FAC120FDF729FA1020FDF70AFAC9
:1049D000C520FDF723FA4520FDF704FA1520FDF761
:1049E00001FAC720FDF71AFA9020FDF7FBF93620EF
:1049F000FDF714FAC820FDF7F5F9F220FDF70EFADD
:104A00000020FDF7EFF9B020FDF708FAC220FDF70E
:104A1000E9F9B620FDF702FA0A20FDF7E3F9A7202D
:104A2000FDF7E0F92720FDF7DDF90420FDF7DAF9BD
:104A30002A20FDF7F3F90020FDF7D4F90020FDF757
:104A4000D1F90020FDF7CEF9EF20FDF7CBF92B20AF
:104A5000FDF7E4F90020FDF7C5F90020FDF7C2F9E4
:104A60000120FDF7BFF93F20FDF7BCF9F620FDF767
:104A7000D5F90120FDF7B6F90020FDF7B3F90620BE
:104A8000FDF7B0F92C20FDF7C9F9C820FDF714FA9D
:104A90002620FDF7C3F90120FDF7A4F9E020FDF77A
:104AA000BDF90F20FDF79EF92920FDF79BF9242081
:104AB000FDF798F90C20FDF795F90E20FDF792F916
:104AC0000920FDF78FF94E20FDF78CF97820FDF7CE
:104AD00089F93C20FDF786F90920FDF783F91320B9
:104AE000FDF780F90520FDF77DF91720FDF77AF92C
:104AF0001120FDF777F90020FDF774F9E120FDF7AB
:104B00008DF90020FDF76EF91620FDF76BF91B20DB
:104B1000FDF768F90420FDF765F91120FDF762F94A
:104B20000720FDF75FF93120FDF75CF93320FDF731
:104B300059F94220FDF756F90520FDF753F90C20ED
:104B4000FDF750F90A20FDF74DF92820FDF74AF945
:104B50002F20FDF747F90F20FDF744F91120FDF74D
:104B60005DF9C820FDF7A8F92920FDF757F9BDE840
:104B700008402C20FDF752B908B5FDF723F90321B1
:104B8000D320FDF767F980B208BD10B5C4B2022288
:104B900003212046FDF7CCF80A20FDF711F9204645
:104BA00000220321FDF7C4F8BDE810400220FDF704
:104BB00007B938B50446E4B2FDF7B8F8002120463D
:104BC000FDF7CEF8012105462046FDF7C9F840EA79
:104BD000052080B238BD10B5C4B240212046FDF793
:104BE000BFF8030607D54C212046FDF7B9F8003879
:104BF00018BF012010BD01224B212046FDF798F877
:104C0000204600224B21FDF793F80020F2E773B510
:104C10000423C4B20E461546D7210DEB03022046ED
:104C2000FDF7B8F8019B1BBA1A0DC3F30B233280B2
:104C300020462B8001224B21FDF77AF800224B21E0
:104C40002046FDF775F802B070BD000010B50A4AA5
:104C50001378984204460DD0517888420AD00BB19F
:104C600041B90123D454FDF761F82046BDE8104056
:104C7000FFF78BBF10BD00BF2C38002010B5C4B2A9
:104C800009212046FDF76CF840F00102D2B220461F
:104C90000921BDE81040FDF74BB810B5C4B2092199
:104CA0002046FDF75DF8092100F0FE022046BDE830
:104CB0001040FDF73DB838B5C4B20D4620460A2174
:104CC000FDF74EF840EA0502D2B220460A21BDE8BF
:104CD0003840FDF72DB810B50446FDF728F82046FA
:104CE0001F21FFF7E8FF2046BDE81040FFF7C6BFD1
:104CF00038B5C4B20D4620460A21FDF731F820EA46
:104D00000502D2B220460A21BDE83840FDF710B8AE
:104D100010B50446FFF7C1FF20461F21BDE8104033
:104D2000FFF7E6BF10B5C0B20C460B21FDF718F82F
:104D3000204010BD1F21FFF7F5BF0A46C0B20B216E
:104D4000FCF7F6BF1F21FFF7F8BF38B5C4B20D4618
:104D500020461721FDF704F820EA0502D2B22046CA
:104D60001721BDE83840FCF7E3BF70B5C4B2064672
:104D700004212046FCF7F4FF042100F0FB02054665
:104D80002046FCF7D5FF3046F021FFF7DEFF05F0A7
:104D9000F80220460421FCF7CBFF492220212046BF
:104DA000FCF7C6FF0220FDF70BF820460122212167
:104DB000FCF7BEFF20469A224121FCF7B9FF2046AE
:104DC00001224A21FCF7B4FF204601224B21FCF7C7
:104DD000AFFF204600224B21FCF7AAFF204601220C
:104DE0005621FCF7A5FF204601225821FCF7A0FF21
:104DF000204601224021FCF79BFF2046FF220B2189
:104E0000FCF796FFBDE870400220FCF7D9BF000018
:104E1000054BD3F8882042F47002C3F888204FF085
:104E200000629A60704700BF00ED00E008B50B4BD0
:104E30001A6842F400721A601A6842F480621A60BA
:104E40001A6842F480721A60032000F02FF80020E4
:104E5000FDF7AAFAFDF73EF8002008BD003C02402D
:104E6000034A044B11681B780B441360704700BF62
:104E70003038002078000020014B1868704700BFD0
:104E80003038002038B50446FFF7F6FF631C1CBF1E
:104E9000054B1B78054618BFE418FFF7EDFF431BD1
:104EA000A342FAD338BD00BF780000200749CA6882
:104EB00022F4E0620302120403F4E063120C1343D1
:104EC00043F0BF6343F40033CB60704700ED00E074
:104ED000164B30B5DC68C4F30224C4F10703251D6A
:104EE000042B28BF0423062D4FF0FF358CBF033C55
:104EF000002405FA03F321EA0303A54022EA050290
:104F0000A340002843EA0203ACBF00F16040084A16
:104F10004FEA0313B8BF00F00F00DBB2AABF00F5E1
:104F20006140135480F8003330BD00BF00ED00E055
:104F300014ED00E0002807DB044A4109012300F0DA
:104F40001F00834042F82130704700BF00E100E0BD
:104F500010B5044650B1437903F0FF0213B9027152
:104F6000FCF7D8FF01236371002010BD0120FCE78E
:104F700010B5044620B390F8393003F0FF021BB996
:104F800080F83820FCF7DEFF022384F839302368EC
:104F900061681A6822F440320A431A605A6BA168A9
:104FA00022F007020A435A631A6CE1686FF30D029C
:104FB0000A431A6400200123E06384F8393010BDED
:104FC0000120FCE770477047036870B55E681D6894
:104FD000F207044614D5E90512D51A6822F4807246
:104FE0001A60C26B42F00102C26301229A6004237C
:104FF00080F83930002380F83830436903B198478E
:10500000B20616D5AB0414D523681A6822F40052F0
:105010001A6020229A60E36B43F00203E3630423E7
:1050200084F83930002384F8383063690BB12046A6
:105030009847300716D5290514D523681A6822F435
:1050400000621A6008229A60E36B43F00403E36392
:10505000042384F83930002384F8383063690BB1B5
:105060002046984772070BD56B0509D523681A6847
:1050700022F480621A6004229A602046FFF7A2FFA1
:10508000B00714D5A90512D523681A6822F4007256
:105090001A6002229A60E36BE363012384F83930DB
:1050A000002384F8383023690BB120469847F20674
:1050B00013D5EB0411D523681A6822F480521A60C4
:1050C00010229A60E36BE363012384F839300023F4
:1050D00084F838302046FFF776FF70BDF0B590F8C1
:1050E0003820012A03464FF002002BD0012283F81A
:1050F000382083F8390003EB0112D2E90740556AE2
:10510000174F44EA0040093C012C9CBF05F07F4248
:1051100010434FEA01161A6888BF40EA056091B94A
:10512000516A394001435162012C9969916103D858
:10513000596A21F07F4191620122002083F83920D1
:1051400083F83800F0BDD16939400143D161991924
:10515000012C896911619CBF25F07F451562EBE741
:10516000F0FFFC002DE9F74FDFF8BC916C4A0023FB
:105170000D6801249C4004EA0506AC4340F0B7806A
:105180004D68032705F003044FEA430807FA08FCBB
:10519000671E012F6FEA0C0C34D8876807EA0C0EE3
:1051A000CF6807FA08F747EA0E078760476827EADB
:1051B000060EC5F300179F4047EA0E074760C76811
:1051C00007EA0C0E8F6807FA08F747EA0E07022C69
:1051D000C76019D14FEAD30A00EB8A0A03F0070B24
:1051E000DAF820704FEA8B0B4FF00F0E0EFA0BFE21
:1051F00027EA0E0E0F6907FA0BF747EA0E07CAF8FF
:10520000207001E0032CDAD1076804FA08F407EAF9
:105210000C073C4315F4403F046068D0002401941F
:10522000D9F8444044F48044C9F84440D9F8444093
:1052300023F0030707F1804704F4804407F59C3707
:10524000019403F0030C019CD7F808E04FEA8C0CA2
:105250000F2404FA0CF42EEA040E324CA0424DD076
:1052600004F58064A0424BD004F58064A04249D08C
:1052700004F58064A04247D004F58064A04245D084
:1052800004F58064A04243D004F58064A04241D07C
:1052900004F58064A0423FD004F58064A0423DD074
:1052A00004F58064A04214BF0A24092404FA0CF413
:1052B00044EA0E04BC609468F74315F4801F0CBFE9
:1052C0003C4034439460D46815F4001F0CBF3C404C
:1052D0003443D460546815F4003F0CBF3C40344361
:1052E00054601468ED0354BF3C40344314600133F0
:1052F000102B7FF43DAF03B0BDE8F08F0024D5E75D
:105300000124D3E70224D1E70324CFE70424CDE727
:105310000524CBE70624C9E70724C7E70824C5E727
:10532000003C01400000024000380240036919427D
:1053300014BF0120002070470AB181617047090441
:10534000FBE7436901EA030221EA030141EA024162
:105350008161704701684B6913F480634FF000026C
:1053600010D06FF480634B612023026380F83D30DE
:1053700080F83E20036C80F83C2043F00403036473
:1053800001207047184670472DE9F84606460F463B
:1053900091461D464FEA114A3368BAF1010F0CBF1E
:1053A0005C699C6927EA0404A4B2B4FA84F4640931
:1053B000A14501D0002025E06A1CEED0FFF75CFD7E
:1053C000089BC01AA84201D8002DE5D13368BAF174
:1053D000010F0CBF5B699B6927EA03039BB2B3FA19
:1053E00083F35B099945D7D100232022336386F8E4
:1053F0003D2086F83E30326C86F83C3042F0200288
:1054000032640120BDE8F8862DE9F04104460F46DC
:10541000164698462568686927EA000080B2C0B140
:105420006B695A0517D52B6843F400732B606FF432
:1054300080636B6120220023236384F83D2084F87D
:105440003E30236C43F004032364002384F83C3093
:105450000120BDE8F081731CDDD0FFF70DFDA0EB4E
:105460000800B04201D8002ED4D123685A6927EA37
:10547000020292B2002ACDD000232022236384F8B6
:105480003D2084F83E30236C1343DDE770B50446BD
:105490000D46164623685B691B0601D500201EE0F9
:1054A0002046FFF757FFC8B96A1CF3D0FFF7E4FCAA
:1054B000801BA84201D8002DECD123685B6913F052
:1054C0008003E7D12022236384F83D2084F83E3016
:1054D000226C84F83C3042F020022264012070BD2E
:1054E0002DE9F0431546026885B0DDE90C78994650
:1054F000136843F4807313600E463B46CDF800807A
:1055000000224FF001110446FFF73EFF236838B137
:105510001B68DB0502D54FF400732364032620E0EB
:1055200006F0FE061E611A4943463A462046FFF73A
:105530006BFFA8B9236803905A6903929B69039390
:10554000424639462046039BFFF7A0FF064660B15E
:10555000236C042B01BF2268136843F400731360AB
:105560000126304605B0BDE8F083B9F1010F23688C
:1055700002D1EDB21D61F4E72A0A1A6139464246AA
:105580002046FFF783FF0028E2D12368F1E700BF40
:10559000020001002DE9FF479A46036815461A6884
:1055A00042F480621A601A68DDE90C7842F4807275
:1055B0001A600E463B46CDF8008000224FF00111E4
:1055C0000446FFF7E1FE236838B11B68DB0544BFE2
:1055D0004FF400732364032021E05FFA86F906F09C
:1055E000FE061E612B4943463A462046FFF70CFF54
:1055F000A0B9236803905A6903929B6903934246BA
:1056000039462046039BFFF741FF58B1236C042B1A
:1056100001BF2268136843F400731360012004B0D3
:10562000BDE8F087BAF1010F23681AD1EDB2424606
:105630001D6139462046FFF729FF02460028E5D1C3
:1056400021680B6843F480730B602046CDF800801E
:105650003B464FF00111FFF797FE226860B11368D7
:10566000B4E72A0A1A61394642462046FFF70EFF80
:105670000028CBD12368D9E749F00103136105491C
:1056800043463A462046FFF7BFFE003818BF0120C8
:10569000C5E700BF0200010070B504460D4616467E
:1056A00023685B695B0701D500201EE02046FFF7F9
:1056B00051FEC8B96A1CF3D0FFF7DEFB801BA8427D
:1056C00001D8002DECD123685B6913F00403E7D106
:1056D0002022236384F83D2084F83E30226C84F835
:1056E0003C3042F020022264012070BD70B50446B7
:1056F0000D46164621684B6913F0400301D0002087
:1057000011E04A69D2060FD56FF010024A612022DB
:10571000236384F83D2084F83E30236C2364002307
:1057200084F83C30012070BDFFF7A6FB801BA84227
:1057300001D8002DDED123685B6913F04003D9D175
:105740002022236384F83D2084F83E30236C1343E9
:10575000E4E7000070B5044608B9012070BD90F878
:105760003D3003F0FF021BB980F83C20FCF70CFC35
:10577000242384F83D3023681A6822F001021A605D
:105780001A6842F400421A601A6822F400421A6051
:1057900000F0A8FE3F4B65689D4294BF3E4B3F4BD7
:1057A00098428CBF00230123002BD6D12268394EAA
:1057B00051683B4BB0FBF3F321F03F011943B54275
:1057C000516088BF4FF49676116A88BF734321F009
:1057D0003F0184BF4FF47A76B3FBF6F301330B43FA
:1057E0001362D169431E2B4821F44F41854221F0B9
:1057F000FF0132D86D0040F6FC70B3FBF5F30133C6
:10580000034242D0C3F30B031943D161D4E90730FB
:105810001168034321F0C0010B4313609168D4E980
:10582000030321F40341034321F0FF010B43936081
:10583000D4E90530D168034321F0FF010B43D36065
:10584000136843F00103136000202023206484F8D0
:105850003D30206384F83E0080E7A06850B905EB36
:105860004505B3FBF5F30133C3F30B037BB143F4FD
:105870000043C9E719206843B3FBF0F30133C3F3D6
:105880000B0323B143F44043BEE70423BCE70123E9
:10589000BAE700BFA08601007F841E00FF083D001C
:1058A00040420F002DE9F743044699460C9E0F46EF
:1058B0009046FFF7E1FA94F83D30202B054603D0DF
:1058C000022003B0BDE8F08300903C491923012277
:1058D0002046FFF759FD0028F2D194F83C30012B07
:1058E000EED02068012384F83C300368D9075EBFFE
:1058F000036843F001030360036823F4006303605B
:10590000212384F83D30402384F83E300023236473
:105910000A9B6362BDF82C306385638D2385284B19
:10592000E3624246CDE900654B4639462046FFF723
:10593000D7FD00282AD00120C3E7FFF7A7FD40B11B
:10594000236C042B01BF2268136843F400731360B7
:10595000F1E7636A27681A4612F8011B396162622F
:10596000628D218D013A92B262857A69481E80B2B9
:10597000520720850AD548B15A783A6102336362EA
:10598000638D013B02399BB221856385238D2A46B5
:1059900031462046002BD0D1FFF77EFE0028CFD124
:1059A0002268136843F400731360202384F83D30A9
:1059B00084F83C0084F83E0083E700BF020010003A
:1059C0000000FFFF2DE9F043044687B09946109F81
:1059D0000D469046FFF750FA94F83D30202B0646CE
:1059E00004D00225284607B0BDE8F08300907A492C
:1059F000192301222046FFF7C7FC0028F1D194F8B3
:105A00003C30012BEDD02068012384F83C30036842
:105A1000DB075EBF036843F001030360036823F400
:105A200000630360222384F83D30402384F83E3035
:105A3000002323640E9B6362BDF83C306385638D55
:105A40002385664BE3622946CDE900764B46424604
:105A50002046FFF79FFD054608B10125C2E7228DCC
:105A60002368B2B902905A6902929A690292029A24
:105A70001A6842F400721A60DFF86481238D002BEB
:105A80002CD1202284F83D2084F83C3084F83E302C
:105A9000A8E7012A0AD11A6822F480621A600390EA
:105AA0005A6903929A690392039AE1E7022A0ED196
:105AB0001A6822F480621A601A6842F400621A605E
:105AC00004905A6904929B690493049BD4E705905F
:105AD0005A6905929B690593059BCDE7032B56D820
